{
	"georgs2Wallet.sol": {
		"Wallet": {
			"abi": [
				{
					"inputs": [],
					"stateMutability": "nonpayable",
					"type": "constructor"
				},
				{
					"inputs": [],
					"name": "GuardiansNeededToReset",
					"outputs": [
						{
							"internalType": "uint256",
							"name": "",
							"type": "uint256"
						}
					],
					"stateMutability": "view",
					"type": "function"
				},
				{
					"inputs": [
						{
							"internalType": "address",
							"name": "",
							"type": "address"
						}
					],
					"name": "allowedToSend",
					"outputs": [
						{
							"internalType": "bool",
							"name": "",
							"type": "bool"
						}
					],
					"stateMutability": "view",
					"type": "function"
				},
				{
					"inputs": [
						{
							"internalType": "address",
							"name": "",
							"type": "address"
						}
					],
					"name": "amount",
					"outputs": [
						{
							"internalType": "uint256",
							"name": "",
							"type": "uint256"
						}
					],
					"stateMutability": "view",
					"type": "function"
				},
				{
					"inputs": [
						{
							"internalType": "address payable",
							"name": "_newOwner",
							"type": "address"
						}
					],
					"name": "changeOwner",
					"outputs": [],
					"stateMutability": "nonpayable",
					"type": "function"
				},
				{
					"inputs": [
						{
							"internalType": "address",
							"name": "_user",
							"type": "address"
						}
					],
					"name": "denyAllowance",
					"outputs": [],
					"stateMutability": "nonpayable",
					"type": "function"
				},
				{
					"inputs": [
						{
							"internalType": "address",
							"name": "",
							"type": "address"
						}
					],
					"name": "guardians",
					"outputs": [
						{
							"internalType": "bool",
							"name": "",
							"type": "bool"
						}
					],
					"stateMutability": "view",
					"type": "function"
				},
				{
					"inputs": [
						{
							"internalType": "address",
							"name": "_user",
							"type": "address"
						},
						{
							"internalType": "uint256",
							"name": "_amount",
							"type": "uint256"
						}
					],
					"name": "setAmount",
					"outputs": [],
					"stateMutability": "nonpayable",
					"type": "function"
				},
				{
					"inputs": [
						{
							"internalType": "address",
							"name": "_guard",
							"type": "address"
						}
					],
					"name": "setGuardian",
					"outputs": [],
					"stateMutability": "nonpayable",
					"type": "function"
				},
				{
					"inputs": [
						{
							"internalType": "address payable",
							"name": "_to",
							"type": "address"
						},
						{
							"internalType": "uint256",
							"name": "_amount",
							"type": "uint256"
						},
						{
							"internalType": "bytes",
							"name": "payload",
							"type": "bytes"
						}
					],
					"name": "transfer",
					"outputs": [
						{
							"internalType": "bytes",
							"name": "",
							"type": "bytes"
						}
					],
					"stateMutability": "nonpayable",
					"type": "function"
				},
				{
					"stateMutability": "payable",
					"type": "receive"
				}
			],
			"devdoc": {
				"kind": "dev",
				"methods": {},
				"version": 1
			},
			"evm": {
				"assembly": "    /* \"georgs2Wallet.sol\":59:2127  contract Wallet {... */\n  mstore(0x40, 0x80)\n    /* \"georgs2Wallet.sol\":372:437  constructor()... */\n  callvalue\n  dup1\n  iszero\n  tag_1\n  jumpi\n  0x00\n  dup1\n  revert\ntag_1:\n  pop\n    /* \"georgs2Wallet.sol\":418:428  msg.sender */\n  caller\n    /* \"georgs2Wallet.sol\":402:407  owner */\n  0x00\n  dup1\n    /* \"georgs2Wallet.sol\":402:429  owner = payable(msg.sender) */\n  0x0100\n  exp\n  dup2\n  sload\n  dup2\n  0xffffffffffffffffffffffffffffffffffffffff\n  mul\n  not\n  and\n  swap1\n  dup4\n  0xffffffffffffffffffffffffffffffffffffffff\n  and\n  mul\n  or\n  swap1\n  sstore\n  pop\n    /* \"georgs2Wallet.sol\":59:2127  contract Wallet {... */\n  dataSize(sub_0)\n  dup1\n  dataOffset(sub_0)\n  0x00\n  codecopy\n  0x00\n  return\nstop\n\nsub_0: assembly {\n        /* \"georgs2Wallet.sol\":59:2127  contract Wallet {... */\n      mstore(0x40, 0x80)\n      jumpi(tag_1, lt(calldatasize, 0x04))\n      shr(0xe0, calldataload(0x00))\n      dup1\n      0xb9f0bf66\n      gt\n      tag_12\n      jumpi\n      dup1\n      0xb9f0bf66\n      eq\n      tag_7\n      jumpi\n      dup1\n      0xb9f1b8dc\n      eq\n      tag_8\n      jumpi\n      dup1\n      0xbe45fd62\n      eq\n      tag_9\n      jumpi\n      dup1\n      0xd2fafb19\n      eq\n      tag_10\n      jumpi\n      dup1\n      0xf3e0db9e\n      eq\n      tag_11\n      jumpi\n      jump(tag_2)\n    tag_12:\n      dup1\n      0x0633b14a\n      eq\n      tag_3\n      jumpi\n      dup1\n      0x20829d80\n      eq\n      tag_4\n      jumpi\n      dup1\n      0x8a0dac4a\n      eq\n      tag_5\n      jumpi\n      dup1\n      0xa6f9dae1\n      eq\n      tag_6\n      jumpi\n      jump(tag_2)\n    tag_1:\n      jumpi(tag_2, calldatasize)\n      stop\n    tag_2:\n      0x00\n      dup1\n      revert\n        /* \"georgs2Wallet.sol\":211:253  mapping (address => bool) public guardians */\n    tag_3:\n      callvalue\n      dup1\n      iszero\n      tag_15\n      jumpi\n      0x00\n      dup1\n      revert\n    tag_15:\n      pop\n      tag_16\n      0x04\n      dup1\n      calldatasize\n      sub\n      dup2\n      add\n      swap1\n      tag_17\n      swap2\n      swap1\n      tag_18\n      jump\t// in\n    tag_17:\n      tag_19\n      jump\t// in\n    tag_16:\n      mload(0x40)\n      tag_20\n      swap2\n      swap1\n      tag_21\n      jump\t// in\n    tag_20:\n      mload(0x40)\n      dup1\n      swap2\n      sub\n      swap1\n      return\n        /* \"georgs2Wallet.sol\":1342:1501  function denyAllowance(address _user) public... */\n    tag_4:\n      callvalue\n      dup1\n      iszero\n      tag_22\n      jumpi\n      0x00\n      dup1\n      revert\n    tag_22:\n      pop\n      tag_23\n      0x04\n      dup1\n      calldatasize\n      sub\n      dup2\n      add\n      swap1\n      tag_24\n      swap2\n      swap1\n      tag_18\n      jump\t// in\n    tag_24:\n      tag_25\n      jump\t// in\n    tag_23:\n      stop\n        /* \"georgs2Wallet.sol\":1963:2120  function setGuardian(address _guard) public ... */\n    tag_5:\n      callvalue\n      dup1\n      iszero\n      tag_26\n      jumpi\n      0x00\n      dup1\n      revert\n    tag_26:\n      pop\n      tag_27\n      0x04\n      dup1\n      calldatasize\n      sub\n      dup2\n      add\n      swap1\n      tag_28\n      swap2\n      swap1\n      tag_18\n      jump\t// in\n    tag_28:\n      tag_29\n      jump\t// in\n    tag_27:\n      stop\n        /* \"georgs2Wallet.sol\":1509:1955  function changeOwner(address payable _newOwner) public... */\n    tag_6:\n      callvalue\n      dup1\n      iszero\n      tag_30\n      jumpi\n      0x00\n      dup1\n      revert\n    tag_30:\n      pop\n      tag_31\n      0x04\n      dup1\n      calldatasize\n      sub\n      dup2\n      add\n      swap1\n      tag_32\n      swap2\n      swap1\n      tag_33\n      jump\t// in\n    tag_32:\n      tag_34\n      jump\t// in\n    tag_31:\n      stop\n        /* \"georgs2Wallet.sol\":112:151  mapping (address => uint) public amount */\n    tag_7:\n      callvalue\n      dup1\n      iszero\n      tag_35\n      jumpi\n      0x00\n      dup1\n      revert\n    tag_35:\n      pop\n      tag_36\n      0x04\n      dup1\n      calldatasize\n      sub\n      dup2\n      add\n      swap1\n      tag_37\n      swap2\n      swap1\n      tag_18\n      jump\t// in\n    tag_37:\n      tag_38\n      jump\t// in\n    tag_36:\n      mload(0x40)\n      tag_39\n      swap2\n      swap1\n      tag_40\n      jump\t// in\n    tag_39:\n      mload(0x40)\n      dup1\n      swap2\n      sub\n      swap1\n      return\n        /* \"georgs2Wallet.sol\":316:363  uint public constant GuardiansNeededToReset = 3 */\n    tag_8:\n      callvalue\n      dup1\n      iszero\n      tag_41\n      jumpi\n      0x00\n      dup1\n      revert\n    tag_41:\n      pop\n      tag_42\n      tag_43\n      jump\t// in\n    tag_42:\n      mload(0x40)\n      tag_44\n      swap2\n      swap1\n      tag_40\n      jump\t// in\n    tag_44:\n      mload(0x40)\n      dup1\n      swap2\n      sub\n      swap1\n      return\n        /* \"georgs2Wallet.sol\":490:1125  function transfer(address payable _to,  uint _amount, bytes memory payload) public returns (bytes memory) ... */\n    tag_9:\n      callvalue\n      dup1\n      iszero\n      tag_45\n      jumpi\n      0x00\n      dup1\n      revert\n    tag_45:\n      pop\n      tag_46\n      0x04\n      dup1\n      calldatasize\n      sub\n      dup2\n      add\n      swap1\n      tag_47\n      swap2\n      swap1\n      tag_48\n      jump\t// in\n    tag_47:\n      tag_49\n      jump\t// in\n    tag_46:\n      mload(0x40)\n      tag_50\n      swap2\n      swap1\n      tag_51\n      jump\t// in\n    tag_50:\n      mload(0x40)\n      dup1\n      swap2\n      sub\n      swap1\n      return\n        /* \"georgs2Wallet.sol\":1133:1334  function setAmount(address _user, uint _amount) public... */\n    tag_10:\n      callvalue\n      dup1\n      iszero\n      tag_52\n      jumpi\n      0x00\n      dup1\n      revert\n    tag_52:\n      pop\n      tag_53\n      0x04\n      dup1\n      calldatasize\n      sub\n      dup2\n      add\n      swap1\n      tag_54\n      swap2\n      swap1\n      tag_55\n      jump\t// in\n    tag_54:\n      tag_56\n      jump\t// in\n    tag_53:\n      stop\n        /* \"georgs2Wallet.sol\":158:204  mapping (address => bool) public allowedToSend */\n    tag_11:\n      callvalue\n      dup1\n      iszero\n      tag_57\n      jumpi\n      0x00\n      dup1\n      revert\n    tag_57:\n      pop\n      tag_58\n      0x04\n      dup1\n      calldatasize\n      sub\n      dup2\n      add\n      swap1\n      tag_59\n      swap2\n      swap1\n      tag_18\n      jump\t// in\n    tag_59:\n      tag_60\n      jump\t// in\n    tag_58:\n      mload(0x40)\n      tag_61\n      swap2\n      swap1\n      tag_21\n      jump\t// in\n    tag_61:\n      mload(0x40)\n      dup1\n      swap2\n      sub\n      swap1\n      return\n        /* \"georgs2Wallet.sol\":211:253  mapping (address => bool) public guardians */\n    tag_19:\n      mstore(0x20, 0x03)\n      dup1\n      0x00\n      mstore\n      keccak256(0x00, 0x40)\n      0x00\n      swap2\n      pop\n      sload\n      swap1\n      0x0100\n      exp\n      swap1\n      div\n      0xff\n      and\n      dup2\n      jump\t// out\n        /* \"georgs2Wallet.sol\":1342:1501  function denyAllowance(address _user) public... */\n    tag_25:\n        /* \"georgs2Wallet.sol\":1423:1428  owner */\n      0x00\n      dup1\n      sload\n      swap1\n      0x0100\n      exp\n      swap1\n      div\n      0xffffffffffffffffffffffffffffffffffffffff\n      and\n        /* \"georgs2Wallet.sol\":1411:1428  msg.sender==owner */\n      0xffffffffffffffffffffffffffffffffffffffff\n      and\n        /* \"georgs2Wallet.sol\":1411:1421  msg.sender */\n      caller\n        /* \"georgs2Wallet.sol\":1411:1428  msg.sender==owner */\n      0xffffffffffffffffffffffffffffffffffffffff\n      and\n      eq\n        /* \"georgs2Wallet.sol\":1403:1454  require(msg.sender==owner, \"You are not the owner\") */\n      tag_63\n      jumpi\n      mload(0x40)\n      0x08c379a000000000000000000000000000000000000000000000000000000000\n      dup2\n      mstore\n      0x04\n      add\n      tag_64\n      swap1\n      tag_65\n      jump\t// in\n    tag_64:\n      mload(0x40)\n      dup1\n      swap2\n      sub\n      swap1\n      revert\n    tag_63:\n        /* \"georgs2Wallet.sol\":1488:1493  false */\n      0x00\n        /* \"georgs2Wallet.sol\":1465:1478  allowedToSend */\n      0x02\n        /* \"georgs2Wallet.sol\":1465:1485  allowedToSend[_user] */\n      0x00\n        /* \"georgs2Wallet.sol\":1479:1484  _user */\n      dup4\n        /* \"georgs2Wallet.sol\":1465:1485  allowedToSend[_user] */\n      0xffffffffffffffffffffffffffffffffffffffff\n      and\n      0xffffffffffffffffffffffffffffffffffffffff\n      and\n      dup2\n      mstore\n      0x20\n      add\n      swap1\n      dup2\n      mstore\n      0x20\n      add\n      0x00\n      keccak256\n      0x00\n        /* \"georgs2Wallet.sol\":1465:1493  allowedToSend[_user] = false */\n      0x0100\n      exp\n      dup2\n      sload\n      dup2\n      0xff\n      mul\n      not\n      and\n      swap1\n      dup4\n      iszero\n      iszero\n      mul\n      or\n      swap1\n      sstore\n      pop\n        /* \"georgs2Wallet.sol\":1342:1501  function denyAllowance(address _user) public... */\n      pop\n      jump\t// out\n        /* \"georgs2Wallet.sol\":1963:2120  function setGuardian(address _guard) public ... */\n    tag_29:\n        /* \"georgs2Wallet.sol\":2046:2051  owner */\n      0x00\n      dup1\n      sload\n      swap1\n      0x0100\n      exp\n      swap1\n      div\n      0xffffffffffffffffffffffffffffffffffffffff\n      and\n        /* \"georgs2Wallet.sol\":2032:2051  msg.sender == owner */\n      0xffffffffffffffffffffffffffffffffffffffff\n      and\n        /* \"georgs2Wallet.sol\":2032:2042  msg.sender */\n      caller\n        /* \"georgs2Wallet.sol\":2032:2051  msg.sender == owner */\n      0xffffffffffffffffffffffffffffffffffffffff\n      and\n      eq\n        /* \"georgs2Wallet.sol\":2024:2077  require(msg.sender == owner, \"You are not the owner\") */\n      tag_67\n      jumpi\n      mload(0x40)\n      0x08c379a000000000000000000000000000000000000000000000000000000000\n      dup2\n      mstore\n      0x04\n      add\n      tag_68\n      swap1\n      tag_65\n      jump\t// in\n    tag_68:\n      mload(0x40)\n      dup1\n      swap2\n      sub\n      swap1\n      revert\n    tag_67:\n        /* \"georgs2Wallet.sol\":2108:2112  true */\n      0x01\n        /* \"georgs2Wallet.sol\":2088:2097  guardians */\n      0x03\n        /* \"georgs2Wallet.sol\":2088:2105  guardians[_guard] */\n      0x00\n        /* \"georgs2Wallet.sol\":2098:2104  _guard */\n      dup4\n        /* \"georgs2Wallet.sol\":2088:2105  guardians[_guard] */\n      0xffffffffffffffffffffffffffffffffffffffff\n      and\n      0xffffffffffffffffffffffffffffffffffffffff\n      and\n      dup2\n      mstore\n      0x20\n      add\n      swap1\n      dup2\n      mstore\n      0x20\n      add\n      0x00\n      keccak256\n      0x00\n        /* \"georgs2Wallet.sol\":2088:2112  guardians[_guard] = true */\n      0x0100\n      exp\n      dup2\n      sload\n      dup2\n      0xff\n      mul\n      not\n      and\n      swap1\n      dup4\n      iszero\n      iszero\n      mul\n      or\n      swap1\n      sstore\n      pop\n        /* \"georgs2Wallet.sol\":1963:2120  function setGuardian(address _guard) public ... */\n      pop\n      jump\t// out\n        /* \"georgs2Wallet.sol\":1509:1955  function changeOwner(address payable _newOwner) public... */\n    tag_34:\n        /* \"georgs2Wallet.sol\":1588:1597  guardians */\n      0x03\n        /* \"georgs2Wallet.sol\":1588:1609  guardians[msg.sender] */\n      0x00\n        /* \"georgs2Wallet.sol\":1598:1608  msg.sender */\n      caller\n        /* \"georgs2Wallet.sol\":1588:1609  guardians[msg.sender] */\n      0xffffffffffffffffffffffffffffffffffffffff\n      and\n      0xffffffffffffffffffffffffffffffffffffffff\n      and\n      dup2\n      mstore\n      0x20\n      add\n      swap1\n      dup2\n      mstore\n      0x20\n      add\n      0x00\n      keccak256\n      0x00\n      swap1\n      sload\n      swap1\n      0x0100\n      exp\n      swap1\n      div\n      0xff\n      and\n        /* \"georgs2Wallet.sol\":1580:1636  require(guardians[msg.sender], \"You are not a guardian\") */\n      tag_70\n      jumpi\n      mload(0x40)\n      0x08c379a000000000000000000000000000000000000000000000000000000000\n      dup2\n      mstore\n      0x04\n      add\n      tag_71\n      swap1\n      tag_72\n      jump\t// in\n    tag_71:\n      mload(0x40)\n      dup1\n      swap2\n      sub\n      swap1\n      revert\n    tag_70:\n        /* \"georgs2Wallet.sol\":1661:1670  _newOwner */\n      dup1\n        /* \"georgs2Wallet.sol\":1651:1670  nxtOwner!=_newOwner */\n      0xffffffffffffffffffffffffffffffffffffffff\n      and\n        /* \"georgs2Wallet.sol\":1651:1659  nxtOwner */\n      0x04\n      0x00\n      swap1\n      sload\n      swap1\n      0x0100\n      exp\n      swap1\n      div\n      0xffffffffffffffffffffffffffffffffffffffff\n      and\n        /* \"georgs2Wallet.sol\":1651:1670  nxtOwner!=_newOwner */\n      0xffffffffffffffffffffffffffffffffffffffff\n      and\n      eq\n        /* \"georgs2Wallet.sol\":1647:1760  if (nxtOwner!=_newOwner)... */\n      tag_73\n      jumpi\n        /* \"georgs2Wallet.sol\":1707:1716  _newOwner */\n      dup1\n        /* \"georgs2Wallet.sol\":1696:1704  nxtOwner */\n      0x04\n      0x00\n        /* \"georgs2Wallet.sol\":1696:1716  nxtOwner = _newOwner */\n      0x0100\n      exp\n      dup2\n      sload\n      dup2\n      0xffffffffffffffffffffffffffffffffffffffff\n      mul\n      not\n      and\n      swap1\n      dup4\n      0xffffffffffffffffffffffffffffffffffffffff\n      and\n      mul\n      or\n      swap1\n      sstore\n      pop\n        /* \"georgs2Wallet.sol\":1747:1748  0 */\n      0x00\n        /* \"georgs2Wallet.sol\":1731:1744  guardianCount */\n      0x05\n        /* \"georgs2Wallet.sol\":1731:1748  guardianCount = 0 */\n      dup2\n      swap1\n      sstore\n      pop\n        /* \"georgs2Wallet.sol\":1647:1760  if (nxtOwner!=_newOwner)... */\n    tag_73:\n        /* \"georgs2Wallet.sol\":1772:1785  guardianCount */\n      0x05\n      0x00\n        /* \"georgs2Wallet.sol\":1772:1787  guardianCount++ */\n      dup2\n      sload\n      dup1\n      swap3\n      swap2\n      swap1\n      tag_74\n      swap1\n      tag_75\n      jump\t// in\n    tag_74:\n      swap2\n      swap1\n      pop\n      sstore\n      pop\n        /* \"georgs2Wallet.sol\":362:363  3 */\n      0x03\n        /* \"georgs2Wallet.sol\":1812:1825  guardianCount */\n      sload(0x05)\n        /* \"georgs2Wallet.sol\":1812:1849  guardianCount>=GuardiansNeededToReset */\n      lt\n        /* \"georgs2Wallet.sol\":1808:1948  if (guardianCount>=GuardiansNeededToReset)... */\n      tag_76\n      jumpi\n        /* \"georgs2Wallet.sol\":1883:1891  nxtOwner */\n      0x04\n      0x00\n      swap1\n      sload\n      swap1\n      0x0100\n      exp\n      swap1\n      div\n      0xffffffffffffffffffffffffffffffffffffffff\n      and\n        /* \"georgs2Wallet.sol\":1875:1880  owner */\n      0x00\n      dup1\n        /* \"georgs2Wallet.sol\":1875:1891  owner = nxtOwner */\n      0x0100\n      exp\n      dup2\n      sload\n      dup2\n      0xffffffffffffffffffffffffffffffffffffffff\n      mul\n      not\n      and\n      swap1\n      dup4\n      0xffffffffffffffffffffffffffffffffffffffff\n      and\n      mul\n      or\n      swap1\n      sstore\n      pop\n        /* \"georgs2Wallet.sol\":1933:1934  0 */\n      0x00\n        /* \"georgs2Wallet.sol\":1906:1914  nxtOwner */\n      0x04\n      0x00\n        /* \"georgs2Wallet.sol\":1906:1936  nxtOwner = payable(address(0)) */\n      0x0100\n      exp\n      dup2\n      sload\n      dup2\n      0xffffffffffffffffffffffffffffffffffffffff\n      mul\n      not\n      and\n      swap1\n      dup4\n      0xffffffffffffffffffffffffffffffffffffffff\n      and\n      mul\n      or\n      swap1\n      sstore\n      pop\n        /* \"georgs2Wallet.sol\":1808:1948  if (guardianCount>=GuardiansNeededToReset)... */\n    tag_76:\n        /* \"georgs2Wallet.sol\":1509:1955  function changeOwner(address payable _newOwner) public... */\n      pop\n      jump\t// out\n        /* \"georgs2Wallet.sol\":112:151  mapping (address => uint) public amount */\n    tag_38:\n      mstore(0x20, 0x01)\n      dup1\n      0x00\n      mstore\n      keccak256(0x00, 0x40)\n      0x00\n      swap2\n      pop\n      swap1\n      pop\n      sload\n      dup2\n      jump\t// out\n        /* \"georgs2Wallet.sol\":316:363  uint public constant GuardiansNeededToReset = 3 */\n    tag_43:\n        /* \"georgs2Wallet.sol\":362:363  3 */\n      0x03\n        /* \"georgs2Wallet.sol\":316:363  uint public constant GuardiansNeededToReset = 3 */\n      dup2\n      jump\t// out\n        /* \"georgs2Wallet.sol\":490:1125  function transfer(address payable _to,  uint _amount, bytes memory payload) public returns (bytes memory) ... */\n    tag_49:\n        /* \"georgs2Wallet.sol\":582:594  bytes memory */\n      0x60\n        /* \"georgs2Wallet.sol\":630:651  address(this).balance */\n      selfbalance\n        /* \"georgs2Wallet.sol\":621:628  _amount */\n      dup4\n        /* \"georgs2Wallet.sol\":621:651  _amount<=address(this).balance */\n      gt\n      iszero\n        /* \"georgs2Wallet.sol\":613:694  require(_amount<=address(this).balance, \"Contract does not have enough currency\") */\n      tag_78\n      jumpi\n      mload(0x40)\n      0x08c379a000000000000000000000000000000000000000000000000000000000\n      dup2\n      mstore\n      0x04\n      add\n      tag_79\n      swap1\n      tag_80\n      jump\t// in\n    tag_79:\n      mload(0x40)\n      dup1\n      swap2\n      sub\n      swap1\n      revert\n    tag_78:\n        /* \"georgs2Wallet.sol\":725:730  owner */\n      0x00\n      dup1\n      sload\n      swap1\n      0x0100\n      exp\n      swap1\n      div\n      0xffffffffffffffffffffffffffffffffffffffff\n      and\n        /* \"georgs2Wallet.sol\":713:730  msg.sender==owner */\n      0xffffffffffffffffffffffffffffffffffffffff\n      and\n        /* \"georgs2Wallet.sol\":713:723  msg.sender */\n      caller\n        /* \"georgs2Wallet.sol\":713:730  msg.sender==owner */\n      0xffffffffffffffffffffffffffffffffffffffff\n      and\n      eq\n        /* \"georgs2Wallet.sol\":705:756  require(msg.sender==owner, \"You are not the owner\") */\n      tag_81\n      jumpi\n      mload(0x40)\n      0x08c379a000000000000000000000000000000000000000000000000000000000\n      dup2\n      mstore\n      0x04\n      add\n      tag_82\n      swap1\n      tag_65\n      jump\t// in\n    tag_82:\n      mload(0x40)\n      dup1\n      swap2\n      sub\n      swap1\n      revert\n    tag_81:\n        /* \"georgs2Wallet.sol\":775:788  allowedToSend */\n      0x02\n        /* \"georgs2Wallet.sol\":775:793  allowedToSend[_to] */\n      0x00\n        /* \"georgs2Wallet.sol\":789:792  _to */\n      dup6\n        /* \"georgs2Wallet.sol\":775:793  allowedToSend[_to] */\n      0xffffffffffffffffffffffffffffffffffffffff\n      and\n      0xffffffffffffffffffffffffffffffffffffffff\n      and\n      dup2\n      mstore\n      0x20\n      add\n      swap1\n      dup2\n      mstore\n      0x20\n      add\n      0x00\n      keccak256\n      0x00\n      swap1\n      sload\n      swap1\n      0x0100\n      exp\n      swap1\n      div\n      0xff\n      and\n        /* \"georgs2Wallet.sol\":767:849  require(allowedToSend[_to], \"You are not allowed to send currency to this person\") */\n      tag_83\n      jumpi\n      mload(0x40)\n      0x08c379a000000000000000000000000000000000000000000000000000000000\n      dup2\n      mstore\n      0x04\n      add\n      tag_84\n      swap1\n      tag_85\n      jump\t// in\n    tag_84:\n      mload(0x40)\n      dup1\n      swap2\n      sub\n      swap1\n      revert\n    tag_83:\n        /* \"georgs2Wallet.sol\":882:889  _amount */\n      dup3\n        /* \"georgs2Wallet.sol\":868:874  amount */\n      0x01\n        /* \"georgs2Wallet.sol\":868:879  amount[_to] */\n      0x00\n        /* \"georgs2Wallet.sol\":875:878  _to */\n      dup7\n        /* \"georgs2Wallet.sol\":868:879  amount[_to] */\n      0xffffffffffffffffffffffffffffffffffffffff\n      and\n      0xffffffffffffffffffffffffffffffffffffffff\n      and\n      dup2\n      mstore\n      0x20\n      add\n      swap1\n      dup2\n      mstore\n      0x20\n      add\n      0x00\n      keccak256\n      sload\n        /* \"georgs2Wallet.sol\":868:889  amount[_to]>= _amount */\n      lt\n      iszero\n        /* \"georgs2Wallet.sol\":860:933  require(amount[_to]>= _amount, \"You cannot send this amount of currency\") */\n      tag_86\n      jumpi\n      mload(0x40)\n      0x08c379a000000000000000000000000000000000000000000000000000000000\n      dup2\n      mstore\n      0x04\n      add\n      tag_87\n      swap1\n      tag_88\n      jump\t// in\n    tag_87:\n      mload(0x40)\n      dup1\n      swap2\n      sub\n      swap1\n      revert\n    tag_86:\n        /* \"georgs2Wallet.sol\":957:964  _amount */\n      dup3\n        /* \"georgs2Wallet.sol\":944:950  amount */\n      0x01\n        /* \"georgs2Wallet.sol\":944:955  amount[_to] */\n      0x00\n        /* \"georgs2Wallet.sol\":951:954  _to */\n      dup7\n        /* \"georgs2Wallet.sol\":944:955  amount[_to] */\n      0xffffffffffffffffffffffffffffffffffffffff\n      and\n      0xffffffffffffffffffffffffffffffffffffffff\n      and\n      dup2\n      mstore\n      0x20\n      add\n      swap1\n      dup2\n      mstore\n      0x20\n      add\n      0x00\n      keccak256\n      0x00\n        /* \"georgs2Wallet.sol\":944:964  amount[_to]-=_amount */\n      dup3\n      dup3\n      sload\n      tag_89\n      swap2\n      swap1\n      tag_90\n      jump\t// in\n    tag_89:\n      swap3\n      pop\n      pop\n      dup2\n      swap1\n      sstore\n      pop\n        /* \"georgs2Wallet.sol\":978:990  bool success */\n      0x00\n        /* \"georgs2Wallet.sol\":992:1009  bytes memory data */\n      dup1\n        /* \"georgs2Wallet.sol\":1013:1016  _to */\n      dup6\n        /* \"georgs2Wallet.sol\":1013:1021  _to.call */\n      0xffffffffffffffffffffffffffffffffffffffff\n      and\n        /* \"georgs2Wallet.sol\":1029:1036  _amount */\n      dup6\n        /* \"georgs2Wallet.sol\":1038:1045  payload */\n      dup6\n        /* \"georgs2Wallet.sol\":1013:1046  _to.call{value: _amount}(payload) */\n      mload(0x40)\n      tag_91\n      swap2\n      swap1\n      tag_92\n      jump\t// in\n    tag_91:\n      0x00\n      mload(0x40)\n      dup1\n      dup4\n      sub\n      dup2\n      dup6\n      dup8\n      gas\n      call\n      swap3\n      pop\n      pop\n      pop\n      returndatasize\n      dup1\n      0x00\n      dup2\n      eq\n      tag_95\n      jumpi\n      mload(0x40)\n      swap2\n      pop\n      and(add(returndatasize, 0x3f), not(0x1f))\n      dup3\n      add\n      0x40\n      mstore\n      returndatasize\n      dup3\n      mstore\n      returndatasize\n      0x00\n      0x20\n      dup5\n      add\n      returndatacopy\n      jump(tag_94)\n    tag_95:\n      0x60\n      swap2\n      pop\n    tag_94:\n      pop\n        /* \"georgs2Wallet.sol\":977:1046  (bool success, bytes memory data) = _to.call{value: _amount}(payload) */\n      swap2\n      pop\n      swap2\n      pop\n        /* \"georgs2Wallet.sol\":1065:1072  success */\n      dup2\n        /* \"georgs2Wallet.sol\":1057:1095  require(success, \"Transaction failed\") */\n      tag_96\n      jumpi\n      mload(0x40)\n      0x08c379a000000000000000000000000000000000000000000000000000000000\n      dup2\n      mstore\n      0x04\n      add\n      tag_97\n      swap1\n      tag_98\n      jump\t// in\n    tag_97:\n      mload(0x40)\n      dup1\n      swap2\n      sub\n      swap1\n      revert\n    tag_96:\n        /* \"georgs2Wallet.sol\":1113:1117  data */\n      dup1\n        /* \"georgs2Wallet.sol\":1106:1117  return data */\n      swap3\n      pop\n      pop\n      pop\n        /* \"georgs2Wallet.sol\":490:1125  function transfer(address payable _to,  uint _amount, bytes memory payload) public returns (bytes memory) ... */\n      swap4\n      swap3\n      pop\n      pop\n      pop\n      jump\t// out\n        /* \"georgs2Wallet.sol\":1133:1334  function setAmount(address _user, uint _amount) public... */\n    tag_56:\n        /* \"georgs2Wallet.sol\":1224:1229  owner */\n      0x00\n      dup1\n      sload\n      swap1\n      0x0100\n      exp\n      swap1\n      div\n      0xffffffffffffffffffffffffffffffffffffffff\n      and\n        /* \"georgs2Wallet.sol\":1212:1229  msg.sender==owner */\n      0xffffffffffffffffffffffffffffffffffffffff\n      and\n        /* \"georgs2Wallet.sol\":1212:1222  msg.sender */\n      caller\n        /* \"georgs2Wallet.sol\":1212:1229  msg.sender==owner */\n      0xffffffffffffffffffffffffffffffffffffffff\n      and\n      eq\n        /* \"georgs2Wallet.sol\":1204:1254  require(msg.sender==owner,\"You are not the owner\") */\n      tag_100\n      jumpi\n      mload(0x40)\n      0x08c379a000000000000000000000000000000000000000000000000000000000\n      dup2\n      mstore\n      0x04\n      add\n      tag_101\n      swap1\n      tag_65\n      jump\t// in\n    tag_101:\n      mload(0x40)\n      dup1\n      swap2\n      sub\n      swap1\n      revert\n    tag_100:\n        /* \"georgs2Wallet.sol\":1281:1288  _amount */\n      dup1\n        /* \"georgs2Wallet.sol\":1265:1271  amount */\n      0x01\n        /* \"georgs2Wallet.sol\":1265:1278  amount[_user] */\n      0x00\n        /* \"georgs2Wallet.sol\":1272:1277  _user */\n      dup5\n        /* \"georgs2Wallet.sol\":1265:1278  amount[_user] */\n      0xffffffffffffffffffffffffffffffffffffffff\n      and\n      0xffffffffffffffffffffffffffffffffffffffff\n      and\n      dup2\n      mstore\n      0x20\n      add\n      swap1\n      dup2\n      mstore\n      0x20\n      add\n      0x00\n      keccak256\n        /* \"georgs2Wallet.sol\":1265:1288  amount[_user] = _amount */\n      dup2\n      swap1\n      sstore\n      pop\n        /* \"georgs2Wallet.sol\":1322:1326  true */\n      0x01\n        /* \"georgs2Wallet.sol\":1299:1312  allowedToSend */\n      0x02\n        /* \"georgs2Wallet.sol\":1299:1319  allowedToSend[_user] */\n      0x00\n        /* \"georgs2Wallet.sol\":1313:1318  _user */\n      dup5\n        /* \"georgs2Wallet.sol\":1299:1319  allowedToSend[_user] */\n      0xffffffffffffffffffffffffffffffffffffffff\n      and\n      0xffffffffffffffffffffffffffffffffffffffff\n      and\n      dup2\n      mstore\n      0x20\n      add\n      swap1\n      dup2\n      mstore\n      0x20\n      add\n      0x00\n      keccak256\n      0x00\n        /* \"georgs2Wallet.sol\":1299:1326  allowedToSend[_user] = true */\n      0x0100\n      exp\n      dup2\n      sload\n      dup2\n      0xff\n      mul\n      not\n      and\n      swap1\n      dup4\n      iszero\n      iszero\n      mul\n      or\n      swap1\n      sstore\n      pop\n        /* \"georgs2Wallet.sol\":1133:1334  function setAmount(address _user, uint _amount) public... */\n      pop\n      pop\n      jump\t// out\n        /* \"georgs2Wallet.sol\":158:204  mapping (address => bool) public allowedToSend */\n    tag_60:\n      mstore(0x20, 0x02)\n      dup1\n      0x00\n      mstore\n      keccak256(0x00, 0x40)\n      0x00\n      swap2\n      pop\n      sload\n      swap1\n      0x0100\n      exp\n      swap1\n      div\n      0xff\n      and\n      dup2\n      jump\t// out\n        /* \"#utility.yul\":7:82   */\n    tag_102:\n        /* \"#utility.yul\":40:46   */\n      0x00\n        /* \"#utility.yul\":73:75   */\n      0x40\n        /* \"#utility.yul\":67:76   */\n      mload\n        /* \"#utility.yul\":57:76   */\n      swap1\n      pop\n        /* \"#utility.yul\":7:82   */\n      swap1\n      jump\t// out\n        /* \"#utility.yul\":88:205   */\n    tag_103:\n        /* \"#utility.yul\":197:198   */\n      0x00\n        /* \"#utility.yul\":194:195   */\n      dup1\n        /* \"#utility.yul\":187:199   */\n      revert\n        /* \"#utility.yul\":211:328   */\n    tag_104:\n        /* \"#utility.yul\":320:321   */\n      0x00\n        /* \"#utility.yul\":317:318   */\n      dup1\n        /* \"#utility.yul\":310:322   */\n      revert\n        /* \"#utility.yul\":334:460   */\n    tag_105:\n        /* \"#utility.yul\":371:378   */\n      0x00\n        /* \"#utility.yul\":411:453   */\n      0xffffffffffffffffffffffffffffffffffffffff\n        /* \"#utility.yul\":404:409   */\n      dup3\n        /* \"#utility.yul\":400:454   */\n      and\n        /* \"#utility.yul\":389:454   */\n      swap1\n      pop\n        /* \"#utility.yul\":334:460   */\n      swap2\n      swap1\n      pop\n      jump\t// out\n        /* \"#utility.yul\":466:562   */\n    tag_106:\n        /* \"#utility.yul\":503:510   */\n      0x00\n        /* \"#utility.yul\":532:556   */\n      tag_154\n        /* \"#utility.yul\":550:555   */\n      dup3\n        /* \"#utility.yul\":532:556   */\n      tag_105\n      jump\t// in\n    tag_154:\n        /* \"#utility.yul\":521:556   */\n      swap1\n      pop\n        /* \"#utility.yul\":466:562   */\n      swap2\n      swap1\n      pop\n      jump\t// out\n        /* \"#utility.yul\":568:690   */\n    tag_107:\n        /* \"#utility.yul\":641:665   */\n      tag_156\n        /* \"#utility.yul\":659:664   */\n      dup2\n        /* \"#utility.yul\":641:665   */\n      tag_106\n      jump\t// in\n    tag_156:\n        /* \"#utility.yul\":634:639   */\n      dup2\n        /* \"#utility.yul\":631:666   */\n      eq\n        /* \"#utility.yul\":621:684   */\n      tag_157\n      jumpi\n        /* \"#utility.yul\":680:681   */\n      0x00\n        /* \"#utility.yul\":677:678   */\n      dup1\n        /* \"#utility.yul\":670:682   */\n      revert\n        /* \"#utility.yul\":621:684   */\n    tag_157:\n        /* \"#utility.yul\":568:690   */\n      pop\n      jump\t// out\n        /* \"#utility.yul\":696:835   */\n    tag_108:\n        /* \"#utility.yul\":742:747   */\n      0x00\n        /* \"#utility.yul\":780:786   */\n      dup2\n        /* \"#utility.yul\":767:787   */\n      calldataload\n        /* \"#utility.yul\":758:787   */\n      swap1\n      pop\n        /* \"#utility.yul\":796:829   */\n      tag_159\n        /* \"#utility.yul\":823:828   */\n      dup2\n        /* \"#utility.yul\":796:829   */\n      tag_107\n      jump\t// in\n    tag_159:\n        /* \"#utility.yul\":696:835   */\n      swap3\n      swap2\n      pop\n      pop\n      jump\t// out\n        /* \"#utility.yul\":841:1170   */\n    tag_18:\n        /* \"#utility.yul\":900:906   */\n      0x00\n        /* \"#utility.yul\":949:951   */\n      0x20\n        /* \"#utility.yul\":937:946   */\n      dup3\n        /* \"#utility.yul\":928:935   */\n      dup5\n        /* \"#utility.yul\":924:947   */\n      sub\n        /* \"#utility.yul\":920:952   */\n      slt\n        /* \"#utility.yul\":917:1036   */\n      iszero\n      tag_161\n      jumpi\n        /* \"#utility.yul\":955:1034   */\n      tag_162\n      tag_103\n      jump\t// in\n    tag_162:\n        /* \"#utility.yul\":917:1036   */\n    tag_161:\n        /* \"#utility.yul\":1075:1076   */\n      0x00\n        /* \"#utility.yul\":1100:1153   */\n      tag_163\n        /* \"#utility.yul\":1145:1152   */\n      dup5\n        /* \"#utility.yul\":1136:1142   */\n      dup3\n        /* \"#utility.yul\":1125:1134   */\n      dup6\n        /* \"#utility.yul\":1121:1143   */\n      add\n        /* \"#utility.yul\":1100:1153   */\n      tag_108\n      jump\t// in\n    tag_163:\n        /* \"#utility.yul\":1090:1153   */\n      swap2\n      pop\n        /* \"#utility.yul\":1046:1163   */\n      pop\n        /* \"#utility.yul\":841:1170   */\n      swap3\n      swap2\n      pop\n      pop\n      jump\t// out\n        /* \"#utility.yul\":1176:1266   */\n    tag_109:\n        /* \"#utility.yul\":1210:1217   */\n      0x00\n        /* \"#utility.yul\":1253:1258   */\n      dup2\n        /* \"#utility.yul\":1246:1259   */\n      iszero\n        /* \"#utility.yul\":1239:1260   */\n      iszero\n        /* \"#utility.yul\":1228:1260   */\n      swap1\n      pop\n        /* \"#utility.yul\":1176:1266   */\n      swap2\n      swap1\n      pop\n      jump\t// out\n        /* \"#utility.yul\":1272:1381   */\n    tag_110:\n        /* \"#utility.yul\":1353:1374   */\n      tag_166\n        /* \"#utility.yul\":1368:1373   */\n      dup2\n        /* \"#utility.yul\":1353:1374   */\n      tag_109\n      jump\t// in\n    tag_166:\n        /* \"#utility.yul\":1348:1351   */\n      dup3\n        /* \"#utility.yul\":1341:1375   */\n      mstore\n        /* \"#utility.yul\":1272:1381   */\n      pop\n      pop\n      jump\t// out\n        /* \"#utility.yul\":1387:1597   */\n    tag_21:\n        /* \"#utility.yul\":1474:1478   */\n      0x00\n        /* \"#utility.yul\":1512:1514   */\n      0x20\n        /* \"#utility.yul\":1501:1510   */\n      dup3\n        /* \"#utility.yul\":1497:1515   */\n      add\n        /* \"#utility.yul\":1489:1515   */\n      swap1\n      pop\n        /* \"#utility.yul\":1525:1590   */\n      tag_168\n        /* \"#utility.yul\":1587:1588   */\n      0x00\n        /* \"#utility.yul\":1576:1585   */\n      dup4\n        /* \"#utility.yul\":1572:1589   */\n      add\n        /* \"#utility.yul\":1563:1569   */\n      dup5\n        /* \"#utility.yul\":1525:1590   */\n      tag_110\n      jump\t// in\n    tag_168:\n        /* \"#utility.yul\":1387:1597   */\n      swap3\n      swap2\n      pop\n      pop\n      jump\t// out\n        /* \"#utility.yul\":1603:1707   */\n    tag_111:\n        /* \"#utility.yul\":1648:1655   */\n      0x00\n        /* \"#utility.yul\":1677:1701   */\n      tag_170\n        /* \"#utility.yul\":1695:1700   */\n      dup3\n        /* \"#utility.yul\":1677:1701   */\n      tag_105\n      jump\t// in\n    tag_170:\n        /* \"#utility.yul\":1666:1701   */\n      swap1\n      pop\n        /* \"#utility.yul\":1603:1707   */\n      swap2\n      swap1\n      pop\n      jump\t// out\n        /* \"#utility.yul\":1713:1851   */\n    tag_112:\n        /* \"#utility.yul\":1794:1826   */\n      tag_172\n        /* \"#utility.yul\":1820:1825   */\n      dup2\n        /* \"#utility.yul\":1794:1826   */\n      tag_111\n      jump\t// in\n    tag_172:\n        /* \"#utility.yul\":1787:1792   */\n      dup2\n        /* \"#utility.yul\":1784:1827   */\n      eq\n        /* \"#utility.yul\":1774:1845   */\n      tag_173\n      jumpi\n        /* \"#utility.yul\":1841:1842   */\n      0x00\n        /* \"#utility.yul\":1838:1839   */\n      dup1\n        /* \"#utility.yul\":1831:1843   */\n      revert\n        /* \"#utility.yul\":1774:1845   */\n    tag_173:\n        /* \"#utility.yul\":1713:1851   */\n      pop\n      jump\t// out\n        /* \"#utility.yul\":1857:2012   */\n    tag_113:\n        /* \"#utility.yul\":1911:1916   */\n      0x00\n        /* \"#utility.yul\":1949:1955   */\n      dup2\n        /* \"#utility.yul\":1936:1956   */\n      calldataload\n        /* \"#utility.yul\":1927:1956   */\n      swap1\n      pop\n        /* \"#utility.yul\":1965:2006   */\n      tag_175\n        /* \"#utility.yul\":2000:2005   */\n      dup2\n        /* \"#utility.yul\":1965:2006   */\n      tag_112\n      jump\t// in\n    tag_175:\n        /* \"#utility.yul\":1857:2012   */\n      swap3\n      swap2\n      pop\n      pop\n      jump\t// out\n        /* \"#utility.yul\":2018:2363   */\n    tag_33:\n        /* \"#utility.yul\":2085:2091   */\n      0x00\n        /* \"#utility.yul\":2134:2136   */\n      0x20\n        /* \"#utility.yul\":2122:2131   */\n      dup3\n        /* \"#utility.yul\":2113:2120   */\n      dup5\n        /* \"#utility.yul\":2109:2132   */\n      sub\n        /* \"#utility.yul\":2105:2137   */\n      slt\n        /* \"#utility.yul\":2102:2221   */\n      iszero\n      tag_177\n      jumpi\n        /* \"#utility.yul\":2140:2219   */\n      tag_178\n      tag_103\n      jump\t// in\n    tag_178:\n        /* \"#utility.yul\":2102:2221   */\n    tag_177:\n        /* \"#utility.yul\":2260:2261   */\n      0x00\n        /* \"#utility.yul\":2285:2346   */\n      tag_179\n        /* \"#utility.yul\":2338:2345   */\n      dup5\n        /* \"#utility.yul\":2329:2335   */\n      dup3\n        /* \"#utility.yul\":2318:2327   */\n      dup6\n        /* \"#utility.yul\":2314:2336   */\n      add\n        /* \"#utility.yul\":2285:2346   */\n      tag_113\n      jump\t// in\n    tag_179:\n        /* \"#utility.yul\":2275:2346   */\n      swap2\n      pop\n        /* \"#utility.yul\":2231:2356   */\n      pop\n        /* \"#utility.yul\":2018:2363   */\n      swap3\n      swap2\n      pop\n      pop\n      jump\t// out\n        /* \"#utility.yul\":2369:2446   */\n    tag_114:\n        /* \"#utility.yul\":2406:2413   */\n      0x00\n        /* \"#utility.yul\":2435:2440   */\n      dup2\n        /* \"#utility.yul\":2424:2440   */\n      swap1\n      pop\n        /* \"#utility.yul\":2369:2446   */\n      swap2\n      swap1\n      pop\n      jump\t// out\n        /* \"#utility.yul\":2452:2570   */\n    tag_115:\n        /* \"#utility.yul\":2539:2563   */\n      tag_182\n        /* \"#utility.yul\":2557:2562   */\n      dup2\n        /* \"#utility.yul\":2539:2563   */\n      tag_114\n      jump\t// in\n    tag_182:\n        /* \"#utility.yul\":2534:2537   */\n      dup3\n        /* \"#utility.yul\":2527:2564   */\n      mstore\n        /* \"#utility.yul\":2452:2570   */\n      pop\n      pop\n      jump\t// out\n        /* \"#utility.yul\":2576:2798   */\n    tag_40:\n        /* \"#utility.yul\":2669:2673   */\n      0x00\n        /* \"#utility.yul\":2707:2709   */\n      0x20\n        /* \"#utility.yul\":2696:2705   */\n      dup3\n        /* \"#utility.yul\":2692:2710   */\n      add\n        /* \"#utility.yul\":2684:2710   */\n      swap1\n      pop\n        /* \"#utility.yul\":2720:2791   */\n      tag_184\n        /* \"#utility.yul\":2788:2789   */\n      0x00\n        /* \"#utility.yul\":2777:2786   */\n      dup4\n        /* \"#utility.yul\":2773:2790   */\n      add\n        /* \"#utility.yul\":2764:2770   */\n      dup5\n        /* \"#utility.yul\":2720:2791   */\n      tag_115\n      jump\t// in\n    tag_184:\n        /* \"#utility.yul\":2576:2798   */\n      swap3\n      swap2\n      pop\n      pop\n      jump\t// out\n        /* \"#utility.yul\":2804:2926   */\n    tag_116:\n        /* \"#utility.yul\":2877:2901   */\n      tag_186\n        /* \"#utility.yul\":2895:2900   */\n      dup2\n        /* \"#utility.yul\":2877:2901   */\n      tag_114\n      jump\t// in\n    tag_186:\n        /* \"#utility.yul\":2870:2875   */\n      dup2\n        /* \"#utility.yul\":2867:2902   */\n      eq\n        /* \"#utility.yul\":2857:2920   */\n      tag_187\n      jumpi\n        /* \"#utility.yul\":2916:2917   */\n      0x00\n        /* \"#utility.yul\":2913:2914   */\n      dup1\n        /* \"#utility.yul\":2906:2918   */\n      revert\n        /* \"#utility.yul\":2857:2920   */\n    tag_187:\n        /* \"#utility.yul\":2804:2926   */\n      pop\n      jump\t// out\n        /* \"#utility.yul\":2932:3071   */\n    tag_117:\n        /* \"#utility.yul\":2978:2983   */\n      0x00\n        /* \"#utility.yul\":3016:3022   */\n      dup2\n        /* \"#utility.yul\":3003:3023   */\n      calldataload\n        /* \"#utility.yul\":2994:3023   */\n      swap1\n      pop\n        /* \"#utility.yul\":3032:3065   */\n      tag_189\n        /* \"#utility.yul\":3059:3064   */\n      dup2\n        /* \"#utility.yul\":3032:3065   */\n      tag_116\n      jump\t// in\n    tag_189:\n        /* \"#utility.yul\":2932:3071   */\n      swap3\n      swap2\n      pop\n      pop\n      jump\t// out\n        /* \"#utility.yul\":3077:3194   */\n    tag_118:\n        /* \"#utility.yul\":3186:3187   */\n      0x00\n        /* \"#utility.yul\":3183:3184   */\n      dup1\n        /* \"#utility.yul\":3176:3188   */\n      revert\n        /* \"#utility.yul\":3200:3317   */\n    tag_119:\n        /* \"#utility.yul\":3309:3310   */\n      0x00\n        /* \"#utility.yul\":3306:3307   */\n      dup1\n        /* \"#utility.yul\":3299:3311   */\n      revert\n        /* \"#utility.yul\":3323:3425   */\n    tag_120:\n        /* \"#utility.yul\":3364:3370   */\n      0x00\n        /* \"#utility.yul\":3415:3417   */\n      0x1f\n        /* \"#utility.yul\":3411:3418   */\n      not\n        /* \"#utility.yul\":3406:3408   */\n      0x1f\n        /* \"#utility.yul\":3399:3404   */\n      dup4\n        /* \"#utility.yul\":3395:3409   */\n      add\n        /* \"#utility.yul\":3391:3419   */\n      and\n        /* \"#utility.yul\":3381:3419   */\n      swap1\n      pop\n        /* \"#utility.yul\":3323:3425   */\n      swap2\n      swap1\n      pop\n      jump\t// out\n        /* \"#utility.yul\":3431:3611   */\n    tag_121:\n        /* \"#utility.yul\":3479:3556   */\n      0x4e487b7100000000000000000000000000000000000000000000000000000000\n        /* \"#utility.yul\":3476:3477   */\n      0x00\n        /* \"#utility.yul\":3469:3557   */\n      mstore\n        /* \"#utility.yul\":3576:3580   */\n      0x41\n        /* \"#utility.yul\":3573:3574   */\n      0x04\n        /* \"#utility.yul\":3566:3581   */\n      mstore\n        /* \"#utility.yul\":3600:3604   */\n      0x24\n        /* \"#utility.yul\":3597:3598   */\n      0x00\n        /* \"#utility.yul\":3590:3605   */\n      revert\n        /* \"#utility.yul\":3617:3898   */\n    tag_122:\n        /* \"#utility.yul\":3700:3727   */\n      tag_195\n        /* \"#utility.yul\":3722:3726   */\n      dup3\n        /* \"#utility.yul\":3700:3727   */\n      tag_120\n      jump\t// in\n    tag_195:\n        /* \"#utility.yul\":3692:3698   */\n      dup2\n        /* \"#utility.yul\":3688:3728   */\n      add\n        /* \"#utility.yul\":3830:3836   */\n      dup2\n        /* \"#utility.yul\":3818:3828   */\n      dup2\n        /* \"#utility.yul\":3815:3837   */\n      lt\n        /* \"#utility.yul\":3794:3812   */\n      0xffffffffffffffff\n        /* \"#utility.yul\":3782:3792   */\n      dup3\n        /* \"#utility.yul\":3779:3813   */\n      gt\n        /* \"#utility.yul\":3776:3838   */\n      or\n        /* \"#utility.yul\":3773:3861   */\n      iszero\n      tag_196\n      jumpi\n        /* \"#utility.yul\":3841:3859   */\n      tag_197\n      tag_121\n      jump\t// in\n    tag_197:\n        /* \"#utility.yul\":3773:3861   */\n    tag_196:\n        /* \"#utility.yul\":3881:3891   */\n      dup1\n        /* \"#utility.yul\":3877:3879   */\n      0x40\n        /* \"#utility.yul\":3870:3892   */\n      mstore\n        /* \"#utility.yul\":3660:3898   */\n      pop\n        /* \"#utility.yul\":3617:3898   */\n      pop\n      pop\n      jump\t// out\n        /* \"#utility.yul\":3904:4033   */\n    tag_123:\n        /* \"#utility.yul\":3938:3944   */\n      0x00\n        /* \"#utility.yul\":3965:3985   */\n      tag_199\n      tag_102\n      jump\t// in\n    tag_199:\n        /* \"#utility.yul\":3955:3985   */\n      swap1\n      pop\n        /* \"#utility.yul\":3994:4027   */\n      tag_200\n        /* \"#utility.yul\":4022:4026   */\n      dup3\n        /* \"#utility.yul\":4014:4020   */\n      dup3\n        /* \"#utility.yul\":3994:4027   */\n      tag_122\n      jump\t// in\n    tag_200:\n        /* \"#utility.yul\":3904:4033   */\n      swap2\n      swap1\n      pop\n      jump\t// out\n        /* \"#utility.yul\":4039:4346   */\n    tag_124:\n        /* \"#utility.yul\":4100:4104   */\n      0x00\n        /* \"#utility.yul\":4190:4208   */\n      0xffffffffffffffff\n        /* \"#utility.yul\":4182:4188   */\n      dup3\n        /* \"#utility.yul\":4179:4209   */\n      gt\n        /* \"#utility.yul\":4176:4232   */\n      iszero\n      tag_202\n      jumpi\n        /* \"#utility.yul\":4212:4230   */\n      tag_203\n      tag_121\n      jump\t// in\n    tag_203:\n        /* \"#utility.yul\":4176:4232   */\n    tag_202:\n        /* \"#utility.yul\":4250:4279   */\n      tag_204\n        /* \"#utility.yul\":4272:4278   */\n      dup3\n        /* \"#utility.yul\":4250:4279   */\n      tag_120\n      jump\t// in\n    tag_204:\n        /* \"#utility.yul\":4242:4279   */\n      swap1\n      pop\n        /* \"#utility.yul\":4334:4338   */\n      0x20\n        /* \"#utility.yul\":4328:4332   */\n      dup2\n        /* \"#utility.yul\":4324:4339   */\n      add\n        /* \"#utility.yul\":4316:4339   */\n      swap1\n      pop\n        /* \"#utility.yul\":4039:4346   */\n      swap2\n      swap1\n      pop\n      jump\t// out\n        /* \"#utility.yul\":4352:4506   */\n    tag_125:\n        /* \"#utility.yul\":4436:4442   */\n      dup3\n        /* \"#utility.yul\":4431:4434   */\n      dup2\n        /* \"#utility.yul\":4426:4429   */\n      dup4\n        /* \"#utility.yul\":4413:4443   */\n      calldatacopy\n        /* \"#utility.yul\":4498:4499   */\n      0x00\n        /* \"#utility.yul\":4489:4495   */\n      dup4\n        /* \"#utility.yul\":4484:4487   */\n      dup4\n        /* \"#utility.yul\":4480:4496   */\n      add\n        /* \"#utility.yul\":4473:4500   */\n      mstore\n        /* \"#utility.yul\":4352:4506   */\n      pop\n      pop\n      pop\n      jump\t// out\n        /* \"#utility.yul\":4512:4922   */\n    tag_126:\n        /* \"#utility.yul\":4589:4594   */\n      0x00\n        /* \"#utility.yul\":4614:4679   */\n      tag_207\n        /* \"#utility.yul\":4630:4678   */\n      tag_208\n        /* \"#utility.yul\":4671:4677   */\n      dup5\n        /* \"#utility.yul\":4630:4678   */\n      tag_124\n      jump\t// in\n    tag_208:\n        /* \"#utility.yul\":4614:4679   */\n      tag_123\n      jump\t// in\n    tag_207:\n        /* \"#utility.yul\":4605:4679   */\n      swap1\n      pop\n        /* \"#utility.yul\":4702:4708   */\n      dup3\n        /* \"#utility.yul\":4695:4700   */\n      dup2\n        /* \"#utility.yul\":4688:4709   */\n      mstore\n        /* \"#utility.yul\":4740:4744   */\n      0x20\n        /* \"#utility.yul\":4733:4738   */\n      dup2\n        /* \"#utility.yul\":4729:4745   */\n      add\n        /* \"#utility.yul\":4778:4781   */\n      dup5\n        /* \"#utility.yul\":4769:4775   */\n      dup5\n        /* \"#utility.yul\":4764:4767   */\n      dup5\n        /* \"#utility.yul\":4760:4776   */\n      add\n        /* \"#utility.yul\":4757:4782   */\n      gt\n        /* \"#utility.yul\":4754:4866   */\n      iszero\n      tag_209\n      jumpi\n        /* \"#utility.yul\":4785:4864   */\n      tag_210\n      tag_119\n      jump\t// in\n    tag_210:\n        /* \"#utility.yul\":4754:4866   */\n    tag_209:\n        /* \"#utility.yul\":4875:4916   */\n      tag_211\n        /* \"#utility.yul\":4909:4915   */\n      dup5\n        /* \"#utility.yul\":4904:4907   */\n      dup3\n        /* \"#utility.yul\":4899:4902   */\n      dup6\n        /* \"#utility.yul\":4875:4916   */\n      tag_125\n      jump\t// in\n    tag_211:\n        /* \"#utility.yul\":4595:4922   */\n      pop\n        /* \"#utility.yul\":4512:4922   */\n      swap4\n      swap3\n      pop\n      pop\n      pop\n      jump\t// out\n        /* \"#utility.yul\":4941:5279   */\n    tag_127:\n        /* \"#utility.yul\":4996:5001   */\n      0x00\n        /* \"#utility.yul\":5045:5048   */\n      dup3\n        /* \"#utility.yul\":5038:5042   */\n      0x1f\n        /* \"#utility.yul\":5030:5036   */\n      dup4\n        /* \"#utility.yul\":5026:5043   */\n      add\n        /* \"#utility.yul\":5022:5049   */\n      slt\n        /* \"#utility.yul\":5012:5134   */\n      tag_213\n      jumpi\n        /* \"#utility.yul\":5053:5132   */\n      tag_214\n      tag_118\n      jump\t// in\n    tag_214:\n        /* \"#utility.yul\":5012:5134   */\n    tag_213:\n        /* \"#utility.yul\":5170:5176   */\n      dup2\n        /* \"#utility.yul\":5157:5177   */\n      calldataload\n        /* \"#utility.yul\":5195:5273   */\n      tag_215\n        /* \"#utility.yul\":5269:5272   */\n      dup5\n        /* \"#utility.yul\":5261:5267   */\n      dup3\n        /* \"#utility.yul\":5254:5258   */\n      0x20\n        /* \"#utility.yul\":5246:5252   */\n      dup7\n        /* \"#utility.yul\":5242:5259   */\n      add\n        /* \"#utility.yul\":5195:5273   */\n      tag_126\n      jump\t// in\n    tag_215:\n        /* \"#utility.yul\":5186:5273   */\n      swap2\n      pop\n        /* \"#utility.yul\":5002:5279   */\n      pop\n        /* \"#utility.yul\":4941:5279   */\n      swap3\n      swap2\n      pop\n      pop\n      jump\t// out\n        /* \"#utility.yul\":5285:6098   */\n    tag_48:\n        /* \"#utility.yul\":5379:5385   */\n      0x00\n        /* \"#utility.yul\":5387:5393   */\n      dup1\n        /* \"#utility.yul\":5395:5401   */\n      0x00\n        /* \"#utility.yul\":5444:5446   */\n      0x60\n        /* \"#utility.yul\":5432:5441   */\n      dup5\n        /* \"#utility.yul\":5423:5430   */\n      dup7\n        /* \"#utility.yul\":5419:5442   */\n      sub\n        /* \"#utility.yul\":5415:5447   */\n      slt\n        /* \"#utility.yul\":5412:5531   */\n      iszero\n      tag_217\n      jumpi\n        /* \"#utility.yul\":5450:5529   */\n      tag_218\n      tag_103\n      jump\t// in\n    tag_218:\n        /* \"#utility.yul\":5412:5531   */\n    tag_217:\n        /* \"#utility.yul\":5570:5571   */\n      0x00\n        /* \"#utility.yul\":5595:5656   */\n      tag_219\n        /* \"#utility.yul\":5648:5655   */\n      dup7\n        /* \"#utility.yul\":5639:5645   */\n      dup3\n        /* \"#utility.yul\":5628:5637   */\n      dup8\n        /* \"#utility.yul\":5624:5646   */\n      add\n        /* \"#utility.yul\":5595:5656   */\n      tag_113\n      jump\t// in\n    tag_219:\n        /* \"#utility.yul\":5585:5656   */\n      swap4\n      pop\n        /* \"#utility.yul\":5541:5666   */\n      pop\n        /* \"#utility.yul\":5705:5707   */\n      0x20\n        /* \"#utility.yul\":5731:5784   */\n      tag_220\n        /* \"#utility.yul\":5776:5783   */\n      dup7\n        /* \"#utility.yul\":5767:5773   */\n      dup3\n        /* \"#utility.yul\":5756:5765   */\n      dup8\n        /* \"#utility.yul\":5752:5774   */\n      add\n        /* \"#utility.yul\":5731:5784   */\n      tag_117\n      jump\t// in\n    tag_220:\n        /* \"#utility.yul\":5721:5784   */\n      swap3\n      pop\n        /* \"#utility.yul\":5676:5794   */\n      pop\n        /* \"#utility.yul\":5861:5863   */\n      0x40\n        /* \"#utility.yul\":5850:5859   */\n      dup5\n        /* \"#utility.yul\":5846:5864   */\n      add\n        /* \"#utility.yul\":5833:5865   */\n      calldataload\n        /* \"#utility.yul\":5892:5910   */\n      0xffffffffffffffff\n        /* \"#utility.yul\":5884:5890   */\n      dup2\n        /* \"#utility.yul\":5881:5911   */\n      gt\n        /* \"#utility.yul\":5878:5995   */\n      iszero\n      tag_221\n      jumpi\n        /* \"#utility.yul\":5914:5993   */\n      tag_222\n      tag_104\n      jump\t// in\n    tag_222:\n        /* \"#utility.yul\":5878:5995   */\n    tag_221:\n        /* \"#utility.yul\":6019:6081   */\n      tag_223\n        /* \"#utility.yul\":6073:6080   */\n      dup7\n        /* \"#utility.yul\":6064:6070   */\n      dup3\n        /* \"#utility.yul\":6053:6062   */\n      dup8\n        /* \"#utility.yul\":6049:6071   */\n      add\n        /* \"#utility.yul\":6019:6081   */\n      tag_127\n      jump\t// in\n    tag_223:\n        /* \"#utility.yul\":6009:6081   */\n      swap2\n      pop\n        /* \"#utility.yul\":5804:6091   */\n      pop\n        /* \"#utility.yul\":5285:6098   */\n      swap3\n      pop\n      swap3\n      pop\n      swap3\n      jump\t// out\n        /* \"#utility.yul\":6104:6202   */\n    tag_128:\n        /* \"#utility.yul\":6155:6161   */\n      0x00\n        /* \"#utility.yul\":6189:6194   */\n      dup2\n        /* \"#utility.yul\":6183:6195   */\n      mload\n        /* \"#utility.yul\":6173:6195   */\n      swap1\n      pop\n        /* \"#utility.yul\":6104:6202   */\n      swap2\n      swap1\n      pop\n      jump\t// out\n        /* \"#utility.yul\":6208:6376   */\n    tag_129:\n        /* \"#utility.yul\":6291:6302   */\n      0x00\n        /* \"#utility.yul\":6325:6331   */\n      dup3\n        /* \"#utility.yul\":6320:6323   */\n      dup3\n        /* \"#utility.yul\":6313:6332   */\n      mstore\n        /* \"#utility.yul\":6365:6369   */\n      0x20\n        /* \"#utility.yul\":6360:6363   */\n      dup3\n        /* \"#utility.yul\":6356:6370   */\n      add\n        /* \"#utility.yul\":6341:6370   */\n      swap1\n      pop\n        /* \"#utility.yul\":6208:6376   */\n      swap3\n      swap2\n      pop\n      pop\n      jump\t// out\n        /* \"#utility.yul\":6382:6689   */\n    tag_130:\n        /* \"#utility.yul\":6450:6451   */\n      0x00\n        /* \"#utility.yul\":6460:6573   */\n    tag_227:\n        /* \"#utility.yul\":6474:6480   */\n      dup4\n        /* \"#utility.yul\":6471:6472   */\n      dup2\n        /* \"#utility.yul\":6468:6481   */\n      lt\n        /* \"#utility.yul\":6460:6573   */\n      iszero\n      tag_229\n      jumpi\n        /* \"#utility.yul\":6559:6560   */\n      dup1\n        /* \"#utility.yul\":6554:6557   */\n      dup3\n        /* \"#utility.yul\":6550:6561   */\n      add\n        /* \"#utility.yul\":6544:6562   */\n      mload\n        /* \"#utility.yul\":6540:6541   */\n      dup2\n        /* \"#utility.yul\":6535:6538   */\n      dup5\n        /* \"#utility.yul\":6531:6542   */\n      add\n        /* \"#utility.yul\":6524:6563   */\n      mstore\n        /* \"#utility.yul\":6496:6498   */\n      0x20\n        /* \"#utility.yul\":6493:6494   */\n      dup2\n        /* \"#utility.yul\":6489:6499   */\n      add\n        /* \"#utility.yul\":6484:6499   */\n      swap1\n      pop\n        /* \"#utility.yul\":6460:6573   */\n      jump(tag_227)\n    tag_229:\n        /* \"#utility.yul\":6591:6597   */\n      dup4\n        /* \"#utility.yul\":6588:6589   */\n      dup2\n        /* \"#utility.yul\":6585:6598   */\n      gt\n        /* \"#utility.yul\":6582:6683   */\n      iszero\n      tag_230\n      jumpi\n        /* \"#utility.yul\":6671:6672   */\n      0x00\n        /* \"#utility.yul\":6662:6668   */\n      dup5\n        /* \"#utility.yul\":6657:6660   */\n      dup5\n        /* \"#utility.yul\":6653:6669   */\n      add\n        /* \"#utility.yul\":6646:6673   */\n      mstore\n        /* \"#utility.yul\":6582:6683   */\n    tag_230:\n        /* \"#utility.yul\":6431:6689   */\n      pop\n        /* \"#utility.yul\":6382:6689   */\n      pop\n      pop\n      pop\n      jump\t// out\n        /* \"#utility.yul\":6695:7055   */\n    tag_131:\n        /* \"#utility.yul\":6781:6784   */\n      0x00\n        /* \"#utility.yul\":6809:6847   */\n      tag_232\n        /* \"#utility.yul\":6841:6846   */\n      dup3\n        /* \"#utility.yul\":6809:6847   */\n      tag_128\n      jump\t// in\n    tag_232:\n        /* \"#utility.yul\":6863:6933   */\n      tag_233\n        /* \"#utility.yul\":6926:6932   */\n      dup2\n        /* \"#utility.yul\":6921:6924   */\n      dup6\n        /* \"#utility.yul\":6863:6933   */\n      tag_129\n      jump\t// in\n    tag_233:\n        /* \"#utility.yul\":6856:6933   */\n      swap4\n      pop\n        /* \"#utility.yul\":6942:6994   */\n      tag_234\n        /* \"#utility.yul\":6987:6993   */\n      dup2\n        /* \"#utility.yul\":6982:6985   */\n      dup6\n        /* \"#utility.yul\":6975:6979   */\n      0x20\n        /* \"#utility.yul\":6968:6973   */\n      dup7\n        /* \"#utility.yul\":6964:6980   */\n      add\n        /* \"#utility.yul\":6942:6994   */\n      tag_130\n      jump\t// in\n    tag_234:\n        /* \"#utility.yul\":7019:7048   */\n      tag_235\n        /* \"#utility.yul\":7041:7047   */\n      dup2\n        /* \"#utility.yul\":7019:7048   */\n      tag_120\n      jump\t// in\n    tag_235:\n        /* \"#utility.yul\":7014:7017   */\n      dup5\n        /* \"#utility.yul\":7010:7049   */\n      add\n        /* \"#utility.yul\":7003:7049   */\n      swap2\n      pop\n        /* \"#utility.yul\":6785:7055   */\n      pop\n        /* \"#utility.yul\":6695:7055   */\n      swap3\n      swap2\n      pop\n      pop\n      jump\t// out\n        /* \"#utility.yul\":7061:7370   */\n    tag_51:\n        /* \"#utility.yul\":7172:7176   */\n      0x00\n        /* \"#utility.yul\":7210:7212   */\n      0x20\n        /* \"#utility.yul\":7199:7208   */\n      dup3\n        /* \"#utility.yul\":7195:7213   */\n      add\n        /* \"#utility.yul\":7187:7213   */\n      swap1\n      pop\n        /* \"#utility.yul\":7259:7268   */\n      dup2\n        /* \"#utility.yul\":7253:7257   */\n      dup2\n        /* \"#utility.yul\":7249:7269   */\n      sub\n        /* \"#utility.yul\":7245:7246   */\n      0x00\n        /* \"#utility.yul\":7234:7243   */\n      dup4\n        /* \"#utility.yul\":7230:7247   */\n      add\n        /* \"#utility.yul\":7223:7270   */\n      mstore\n        /* \"#utility.yul\":7287:7363   */\n      tag_237\n        /* \"#utility.yul\":7358:7362   */\n      dup2\n        /* \"#utility.yul\":7349:7355   */\n      dup5\n        /* \"#utility.yul\":7287:7363   */\n      tag_131\n      jump\t// in\n    tag_237:\n        /* \"#utility.yul\":7279:7363   */\n      swap1\n      pop\n        /* \"#utility.yul\":7061:7370   */\n      swap3\n      swap2\n      pop\n      pop\n      jump\t// out\n        /* \"#utility.yul\":7376:7850   */\n    tag_55:\n        /* \"#utility.yul\":7444:7450   */\n      0x00\n        /* \"#utility.yul\":7452:7458   */\n      dup1\n        /* \"#utility.yul\":7501:7503   */\n      0x40\n        /* \"#utility.yul\":7489:7498   */\n      dup4\n        /* \"#utility.yul\":7480:7487   */\n      dup6\n        /* \"#utility.yul\":7476:7499   */\n      sub\n        /* \"#utility.yul\":7472:7504   */\n      slt\n        /* \"#utility.yul\":7469:7588   */\n      iszero\n      tag_239\n      jumpi\n        /* \"#utility.yul\":7507:7586   */\n      tag_240\n      tag_103\n      jump\t// in\n    tag_240:\n        /* \"#utility.yul\":7469:7588   */\n    tag_239:\n        /* \"#utility.yul\":7627:7628   */\n      0x00\n        /* \"#utility.yul\":7652:7705   */\n      tag_241\n        /* \"#utility.yul\":7697:7704   */\n      dup6\n        /* \"#utility.yul\":7688:7694   */\n      dup3\n        /* \"#utility.yul\":7677:7686   */\n      dup7\n        /* \"#utility.yul\":7673:7695   */\n      add\n        /* \"#utility.yul\":7652:7705   */\n      tag_108\n      jump\t// in\n    tag_241:\n        /* \"#utility.yul\":7642:7705   */\n      swap3\n      pop\n        /* \"#utility.yul\":7598:7715   */\n      pop\n        /* \"#utility.yul\":7754:7756   */\n      0x20\n        /* \"#utility.yul\":7780:7833   */\n      tag_242\n        /* \"#utility.yul\":7825:7832   */\n      dup6\n        /* \"#utility.yul\":7816:7822   */\n      dup3\n        /* \"#utility.yul\":7805:7814   */\n      dup7\n        /* \"#utility.yul\":7801:7823   */\n      add\n        /* \"#utility.yul\":7780:7833   */\n      tag_117\n      jump\t// in\n    tag_242:\n        /* \"#utility.yul\":7770:7833   */\n      swap2\n      pop\n        /* \"#utility.yul\":7725:7843   */\n      pop\n        /* \"#utility.yul\":7376:7850   */\n      swap3\n      pop\n      swap3\n      swap1\n      pop\n      jump\t// out\n        /* \"#utility.yul\":7856:8025   */\n    tag_132:\n        /* \"#utility.yul\":7940:7951   */\n      0x00\n        /* \"#utility.yul\":7974:7980   */\n      dup3\n        /* \"#utility.yul\":7969:7972   */\n      dup3\n        /* \"#utility.yul\":7962:7981   */\n      mstore\n        /* \"#utility.yul\":8014:8018   */\n      0x20\n        /* \"#utility.yul\":8009:8012   */\n      dup3\n        /* \"#utility.yul\":8005:8019   */\n      add\n        /* \"#utility.yul\":7990:8019   */\n      swap1\n      pop\n        /* \"#utility.yul\":7856:8025   */\n      swap3\n      swap2\n      pop\n      pop\n      jump\t// out\n        /* \"#utility.yul\":8031:8202   */\n    tag_133:\n        /* \"#utility.yul\":8171:8194   */\n      0x596f7520617265206e6f7420746865206f776e65720000000000000000000000\n        /* \"#utility.yul\":8167:8168   */\n      0x00\n        /* \"#utility.yul\":8159:8165   */\n      dup3\n        /* \"#utility.yul\":8155:8169   */\n      add\n        /* \"#utility.yul\":8148:8195   */\n      mstore\n        /* \"#utility.yul\":8031:8202   */\n      pop\n      jump\t// out\n        /* \"#utility.yul\":8208:8574   */\n    tag_134:\n        /* \"#utility.yul\":8350:8353   */\n      0x00\n        /* \"#utility.yul\":8371:8438   */\n      tag_246\n        /* \"#utility.yul\":8435:8437   */\n      0x15\n        /* \"#utility.yul\":8430:8433   */\n      dup4\n        /* \"#utility.yul\":8371:8438   */\n      tag_132\n      jump\t// in\n    tag_246:\n        /* \"#utility.yul\":8364:8438   */\n      swap2\n      pop\n        /* \"#utility.yul\":8447:8540   */\n      tag_247\n        /* \"#utility.yul\":8536:8539   */\n      dup3\n        /* \"#utility.yul\":8447:8540   */\n      tag_133\n      jump\t// in\n    tag_247:\n        /* \"#utility.yul\":8565:8567   */\n      0x20\n        /* \"#utility.yul\":8560:8563   */\n      dup3\n        /* \"#utility.yul\":8556:8568   */\n      add\n        /* \"#utility.yul\":8549:8568   */\n      swap1\n      pop\n        /* \"#utility.yul\":8208:8574   */\n      swap2\n      swap1\n      pop\n      jump\t// out\n        /* \"#utility.yul\":8580:8999   */\n    tag_65:\n        /* \"#utility.yul\":8746:8750   */\n      0x00\n        /* \"#utility.yul\":8784:8786   */\n      0x20\n        /* \"#utility.yul\":8773:8782   */\n      dup3\n        /* \"#utility.yul\":8769:8787   */\n      add\n        /* \"#utility.yul\":8761:8787   */\n      swap1\n      pop\n        /* \"#utility.yul\":8833:8842   */\n      dup2\n        /* \"#utility.yul\":8827:8831   */\n      dup2\n        /* \"#utility.yul\":8823:8843   */\n      sub\n        /* \"#utility.yul\":8819:8820   */\n      0x00\n        /* \"#utility.yul\":8808:8817   */\n      dup4\n        /* \"#utility.yul\":8804:8821   */\n      add\n        /* \"#utility.yul\":8797:8844   */\n      mstore\n        /* \"#utility.yul\":8861:8992   */\n      tag_249\n        /* \"#utility.yul\":8987:8991   */\n      dup2\n        /* \"#utility.yul\":8861:8992   */\n      tag_134\n      jump\t// in\n    tag_249:\n        /* \"#utility.yul\":8853:8992   */\n      swap1\n      pop\n        /* \"#utility.yul\":8580:8999   */\n      swap2\n      swap1\n      pop\n      jump\t// out\n        /* \"#utility.yul\":9005:9177   */\n    tag_135:\n        /* \"#utility.yul\":9145:9169   */\n      0x596f7520617265206e6f74206120677561726469616e00000000000000000000\n        /* \"#utility.yul\":9141:9142   */\n      0x00\n        /* \"#utility.yul\":9133:9139   */\n      dup3\n        /* \"#utility.yul\":9129:9143   */\n      add\n        /* \"#utility.yul\":9122:9170   */\n      mstore\n        /* \"#utility.yul\":9005:9177   */\n      pop\n      jump\t// out\n        /* \"#utility.yul\":9183:9549   */\n    tag_136:\n        /* \"#utility.yul\":9325:9328   */\n      0x00\n        /* \"#utility.yul\":9346:9413   */\n      tag_252\n        /* \"#utility.yul\":9410:9412   */\n      0x16\n        /* \"#utility.yul\":9405:9408   */\n      dup4\n        /* \"#utility.yul\":9346:9413   */\n      tag_132\n      jump\t// in\n    tag_252:\n        /* \"#utility.yul\":9339:9413   */\n      swap2\n      pop\n        /* \"#utility.yul\":9422:9515   */\n      tag_253\n        /* \"#utility.yul\":9511:9514   */\n      dup3\n        /* \"#utility.yul\":9422:9515   */\n      tag_135\n      jump\t// in\n    tag_253:\n        /* \"#utility.yul\":9540:9542   */\n      0x20\n        /* \"#utility.yul\":9535:9538   */\n      dup3\n        /* \"#utility.yul\":9531:9543   */\n      add\n        /* \"#utility.yul\":9524:9543   */\n      swap1\n      pop\n        /* \"#utility.yul\":9183:9549   */\n      swap2\n      swap1\n      pop\n      jump\t// out\n        /* \"#utility.yul\":9555:9974   */\n    tag_72:\n        /* \"#utility.yul\":9721:9725   */\n      0x00\n        /* \"#utility.yul\":9759:9761   */\n      0x20\n        /* \"#utility.yul\":9748:9757   */\n      dup3\n        /* \"#utility.yul\":9744:9762   */\n      add\n        /* \"#utility.yul\":9736:9762   */\n      swap1\n      pop\n        /* \"#utility.yul\":9808:9817   */\n      dup2\n        /* \"#utility.yul\":9802:9806   */\n      dup2\n        /* \"#utility.yul\":9798:9818   */\n      sub\n        /* \"#utility.yul\":9794:9795   */\n      0x00\n        /* \"#utility.yul\":9783:9792   */\n      dup4\n        /* \"#utility.yul\":9779:9796   */\n      add\n        /* \"#utility.yul\":9772:9819   */\n      mstore\n        /* \"#utility.yul\":9836:9967   */\n      tag_255\n        /* \"#utility.yul\":9962:9966   */\n      dup2\n        /* \"#utility.yul\":9836:9967   */\n      tag_136\n      jump\t// in\n    tag_255:\n        /* \"#utility.yul\":9828:9967   */\n      swap1\n      pop\n        /* \"#utility.yul\":9555:9974   */\n      swap2\n      swap1\n      pop\n      jump\t// out\n        /* \"#utility.yul\":9980:10160   */\n    tag_137:\n        /* \"#utility.yul\":10028:10105   */\n      0x4e487b7100000000000000000000000000000000000000000000000000000000\n        /* \"#utility.yul\":10025:10026   */\n      0x00\n        /* \"#utility.yul\":10018:10106   */\n      mstore\n        /* \"#utility.yul\":10125:10129   */\n      0x11\n        /* \"#utility.yul\":10122:10123   */\n      0x04\n        /* \"#utility.yul\":10115:10130   */\n      mstore\n        /* \"#utility.yul\":10149:10153   */\n      0x24\n        /* \"#utility.yul\":10146:10147   */\n      0x00\n        /* \"#utility.yul\":10139:10154   */\n      revert\n        /* \"#utility.yul\":10166:10399   */\n    tag_75:\n        /* \"#utility.yul\":10205:10208   */\n      0x00\n        /* \"#utility.yul\":10228:10252   */\n      tag_258\n        /* \"#utility.yul\":10246:10251   */\n      dup3\n        /* \"#utility.yul\":10228:10252   */\n      tag_114\n      jump\t// in\n    tag_258:\n        /* \"#utility.yul\":10219:10252   */\n      swap2\n      pop\n        /* \"#utility.yul\":10274:10340   */\n      0xffffffffffffffffffffffffffffffffffffffffffffffffffffffffffffffff\n        /* \"#utility.yul\":10267:10272   */\n      dup3\n        /* \"#utility.yul\":10264:10341   */\n      sub\n        /* \"#utility.yul\":10261:10364   */\n      tag_259\n      jumpi\n        /* \"#utility.yul\":10344:10362   */\n      tag_260\n      tag_137\n      jump\t// in\n    tag_260:\n        /* \"#utility.yul\":10261:10364   */\n    tag_259:\n        /* \"#utility.yul\":10391:10392   */\n      0x01\n        /* \"#utility.yul\":10384:10389   */\n      dup3\n        /* \"#utility.yul\":10380:10393   */\n      add\n        /* \"#utility.yul\":10373:10393   */\n      swap1\n      pop\n        /* \"#utility.yul\":10166:10399   */\n      swap2\n      swap1\n      pop\n      jump\t// out\n        /* \"#utility.yul\":10405:10630   */\n    tag_138:\n        /* \"#utility.yul\":10545:10579   */\n      0x436f6e747261637420646f6573206e6f74206861766520656e6f756768206375\n        /* \"#utility.yul\":10541:10542   */\n      0x00\n        /* \"#utility.yul\":10533:10539   */\n      dup3\n        /* \"#utility.yul\":10529:10543   */\n      add\n        /* \"#utility.yul\":10522:10580   */\n      mstore\n        /* \"#utility.yul\":10614:10622   */\n      0x7272656e63790000000000000000000000000000000000000000000000000000\n        /* \"#utility.yul\":10609:10611   */\n      0x20\n        /* \"#utility.yul\":10601:10607   */\n      dup3\n        /* \"#utility.yul\":10597:10612   */\n      add\n        /* \"#utility.yul\":10590:10623   */\n      mstore\n        /* \"#utility.yul\":10405:10630   */\n      pop\n      jump\t// out\n        /* \"#utility.yul\":10636:11002   */\n    tag_139:\n        /* \"#utility.yul\":10778:10781   */\n      0x00\n        /* \"#utility.yul\":10799:10866   */\n      tag_263\n        /* \"#utility.yul\":10863:10865   */\n      0x26\n        /* \"#utility.yul\":10858:10861   */\n      dup4\n        /* \"#utility.yul\":10799:10866   */\n      tag_132\n      jump\t// in\n    tag_263:\n        /* \"#utility.yul\":10792:10866   */\n      swap2\n      pop\n        /* \"#utility.yul\":10875:10968   */\n      tag_264\n        /* \"#utility.yul\":10964:10967   */\n      dup3\n        /* \"#utility.yul\":10875:10968   */\n      tag_138\n      jump\t// in\n    tag_264:\n        /* \"#utility.yul\":10993:10995   */\n      0x40\n        /* \"#utility.yul\":10988:10991   */\n      dup3\n        /* \"#utility.yul\":10984:10996   */\n      add\n        /* \"#utility.yul\":10977:10996   */\n      swap1\n      pop\n        /* \"#utility.yul\":10636:11002   */\n      swap2\n      swap1\n      pop\n      jump\t// out\n        /* \"#utility.yul\":11008:11427   */\n    tag_80:\n        /* \"#utility.yul\":11174:11178   */\n      0x00\n        /* \"#utility.yul\":11212:11214   */\n      0x20\n        /* \"#utility.yul\":11201:11210   */\n      dup3\n        /* \"#utility.yul\":11197:11215   */\n      add\n        /* \"#utility.yul\":11189:11215   */\n      swap1\n      pop\n        /* \"#utility.yul\":11261:11270   */\n      dup2\n        /* \"#utility.yul\":11255:11259   */\n      dup2\n        /* \"#utility.yul\":11251:11271   */\n      sub\n        /* \"#utility.yul\":11247:11248   */\n      0x00\n        /* \"#utility.yul\":11236:11245   */\n      dup4\n        /* \"#utility.yul\":11232:11249   */\n      add\n        /* \"#utility.yul\":11225:11272   */\n      mstore\n        /* \"#utility.yul\":11289:11420   */\n      tag_266\n        /* \"#utility.yul\":11415:11419   */\n      dup2\n        /* \"#utility.yul\":11289:11420   */\n      tag_139\n      jump\t// in\n    tag_266:\n        /* \"#utility.yul\":11281:11420   */\n      swap1\n      pop\n        /* \"#utility.yul\":11008:11427   */\n      swap2\n      swap1\n      pop\n      jump\t// out\n        /* \"#utility.yul\":11433:11671   */\n    tag_140:\n        /* \"#utility.yul\":11573:11607   */\n      0x596f7520617265206e6f7420616c6c6f77656420746f2073656e642063757272\n        /* \"#utility.yul\":11569:11570   */\n      0x00\n        /* \"#utility.yul\":11561:11567   */\n      dup3\n        /* \"#utility.yul\":11557:11571   */\n      add\n        /* \"#utility.yul\":11550:11608   */\n      mstore\n        /* \"#utility.yul\":11642:11663   */\n      0x656e637920746f207468697320706572736f6e00000000000000000000000000\n        /* \"#utility.yul\":11637:11639   */\n      0x20\n        /* \"#utility.yul\":11629:11635   */\n      dup3\n        /* \"#utility.yul\":11625:11640   */\n      add\n        /* \"#utility.yul\":11618:11664   */\n      mstore\n        /* \"#utility.yul\":11433:11671   */\n      pop\n      jump\t// out\n        /* \"#utility.yul\":11677:12043   */\n    tag_141:\n        /* \"#utility.yul\":11819:11822   */\n      0x00\n        /* \"#utility.yul\":11840:11907   */\n      tag_269\n        /* \"#utility.yul\":11904:11906   */\n      0x33\n        /* \"#utility.yul\":11899:11902   */\n      dup4\n        /* \"#utility.yul\":11840:11907   */\n      tag_132\n      jump\t// in\n    tag_269:\n        /* \"#utility.yul\":11833:11907   */\n      swap2\n      pop\n        /* \"#utility.yul\":11916:12009   */\n      tag_270\n        /* \"#utility.yul\":12005:12008   */\n      dup3\n        /* \"#utility.yul\":11916:12009   */\n      tag_140\n      jump\t// in\n    tag_270:\n        /* \"#utility.yul\":12034:12036   */\n      0x40\n        /* \"#utility.yul\":12029:12032   */\n      dup3\n        /* \"#utility.yul\":12025:12037   */\n      add\n        /* \"#utility.yul\":12018:12037   */\n      swap1\n      pop\n        /* \"#utility.yul\":11677:12043   */\n      swap2\n      swap1\n      pop\n      jump\t// out\n        /* \"#utility.yul\":12049:12468   */\n    tag_85:\n        /* \"#utility.yul\":12215:12219   */\n      0x00\n        /* \"#utility.yul\":12253:12255   */\n      0x20\n        /* \"#utility.yul\":12242:12251   */\n      dup3\n        /* \"#utility.yul\":12238:12256   */\n      add\n        /* \"#utility.yul\":12230:12256   */\n      swap1\n      pop\n        /* \"#utility.yul\":12302:12311   */\n      dup2\n        /* \"#utility.yul\":12296:12300   */\n      dup2\n        /* \"#utility.yul\":12292:12312   */\n      sub\n        /* \"#utility.yul\":12288:12289   */\n      0x00\n        /* \"#utility.yul\":12277:12286   */\n      dup4\n        /* \"#utility.yul\":12273:12290   */\n      add\n        /* \"#utility.yul\":12266:12313   */\n      mstore\n        /* \"#utility.yul\":12330:12461   */\n      tag_272\n        /* \"#utility.yul\":12456:12460   */\n      dup2\n        /* \"#utility.yul\":12330:12461   */\n      tag_141\n      jump\t// in\n    tag_272:\n        /* \"#utility.yul\":12322:12461   */\n      swap1\n      pop\n        /* \"#utility.yul\":12049:12468   */\n      swap2\n      swap1\n      pop\n      jump\t// out\n        /* \"#utility.yul\":12474:12700   */\n    tag_142:\n        /* \"#utility.yul\":12614:12648   */\n      0x596f752063616e6e6f742073656e64207468697320616d6f756e74206f662063\n        /* \"#utility.yul\":12610:12611   */\n      0x00\n        /* \"#utility.yul\":12602:12608   */\n      dup3\n        /* \"#utility.yul\":12598:12612   */\n      add\n        /* \"#utility.yul\":12591:12649   */\n      mstore\n        /* \"#utility.yul\":12683:12692   */\n      0x757272656e637900000000000000000000000000000000000000000000000000\n        /* \"#utility.yul\":12678:12680   */\n      0x20\n        /* \"#utility.yul\":12670:12676   */\n      dup3\n        /* \"#utility.yul\":12666:12681   */\n      add\n        /* \"#utility.yul\":12659:12693   */\n      mstore\n        /* \"#utility.yul\":12474:12700   */\n      pop\n      jump\t// out\n        /* \"#utility.yul\":12706:13072   */\n    tag_143:\n        /* \"#utility.yul\":12848:12851   */\n      0x00\n        /* \"#utility.yul\":12869:12936   */\n      tag_275\n        /* \"#utility.yul\":12933:12935   */\n      0x27\n        /* \"#utility.yul\":12928:12931   */\n      dup4\n        /* \"#utility.yul\":12869:12936   */\n      tag_132\n      jump\t// in\n    tag_275:\n        /* \"#utility.yul\":12862:12936   */\n      swap2\n      pop\n        /* \"#utility.yul\":12945:13038   */\n      tag_276\n        /* \"#utility.yul\":13034:13037   */\n      dup3\n        /* \"#utility.yul\":12945:13038   */\n      tag_142\n      jump\t// in\n    tag_276:\n        /* \"#utility.yul\":13063:13065   */\n      0x40\n        /* \"#utility.yul\":13058:13061   */\n      dup3\n        /* \"#utility.yul\":13054:13066   */\n      add\n        /* \"#utility.yul\":13047:13066   */\n      swap1\n      pop\n        /* \"#utility.yul\":12706:13072   */\n      swap2\n      swap1\n      pop\n      jump\t// out\n        /* \"#utility.yul\":13078:13497   */\n    tag_88:\n        /* \"#utility.yul\":13244:13248   */\n      0x00\n        /* \"#utility.yul\":13282:13284   */\n      0x20\n        /* \"#utility.yul\":13271:13280   */\n      dup3\n        /* \"#utility.yul\":13267:13285   */\n      add\n        /* \"#utility.yul\":13259:13285   */\n      swap1\n      pop\n        /* \"#utility.yul\":13331:13340   */\n      dup2\n        /* \"#utility.yul\":13325:13329   */\n      dup2\n        /* \"#utility.yul\":13321:13341   */\n      sub\n        /* \"#utility.yul\":13317:13318   */\n      0x00\n        /* \"#utility.yul\":13306:13315   */\n      dup4\n        /* \"#utility.yul\":13302:13319   */\n      add\n        /* \"#utility.yul\":13295:13342   */\n      mstore\n        /* \"#utility.yul\":13359:13490   */\n      tag_278\n        /* \"#utility.yul\":13485:13489   */\n      dup2\n        /* \"#utility.yul\":13359:13490   */\n      tag_143\n      jump\t// in\n    tag_278:\n        /* \"#utility.yul\":13351:13490   */\n      swap1\n      pop\n        /* \"#utility.yul\":13078:13497   */\n      swap2\n      swap1\n      pop\n      jump\t// out\n        /* \"#utility.yul\":13503:13694   */\n    tag_90:\n        /* \"#utility.yul\":13543:13547   */\n      0x00\n        /* \"#utility.yul\":13563:13583   */\n      tag_280\n        /* \"#utility.yul\":13581:13582   */\n      dup3\n        /* \"#utility.yul\":13563:13583   */\n      tag_114\n      jump\t// in\n    tag_280:\n        /* \"#utility.yul\":13558:13583   */\n      swap2\n      pop\n        /* \"#utility.yul\":13597:13617   */\n      tag_281\n        /* \"#utility.yul\":13615:13616   */\n      dup4\n        /* \"#utility.yul\":13597:13617   */\n      tag_114\n      jump\t// in\n    tag_281:\n        /* \"#utility.yul\":13592:13617   */\n      swap3\n      pop\n        /* \"#utility.yul\":13636:13637   */\n      dup3\n        /* \"#utility.yul\":13633:13634   */\n      dup3\n        /* \"#utility.yul\":13630:13638   */\n      lt\n        /* \"#utility.yul\":13627:13661   */\n      iszero\n      tag_282\n      jumpi\n        /* \"#utility.yul\":13641:13659   */\n      tag_283\n      tag_137\n      jump\t// in\n    tag_283:\n        /* \"#utility.yul\":13627:13661   */\n    tag_282:\n        /* \"#utility.yul\":13686:13687   */\n      dup3\n        /* \"#utility.yul\":13683:13684   */\n      dup3\n        /* \"#utility.yul\":13679:13688   */\n      sub\n        /* \"#utility.yul\":13671:13688   */\n      swap1\n      pop\n        /* \"#utility.yul\":13503:13694   */\n      swap3\n      swap2\n      pop\n      pop\n      jump\t// out\n        /* \"#utility.yul\":13700:13847   */\n    tag_144:\n        /* \"#utility.yul\":13801:13812   */\n      0x00\n        /* \"#utility.yul\":13838:13841   */\n      dup2\n        /* \"#utility.yul\":13823:13841   */\n      swap1\n      pop\n        /* \"#utility.yul\":13700:13847   */\n      swap3\n      swap2\n      pop\n      pop\n      jump\t// out\n        /* \"#utility.yul\":13853:14226   */\n    tag_145:\n        /* \"#utility.yul\":13957:13960   */\n      0x00\n        /* \"#utility.yul\":13985:14023   */\n      tag_286\n        /* \"#utility.yul\":14017:14022   */\n      dup3\n        /* \"#utility.yul\":13985:14023   */\n      tag_128\n      jump\t// in\n    tag_286:\n        /* \"#utility.yul\":14039:14127   */\n      tag_287\n        /* \"#utility.yul\":14120:14126   */\n      dup2\n        /* \"#utility.yul\":14115:14118   */\n      dup6\n        /* \"#utility.yul\":14039:14127   */\n      tag_144\n      jump\t// in\n    tag_287:\n        /* \"#utility.yul\":14032:14127   */\n      swap4\n      pop\n        /* \"#utility.yul\":14136:14188   */\n      tag_288\n        /* \"#utility.yul\":14181:14187   */\n      dup2\n        /* \"#utility.yul\":14176:14179   */\n      dup6\n        /* \"#utility.yul\":14169:14173   */\n      0x20\n        /* \"#utility.yul\":14162:14167   */\n      dup7\n        /* \"#utility.yul\":14158:14174   */\n      add\n        /* \"#utility.yul\":14136:14188   */\n      tag_130\n      jump\t// in\n    tag_288:\n        /* \"#utility.yul\":14213:14219   */\n      dup1\n        /* \"#utility.yul\":14208:14211   */\n      dup5\n        /* \"#utility.yul\":14204:14220   */\n      add\n        /* \"#utility.yul\":14197:14220   */\n      swap2\n      pop\n        /* \"#utility.yul\":13961:14226   */\n      pop\n        /* \"#utility.yul\":13853:14226   */\n      swap3\n      swap2\n      pop\n      pop\n      jump\t// out\n        /* \"#utility.yul\":14232:14503   */\n    tag_92:\n        /* \"#utility.yul\":14362:14365   */\n      0x00\n        /* \"#utility.yul\":14384:14477   */\n      tag_290\n        /* \"#utility.yul\":14473:14476   */\n      dup3\n        /* \"#utility.yul\":14464:14470   */\n      dup5\n        /* \"#utility.yul\":14384:14477   */\n      tag_145\n      jump\t// in\n    tag_290:\n        /* \"#utility.yul\":14377:14477   */\n      swap2\n      pop\n        /* \"#utility.yul\":14494:14497   */\n      dup2\n        /* \"#utility.yul\":14487:14497   */\n      swap1\n      pop\n        /* \"#utility.yul\":14232:14503   */\n      swap3\n      swap2\n      pop\n      pop\n      jump\t// out\n        /* \"#utility.yul\":14509:14677   */\n    tag_146:\n        /* \"#utility.yul\":14649:14669   */\n      0x5472616e73616374696f6e206661696c65640000000000000000000000000000\n        /* \"#utility.yul\":14645:14646   */\n      0x00\n        /* \"#utility.yul\":14637:14643   */\n      dup3\n        /* \"#utility.yul\":14633:14647   */\n      add\n        /* \"#utility.yul\":14626:14670   */\n      mstore\n        /* \"#utility.yul\":14509:14677   */\n      pop\n      jump\t// out\n        /* \"#utility.yul\":14683:15049   */\n    tag_147:\n        /* \"#utility.yul\":14825:14828   */\n      0x00\n        /* \"#utility.yul\":14846:14913   */\n      tag_293\n        /* \"#utility.yul\":14910:14912   */\n      0x12\n        /* \"#utility.yul\":14905:14908   */\n      dup4\n        /* \"#utility.yul\":14846:14913   */\n      tag_132\n      jump\t// in\n    tag_293:\n        /* \"#utility.yul\":14839:14913   */\n      swap2\n      pop\n        /* \"#utility.yul\":14922:15015   */\n      tag_294\n        /* \"#utility.yul\":15011:15014   */\n      dup3\n        /* \"#utility.yul\":14922:15015   */\n      tag_146\n      jump\t// in\n    tag_294:\n        /* \"#utility.yul\":15040:15042   */\n      0x20\n        /* \"#utility.yul\":15035:15038   */\n      dup3\n        /* \"#utility.yul\":15031:15043   */\n      add\n        /* \"#utility.yul\":15024:15043   */\n      swap1\n      pop\n        /* \"#utility.yul\":14683:15049   */\n      swap2\n      swap1\n      pop\n      jump\t// out\n        /* \"#utility.yul\":15055:15474   */\n    tag_98:\n        /* \"#utility.yul\":15221:15225   */\n      0x00\n        /* \"#utility.yul\":15259:15261   */\n      0x20\n        /* \"#utility.yul\":15248:15257   */\n      dup3\n        /* \"#utility.yul\":15244:15262   */\n      add\n        /* \"#utility.yul\":15236:15262   */\n      swap1\n      pop\n        /* \"#utility.yul\":15308:15317   */\n      dup2\n        /* \"#utility.yul\":15302:15306   */\n      dup2\n        /* \"#utility.yul\":15298:15318   */\n      sub\n        /* \"#utility.yul\":15294:15295   */\n      0x00\n        /* \"#utility.yul\":15283:15292   */\n      dup4\n        /* \"#utility.yul\":15279:15296   */\n      add\n        /* \"#utility.yul\":15272:15319   */\n      mstore\n        /* \"#utility.yul\":15336:15467   */\n      tag_296\n        /* \"#utility.yul\":15462:15466   */\n      dup2\n        /* \"#utility.yul\":15336:15467   */\n      tag_147\n      jump\t// in\n    tag_296:\n        /* \"#utility.yul\":15328:15467   */\n      swap1\n      pop\n        /* \"#utility.yul\":15055:15474   */\n      swap2\n      swap1\n      pop\n      jump\t// out\n\n    auxdata: 0xa2646970667358221220e1ba179231bca646ad58c6c2982ecb0519f46fda1c8e2cf24e1f441babb1c86c64736f6c634300080f0033\n}\n",
				"bytecode": {
					"linkReferences": {},
					"object": "608060405234801561001057600080fd5b50336000806101000a81548173ffffffffffffffffffffffffffffffffffffffff021916908373ffffffffffffffffffffffffffffffffffffffff16021790555061131c806100606000396000f3fe60806040526004361061008a5760003560e01c8063b9f0bf6611610059578063b9f0bf661461014e578063b9f1b8dc1461018b578063be45fd62146101b6578063d2fafb19146101f3578063f3e0db9e1461021c57610091565b80630633b14a1461009657806320829d80146100d35780638a0dac4a146100fc578063a6f9dae11461012557610091565b3661009157005b600080fd5b3480156100a257600080fd5b506100bd60048036038101906100b89190610b10565b610259565b6040516100ca9190610b58565b60405180910390f35b3480156100df57600080fd5b506100fa60048036038101906100f59190610b10565b610279565b005b34801561010857600080fd5b50610123600480360381019061011e9190610b10565b610362565b005b34801561013157600080fd5b5061014c60048036038101906101479190610bb1565b61044b565b005b34801561015a57600080fd5b5061017560048036038101906101709190610b10565b610640565b6040516101829190610bf7565b60405180910390f35b34801561019757600080fd5b506101a0610658565b6040516101ad9190610bf7565b60405180910390f35b3480156101c257600080fd5b506101dd60048036038101906101d89190610d84565b61065d565b6040516101ea9190610e7b565b60405180910390f35b3480156101ff57600080fd5b5061021a60048036038101906102159190610e9d565b610950565b005b34801561022857600080fd5b50610243600480360381019061023e9190610b10565b610a7e565b6040516102509190610b58565b60405180910390f35b60036020528060005260406000206000915054906101000a900460ff1681565b60008054906101000a900473ffffffffffffffffffffffffffffffffffffffff1673ffffffffffffffffffffffffffffffffffffffff163373ffffffffffffffffffffffffffffffffffffffff1614610307576040517f08c379a00000000000000000000000000000000000000000000000000000000081526004016102fe90610f3a565b60405180910390fd5b6000600260008373ffffffffffffffffffffffffffffffffffffffff1673ffffffffffffffffffffffffffffffffffffffff16815260200190815260200160002060006101000a81548160ff02191690831515021790555050565b60008054906101000a900473ffffffffffffffffffffffffffffffffffffffff1673ffffffffffffffffffffffffffffffffffffffff163373ffffffffffffffffffffffffffffffffffffffff16146103f0576040517f08c379a00000000000000000000000000000000000000000000000000000000081526004016103e790610f3a565b60405180910390fd5b6001600360008373ffffffffffffffffffffffffffffffffffffffff1673ffffffffffffffffffffffffffffffffffffffff16815260200190815260200160002060006101000a81548160ff02191690831515021790555050565b600360003373ffffffffffffffffffffffffffffffffffffffff1673ffffffffffffffffffffffffffffffffffffffff16815260200190815260200160002060009054906101000a900460ff166104d7576040517f08c379a00000000000000000000000000000000000000000000000000000000081526004016104ce90610fa6565b60405180910390fd5b8073ffffffffffffffffffffffffffffffffffffffff16600460009054906101000a900473ffffffffffffffffffffffffffffffffffffffff1673ffffffffffffffffffffffffffffffffffffffff16146105765780600460006101000a81548173ffffffffffffffffffffffffffffffffffffffff021916908373ffffffffffffffffffffffffffffffffffffffff16021790555060006005819055505b6005600081548092919061058990610ff5565b919050555060036005541061063d57600460009054906101000a900473ffffffffffffffffffffffffffffffffffffffff166000806101000a81548173ffffffffffffffffffffffffffffffffffffffff021916908373ffffffffffffffffffffffffffffffffffffffff1602179055506000600460006101000a81548173ffffffffffffffffffffffffffffffffffffffff021916908373ffffffffffffffffffffffffffffffffffffffff1602179055505b50565b60016020528060005260406000206000915090505481565b600381565b6060478311156106a2576040517f08c379a0000000000000000000000000000000000000000000000000000000008152600401610699906110af565b60405180910390fd5b60008054906101000a900473ffffffffffffffffffffffffffffffffffffffff1673ffffffffffffffffffffffffffffffffffffffff163373ffffffffffffffffffffffffffffffffffffffff1614610730576040517f08c379a000000000000000000000000000000000000000000000000000000000815260040161072790610f3a565b60405180910390fd5b600260008573ffffffffffffffffffffffffffffffffffffffff1673ffffffffffffffffffffffffffffffffffffffff16815260200190815260200160002060009054906101000a900460ff166107bc576040517f08c379a00000000000000000000000000000000000000000000000000000000081526004016107b390611141565b60405180910390fd5b82600160008673ffffffffffffffffffffffffffffffffffffffff1673ffffffffffffffffffffffffffffffffffffffff16815260200190815260200160002054101561083e576040517f08c379a0000000000000000000000000000000000000000000000000000000008152600401610835906111d3565b60405180910390fd5b82600160008673ffffffffffffffffffffffffffffffffffffffff1673ffffffffffffffffffffffffffffffffffffffff168152602001908152602001600020600082825461088d91906111f3565b925050819055506000808573ffffffffffffffffffffffffffffffffffffffff1685856040516108bd9190611263565b60006040518083038185875af1925050503d80600081146108fa576040519150601f19603f3d011682016040523d82523d6000602084013e6108ff565b606091505b509150915081610944576040517f08c379a000000000000000000000000000000000000000000000000000000000815260040161093b906112c6565b60405180910390fd5b80925050509392505050565b60008054906101000a900473ffffffffffffffffffffffffffffffffffffffff1673ffffffffffffffffffffffffffffffffffffffff163373ffffffffffffffffffffffffffffffffffffffff16146109de576040517f08c379a00000000000000000000000000000000000000000000000000000000081526004016109d590610f3a565b60405180910390fd5b80600160008473ffffffffffffffffffffffffffffffffffffffff1673ffffffffffffffffffffffffffffffffffffffff168152602001908152602001600020819055506001600260008473ffffffffffffffffffffffffffffffffffffffff1673ffffffffffffffffffffffffffffffffffffffff16815260200190815260200160002060006101000a81548160ff0219169083151502179055505050565b60026020528060005260406000206000915054906101000a900460ff1681565b6000604051905090565b600080fd5b600080fd5b600073ffffffffffffffffffffffffffffffffffffffff82169050919050565b6000610add82610ab2565b9050919050565b610aed81610ad2565b8114610af857600080fd5b50565b600081359050610b0a81610ae4565b92915050565b600060208284031215610b2657610b25610aa8565b5b6000610b3484828501610afb565b91505092915050565b60008115159050919050565b610b5281610b3d565b82525050565b6000602082019050610b6d6000830184610b49565b92915050565b6000610b7e82610ab2565b9050919050565b610b8e81610b73565b8114610b9957600080fd5b50565b600081359050610bab81610b85565b92915050565b600060208284031215610bc757610bc6610aa8565b5b6000610bd584828501610b9c565b91505092915050565b6000819050919050565b610bf181610bde565b82525050565b6000602082019050610c0c6000830184610be8565b92915050565b610c1b81610bde565b8114610c2657600080fd5b50565b600081359050610c3881610c12565b92915050565b600080fd5b600080fd5b6000601f19601f8301169050919050565b7f4e487b7100000000000000000000000000000000000000000000000000000000600052604160045260246000fd5b610c9182610c48565b810181811067ffffffffffffffff82111715610cb057610caf610c59565b5b80604052505050565b6000610cc3610a9e565b9050610ccf8282610c88565b919050565b600067ffffffffffffffff821115610cef57610cee610c59565b5b610cf882610c48565b9050602081019050919050565b82818337600083830152505050565b6000610d27610d2284610cd4565b610cb9565b905082815260208101848484011115610d4357610d42610c43565b5b610d4e848285610d05565b509392505050565b600082601f830112610d6b57610d6a610c3e565b5b8135610d7b848260208601610d14565b91505092915050565b600080600060608486031215610d9d57610d9c610aa8565b5b6000610dab86828701610b9c565b9350506020610dbc86828701610c29565b925050604084013567ffffffffffffffff811115610ddd57610ddc610aad565b5b610de986828701610d56565b9150509250925092565b600081519050919050565b600082825260208201905092915050565b60005b83811015610e2d578082015181840152602081019050610e12565b83811115610e3c576000848401525b50505050565b6000610e4d82610df3565b610e578185610dfe565b9350610e67818560208601610e0f565b610e7081610c48565b840191505092915050565b60006020820190508181036000830152610e958184610e42565b905092915050565b60008060408385031215610eb457610eb3610aa8565b5b6000610ec285828601610afb565b9250506020610ed385828601610c29565b9150509250929050565b600082825260208201905092915050565b7f596f7520617265206e6f7420746865206f776e65720000000000000000000000600082015250565b6000610f24601583610edd565b9150610f2f82610eee565b602082019050919050565b60006020820190508181036000830152610f5381610f17565b9050919050565b7f596f7520617265206e6f74206120677561726469616e00000000000000000000600082015250565b6000610f90601683610edd565b9150610f9b82610f5a565b602082019050919050565b60006020820190508181036000830152610fbf81610f83565b9050919050565b7f4e487b7100000000000000000000000000000000000000000000000000000000600052601160045260246000fd5b600061100082610bde565b91507fffffffffffffffffffffffffffffffffffffffffffffffffffffffffffffffff820361103257611031610fc6565b5b600182019050919050565b7f436f6e747261637420646f6573206e6f74206861766520656e6f75676820637560008201527f7272656e63790000000000000000000000000000000000000000000000000000602082015250565b6000611099602683610edd565b91506110a48261103d565b604082019050919050565b600060208201905081810360008301526110c88161108c565b9050919050565b7f596f7520617265206e6f7420616c6c6f77656420746f2073656e64206375727260008201527f656e637920746f207468697320706572736f6e00000000000000000000000000602082015250565b600061112b603383610edd565b9150611136826110cf565b604082019050919050565b6000602082019050818103600083015261115a8161111e565b9050919050565b7f596f752063616e6e6f742073656e64207468697320616d6f756e74206f66206360008201527f757272656e637900000000000000000000000000000000000000000000000000602082015250565b60006111bd602783610edd565b91506111c882611161565b604082019050919050565b600060208201905081810360008301526111ec816111b0565b9050919050565b60006111fe82610bde565b915061120983610bde565b92508282101561121c5761121b610fc6565b5b828203905092915050565b600081905092915050565b600061123d82610df3565b6112478185611227565b9350611257818560208601610e0f565b80840191505092915050565b600061126f8284611232565b915081905092915050565b7f5472616e73616374696f6e206661696c65640000000000000000000000000000600082015250565b60006112b0601283610edd565b91506112bb8261127a565b602082019050919050565b600060208201905081810360008301526112df816112a3565b905091905056fea2646970667358221220e1ba179231bca646ad58c6c2982ecb0519f46fda1c8e2cf24e1f441babb1c86c64736f6c634300080f0033",
					"opcodes": "PUSH1 0x80 PUSH1 0x40 MSTORE CALLVALUE DUP1 ISZERO PUSH2 0x10 JUMPI PUSH1 0x0 DUP1 REVERT JUMPDEST POP CALLER PUSH1 0x0 DUP1 PUSH2 0x100 EXP DUP2 SLOAD DUP2 PUSH20 0xFFFFFFFFFFFFFFFFFFFFFFFFFFFFFFFFFFFFFFFF MUL NOT AND SWAP1 DUP4 PUSH20 0xFFFFFFFFFFFFFFFFFFFFFFFFFFFFFFFFFFFFFFFF AND MUL OR SWAP1 SSTORE POP PUSH2 0x131C DUP1 PUSH2 0x60 PUSH1 0x0 CODECOPY PUSH1 0x0 RETURN INVALID PUSH1 0x80 PUSH1 0x40 MSTORE PUSH1 0x4 CALLDATASIZE LT PUSH2 0x8A JUMPI PUSH1 0x0 CALLDATALOAD PUSH1 0xE0 SHR DUP1 PUSH4 0xB9F0BF66 GT PUSH2 0x59 JUMPI DUP1 PUSH4 0xB9F0BF66 EQ PUSH2 0x14E JUMPI DUP1 PUSH4 0xB9F1B8DC EQ PUSH2 0x18B JUMPI DUP1 PUSH4 0xBE45FD62 EQ PUSH2 0x1B6 JUMPI DUP1 PUSH4 0xD2FAFB19 EQ PUSH2 0x1F3 JUMPI DUP1 PUSH4 0xF3E0DB9E EQ PUSH2 0x21C JUMPI PUSH2 0x91 JUMP JUMPDEST DUP1 PUSH4 0x633B14A EQ PUSH2 0x96 JUMPI DUP1 PUSH4 0x20829D80 EQ PUSH2 0xD3 JUMPI DUP1 PUSH4 0x8A0DAC4A EQ PUSH2 0xFC JUMPI DUP1 PUSH4 0xA6F9DAE1 EQ PUSH2 0x125 JUMPI PUSH2 0x91 JUMP JUMPDEST CALLDATASIZE PUSH2 0x91 JUMPI STOP JUMPDEST PUSH1 0x0 DUP1 REVERT JUMPDEST CALLVALUE DUP1 ISZERO PUSH2 0xA2 JUMPI PUSH1 0x0 DUP1 REVERT JUMPDEST POP PUSH2 0xBD PUSH1 0x4 DUP1 CALLDATASIZE SUB DUP2 ADD SWAP1 PUSH2 0xB8 SWAP2 SWAP1 PUSH2 0xB10 JUMP JUMPDEST PUSH2 0x259 JUMP JUMPDEST PUSH1 0x40 MLOAD PUSH2 0xCA SWAP2 SWAP1 PUSH2 0xB58 JUMP JUMPDEST PUSH1 0x40 MLOAD DUP1 SWAP2 SUB SWAP1 RETURN JUMPDEST CALLVALUE DUP1 ISZERO PUSH2 0xDF JUMPI PUSH1 0x0 DUP1 REVERT JUMPDEST POP PUSH2 0xFA PUSH1 0x4 DUP1 CALLDATASIZE SUB DUP2 ADD SWAP1 PUSH2 0xF5 SWAP2 SWAP1 PUSH2 0xB10 JUMP JUMPDEST PUSH2 0x279 JUMP JUMPDEST STOP JUMPDEST CALLVALUE DUP1 ISZERO PUSH2 0x108 JUMPI PUSH1 0x0 DUP1 REVERT JUMPDEST POP PUSH2 0x123 PUSH1 0x4 DUP1 CALLDATASIZE SUB DUP2 ADD SWAP1 PUSH2 0x11E SWAP2 SWAP1 PUSH2 0xB10 JUMP JUMPDEST PUSH2 0x362 JUMP JUMPDEST STOP JUMPDEST CALLVALUE DUP1 ISZERO PUSH2 0x131 JUMPI PUSH1 0x0 DUP1 REVERT JUMPDEST POP PUSH2 0x14C PUSH1 0x4 DUP1 CALLDATASIZE SUB DUP2 ADD SWAP1 PUSH2 0x147 SWAP2 SWAP1 PUSH2 0xBB1 JUMP JUMPDEST PUSH2 0x44B JUMP JUMPDEST STOP JUMPDEST CALLVALUE DUP1 ISZERO PUSH2 0x15A JUMPI PUSH1 0x0 DUP1 REVERT JUMPDEST POP PUSH2 0x175 PUSH1 0x4 DUP1 CALLDATASIZE SUB DUP2 ADD SWAP1 PUSH2 0x170 SWAP2 SWAP1 PUSH2 0xB10 JUMP JUMPDEST PUSH2 0x640 JUMP JUMPDEST PUSH1 0x40 MLOAD PUSH2 0x182 SWAP2 SWAP1 PUSH2 0xBF7 JUMP JUMPDEST PUSH1 0x40 MLOAD DUP1 SWAP2 SUB SWAP1 RETURN JUMPDEST CALLVALUE DUP1 ISZERO PUSH2 0x197 JUMPI PUSH1 0x0 DUP1 REVERT JUMPDEST POP PUSH2 0x1A0 PUSH2 0x658 JUMP JUMPDEST PUSH1 0x40 MLOAD PUSH2 0x1AD SWAP2 SWAP1 PUSH2 0xBF7 JUMP JUMPDEST PUSH1 0x40 MLOAD DUP1 SWAP2 SUB SWAP1 RETURN JUMPDEST CALLVALUE DUP1 ISZERO PUSH2 0x1C2 JUMPI PUSH1 0x0 DUP1 REVERT JUMPDEST POP PUSH2 0x1DD PUSH1 0x4 DUP1 CALLDATASIZE SUB DUP2 ADD SWAP1 PUSH2 0x1D8 SWAP2 SWAP1 PUSH2 0xD84 JUMP JUMPDEST PUSH2 0x65D JUMP JUMPDEST PUSH1 0x40 MLOAD PUSH2 0x1EA SWAP2 SWAP1 PUSH2 0xE7B JUMP JUMPDEST PUSH1 0x40 MLOAD DUP1 SWAP2 SUB SWAP1 RETURN JUMPDEST CALLVALUE DUP1 ISZERO PUSH2 0x1FF JUMPI PUSH1 0x0 DUP1 REVERT JUMPDEST POP PUSH2 0x21A PUSH1 0x4 DUP1 CALLDATASIZE SUB DUP2 ADD SWAP1 PUSH2 0x215 SWAP2 SWAP1 PUSH2 0xE9D JUMP JUMPDEST PUSH2 0x950 JUMP JUMPDEST STOP JUMPDEST CALLVALUE DUP1 ISZERO PUSH2 0x228 JUMPI PUSH1 0x0 DUP1 REVERT JUMPDEST POP PUSH2 0x243 PUSH1 0x4 DUP1 CALLDATASIZE SUB DUP2 ADD SWAP1 PUSH2 0x23E SWAP2 SWAP1 PUSH2 0xB10 JUMP JUMPDEST PUSH2 0xA7E JUMP JUMPDEST PUSH1 0x40 MLOAD PUSH2 0x250 SWAP2 SWAP1 PUSH2 0xB58 JUMP JUMPDEST PUSH1 0x40 MLOAD DUP1 SWAP2 SUB SWAP1 RETURN JUMPDEST PUSH1 0x3 PUSH1 0x20 MSTORE DUP1 PUSH1 0x0 MSTORE PUSH1 0x40 PUSH1 0x0 KECCAK256 PUSH1 0x0 SWAP2 POP SLOAD SWAP1 PUSH2 0x100 EXP SWAP1 DIV PUSH1 0xFF AND DUP2 JUMP JUMPDEST PUSH1 0x0 DUP1 SLOAD SWAP1 PUSH2 0x100 EXP SWAP1 DIV PUSH20 0xFFFFFFFFFFFFFFFFFFFFFFFFFFFFFFFFFFFFFFFF AND PUSH20 0xFFFFFFFFFFFFFFFFFFFFFFFFFFFFFFFFFFFFFFFF AND CALLER PUSH20 0xFFFFFFFFFFFFFFFFFFFFFFFFFFFFFFFFFFFFFFFF AND EQ PUSH2 0x307 JUMPI PUSH1 0x40 MLOAD PUSH32 0x8C379A000000000000000000000000000000000000000000000000000000000 DUP2 MSTORE PUSH1 0x4 ADD PUSH2 0x2FE SWAP1 PUSH2 0xF3A JUMP JUMPDEST PUSH1 0x40 MLOAD DUP1 SWAP2 SUB SWAP1 REVERT JUMPDEST PUSH1 0x0 PUSH1 0x2 PUSH1 0x0 DUP4 PUSH20 0xFFFFFFFFFFFFFFFFFFFFFFFFFFFFFFFFFFFFFFFF AND PUSH20 0xFFFFFFFFFFFFFFFFFFFFFFFFFFFFFFFFFFFFFFFF AND DUP2 MSTORE PUSH1 0x20 ADD SWAP1 DUP2 MSTORE PUSH1 0x20 ADD PUSH1 0x0 KECCAK256 PUSH1 0x0 PUSH2 0x100 EXP DUP2 SLOAD DUP2 PUSH1 0xFF MUL NOT AND SWAP1 DUP4 ISZERO ISZERO MUL OR SWAP1 SSTORE POP POP JUMP JUMPDEST PUSH1 0x0 DUP1 SLOAD SWAP1 PUSH2 0x100 EXP SWAP1 DIV PUSH20 0xFFFFFFFFFFFFFFFFFFFFFFFFFFFFFFFFFFFFFFFF AND PUSH20 0xFFFFFFFFFFFFFFFFFFFFFFFFFFFFFFFFFFFFFFFF AND CALLER PUSH20 0xFFFFFFFFFFFFFFFFFFFFFFFFFFFFFFFFFFFFFFFF AND EQ PUSH2 0x3F0 JUMPI PUSH1 0x40 MLOAD PUSH32 0x8C379A000000000000000000000000000000000000000000000000000000000 DUP2 MSTORE PUSH1 0x4 ADD PUSH2 0x3E7 SWAP1 PUSH2 0xF3A JUMP JUMPDEST PUSH1 0x40 MLOAD DUP1 SWAP2 SUB SWAP1 REVERT JUMPDEST PUSH1 0x1 PUSH1 0x3 PUSH1 0x0 DUP4 PUSH20 0xFFFFFFFFFFFFFFFFFFFFFFFFFFFFFFFFFFFFFFFF AND PUSH20 0xFFFFFFFFFFFFFFFFFFFFFFFFFFFFFFFFFFFFFFFF AND DUP2 MSTORE PUSH1 0x20 ADD SWAP1 DUP2 MSTORE PUSH1 0x20 ADD PUSH1 0x0 KECCAK256 PUSH1 0x0 PUSH2 0x100 EXP DUP2 SLOAD DUP2 PUSH1 0xFF MUL NOT AND SWAP1 DUP4 ISZERO ISZERO MUL OR SWAP1 SSTORE POP POP JUMP JUMPDEST PUSH1 0x3 PUSH1 0x0 CALLER PUSH20 0xFFFFFFFFFFFFFFFFFFFFFFFFFFFFFFFFFFFFFFFF AND PUSH20 0xFFFFFFFFFFFFFFFFFFFFFFFFFFFFFFFFFFFFFFFF AND DUP2 MSTORE PUSH1 0x20 ADD SWAP1 DUP2 MSTORE PUSH1 0x20 ADD PUSH1 0x0 KECCAK256 PUSH1 0x0 SWAP1 SLOAD SWAP1 PUSH2 0x100 EXP SWAP1 DIV PUSH1 0xFF AND PUSH2 0x4D7 JUMPI PUSH1 0x40 MLOAD PUSH32 0x8C379A000000000000000000000000000000000000000000000000000000000 DUP2 MSTORE PUSH1 0x4 ADD PUSH2 0x4CE SWAP1 PUSH2 0xFA6 JUMP JUMPDEST PUSH1 0x40 MLOAD DUP1 SWAP2 SUB SWAP1 REVERT JUMPDEST DUP1 PUSH20 0xFFFFFFFFFFFFFFFFFFFFFFFFFFFFFFFFFFFFFFFF AND PUSH1 0x4 PUSH1 0x0 SWAP1 SLOAD SWAP1 PUSH2 0x100 EXP SWAP1 DIV PUSH20 0xFFFFFFFFFFFFFFFFFFFFFFFFFFFFFFFFFFFFFFFF AND PUSH20 0xFFFFFFFFFFFFFFFFFFFFFFFFFFFFFFFFFFFFFFFF AND EQ PUSH2 0x576 JUMPI DUP1 PUSH1 0x4 PUSH1 0x0 PUSH2 0x100 EXP DUP2 SLOAD DUP2 PUSH20 0xFFFFFFFFFFFFFFFFFFFFFFFFFFFFFFFFFFFFFFFF MUL NOT AND SWAP1 DUP4 PUSH20 0xFFFFFFFFFFFFFFFFFFFFFFFFFFFFFFFFFFFFFFFF AND MUL OR SWAP1 SSTORE POP PUSH1 0x0 PUSH1 0x5 DUP2 SWAP1 SSTORE POP JUMPDEST PUSH1 0x5 PUSH1 0x0 DUP2 SLOAD DUP1 SWAP3 SWAP2 SWAP1 PUSH2 0x589 SWAP1 PUSH2 0xFF5 JUMP JUMPDEST SWAP2 SWAP1 POP SSTORE POP PUSH1 0x3 PUSH1 0x5 SLOAD LT PUSH2 0x63D JUMPI PUSH1 0x4 PUSH1 0x0 SWAP1 SLOAD SWAP1 PUSH2 0x100 EXP SWAP1 DIV PUSH20 0xFFFFFFFFFFFFFFFFFFFFFFFFFFFFFFFFFFFFFFFF AND PUSH1 0x0 DUP1 PUSH2 0x100 EXP DUP2 SLOAD DUP2 PUSH20 0xFFFFFFFFFFFFFFFFFFFFFFFFFFFFFFFFFFFFFFFF MUL NOT AND SWAP1 DUP4 PUSH20 0xFFFFFFFFFFFFFFFFFFFFFFFFFFFFFFFFFFFFFFFF AND MUL OR SWAP1 SSTORE POP PUSH1 0x0 PUSH1 0x4 PUSH1 0x0 PUSH2 0x100 EXP DUP2 SLOAD DUP2 PUSH20 0xFFFFFFFFFFFFFFFFFFFFFFFFFFFFFFFFFFFFFFFF MUL NOT AND SWAP1 DUP4 PUSH20 0xFFFFFFFFFFFFFFFFFFFFFFFFFFFFFFFFFFFFFFFF AND MUL OR SWAP1 SSTORE POP JUMPDEST POP JUMP JUMPDEST PUSH1 0x1 PUSH1 0x20 MSTORE DUP1 PUSH1 0x0 MSTORE PUSH1 0x40 PUSH1 0x0 KECCAK256 PUSH1 0x0 SWAP2 POP SWAP1 POP SLOAD DUP2 JUMP JUMPDEST PUSH1 0x3 DUP2 JUMP JUMPDEST PUSH1 0x60 SELFBALANCE DUP4 GT ISZERO PUSH2 0x6A2 JUMPI PUSH1 0x40 MLOAD PUSH32 0x8C379A000000000000000000000000000000000000000000000000000000000 DUP2 MSTORE PUSH1 0x4 ADD PUSH2 0x699 SWAP1 PUSH2 0x10AF JUMP JUMPDEST PUSH1 0x40 MLOAD DUP1 SWAP2 SUB SWAP1 REVERT JUMPDEST PUSH1 0x0 DUP1 SLOAD SWAP1 PUSH2 0x100 EXP SWAP1 DIV PUSH20 0xFFFFFFFFFFFFFFFFFFFFFFFFFFFFFFFFFFFFFFFF AND PUSH20 0xFFFFFFFFFFFFFFFFFFFFFFFFFFFFFFFFFFFFFFFF AND CALLER PUSH20 0xFFFFFFFFFFFFFFFFFFFFFFFFFFFFFFFFFFFFFFFF AND EQ PUSH2 0x730 JUMPI PUSH1 0x40 MLOAD PUSH32 0x8C379A000000000000000000000000000000000000000000000000000000000 DUP2 MSTORE PUSH1 0x4 ADD PUSH2 0x727 SWAP1 PUSH2 0xF3A JUMP JUMPDEST PUSH1 0x40 MLOAD DUP1 SWAP2 SUB SWAP1 REVERT JUMPDEST PUSH1 0x2 PUSH1 0x0 DUP6 PUSH20 0xFFFFFFFFFFFFFFFFFFFFFFFFFFFFFFFFFFFFFFFF AND PUSH20 0xFFFFFFFFFFFFFFFFFFFFFFFFFFFFFFFFFFFFFFFF AND DUP2 MSTORE PUSH1 0x20 ADD SWAP1 DUP2 MSTORE PUSH1 0x20 ADD PUSH1 0x0 KECCAK256 PUSH1 0x0 SWAP1 SLOAD SWAP1 PUSH2 0x100 EXP SWAP1 DIV PUSH1 0xFF AND PUSH2 0x7BC JUMPI PUSH1 0x40 MLOAD PUSH32 0x8C379A000000000000000000000000000000000000000000000000000000000 DUP2 MSTORE PUSH1 0x4 ADD PUSH2 0x7B3 SWAP1 PUSH2 0x1141 JUMP JUMPDEST PUSH1 0x40 MLOAD DUP1 SWAP2 SUB SWAP1 REVERT JUMPDEST DUP3 PUSH1 0x1 PUSH1 0x0 DUP7 PUSH20 0xFFFFFFFFFFFFFFFFFFFFFFFFFFFFFFFFFFFFFFFF AND PUSH20 0xFFFFFFFFFFFFFFFFFFFFFFFFFFFFFFFFFFFFFFFF AND DUP2 MSTORE PUSH1 0x20 ADD SWAP1 DUP2 MSTORE PUSH1 0x20 ADD PUSH1 0x0 KECCAK256 SLOAD LT ISZERO PUSH2 0x83E JUMPI PUSH1 0x40 MLOAD PUSH32 0x8C379A000000000000000000000000000000000000000000000000000000000 DUP2 MSTORE PUSH1 0x4 ADD PUSH2 0x835 SWAP1 PUSH2 0x11D3 JUMP JUMPDEST PUSH1 0x40 MLOAD DUP1 SWAP2 SUB SWAP1 REVERT JUMPDEST DUP3 PUSH1 0x1 PUSH1 0x0 DUP7 PUSH20 0xFFFFFFFFFFFFFFFFFFFFFFFFFFFFFFFFFFFFFFFF AND PUSH20 0xFFFFFFFFFFFFFFFFFFFFFFFFFFFFFFFFFFFFFFFF AND DUP2 MSTORE PUSH1 0x20 ADD SWAP1 DUP2 MSTORE PUSH1 0x20 ADD PUSH1 0x0 KECCAK256 PUSH1 0x0 DUP3 DUP3 SLOAD PUSH2 0x88D SWAP2 SWAP1 PUSH2 0x11F3 JUMP JUMPDEST SWAP3 POP POP DUP2 SWAP1 SSTORE POP PUSH1 0x0 DUP1 DUP6 PUSH20 0xFFFFFFFFFFFFFFFFFFFFFFFFFFFFFFFFFFFFFFFF AND DUP6 DUP6 PUSH1 0x40 MLOAD PUSH2 0x8BD SWAP2 SWAP1 PUSH2 0x1263 JUMP JUMPDEST PUSH1 0x0 PUSH1 0x40 MLOAD DUP1 DUP4 SUB DUP2 DUP6 DUP8 GAS CALL SWAP3 POP POP POP RETURNDATASIZE DUP1 PUSH1 0x0 DUP2 EQ PUSH2 0x8FA JUMPI PUSH1 0x40 MLOAD SWAP2 POP PUSH1 0x1F NOT PUSH1 0x3F RETURNDATASIZE ADD AND DUP3 ADD PUSH1 0x40 MSTORE RETURNDATASIZE DUP3 MSTORE RETURNDATASIZE PUSH1 0x0 PUSH1 0x20 DUP5 ADD RETURNDATACOPY PUSH2 0x8FF JUMP JUMPDEST PUSH1 0x60 SWAP2 POP JUMPDEST POP SWAP2 POP SWAP2 POP DUP2 PUSH2 0x944 JUMPI PUSH1 0x40 MLOAD PUSH32 0x8C379A000000000000000000000000000000000000000000000000000000000 DUP2 MSTORE PUSH1 0x4 ADD PUSH2 0x93B SWAP1 PUSH2 0x12C6 JUMP JUMPDEST PUSH1 0x40 MLOAD DUP1 SWAP2 SUB SWAP1 REVERT JUMPDEST DUP1 SWAP3 POP POP POP SWAP4 SWAP3 POP POP POP JUMP JUMPDEST PUSH1 0x0 DUP1 SLOAD SWAP1 PUSH2 0x100 EXP SWAP1 DIV PUSH20 0xFFFFFFFFFFFFFFFFFFFFFFFFFFFFFFFFFFFFFFFF AND PUSH20 0xFFFFFFFFFFFFFFFFFFFFFFFFFFFFFFFFFFFFFFFF AND CALLER PUSH20 0xFFFFFFFFFFFFFFFFFFFFFFFFFFFFFFFFFFFFFFFF AND EQ PUSH2 0x9DE JUMPI PUSH1 0x40 MLOAD PUSH32 0x8C379A000000000000000000000000000000000000000000000000000000000 DUP2 MSTORE PUSH1 0x4 ADD PUSH2 0x9D5 SWAP1 PUSH2 0xF3A JUMP JUMPDEST PUSH1 0x40 MLOAD DUP1 SWAP2 SUB SWAP1 REVERT JUMPDEST DUP1 PUSH1 0x1 PUSH1 0x0 DUP5 PUSH20 0xFFFFFFFFFFFFFFFFFFFFFFFFFFFFFFFFFFFFFFFF AND PUSH20 0xFFFFFFFFFFFFFFFFFFFFFFFFFFFFFFFFFFFFFFFF AND DUP2 MSTORE PUSH1 0x20 ADD SWAP1 DUP2 MSTORE PUSH1 0x20 ADD PUSH1 0x0 KECCAK256 DUP2 SWAP1 SSTORE POP PUSH1 0x1 PUSH1 0x2 PUSH1 0x0 DUP5 PUSH20 0xFFFFFFFFFFFFFFFFFFFFFFFFFFFFFFFFFFFFFFFF AND PUSH20 0xFFFFFFFFFFFFFFFFFFFFFFFFFFFFFFFFFFFFFFFF AND DUP2 MSTORE PUSH1 0x20 ADD SWAP1 DUP2 MSTORE PUSH1 0x20 ADD PUSH1 0x0 KECCAK256 PUSH1 0x0 PUSH2 0x100 EXP DUP2 SLOAD DUP2 PUSH1 0xFF MUL NOT AND SWAP1 DUP4 ISZERO ISZERO MUL OR SWAP1 SSTORE POP POP POP JUMP JUMPDEST PUSH1 0x2 PUSH1 0x20 MSTORE DUP1 PUSH1 0x0 MSTORE PUSH1 0x40 PUSH1 0x0 KECCAK256 PUSH1 0x0 SWAP2 POP SLOAD SWAP1 PUSH2 0x100 EXP SWAP1 DIV PUSH1 0xFF AND DUP2 JUMP JUMPDEST PUSH1 0x0 PUSH1 0x40 MLOAD SWAP1 POP SWAP1 JUMP JUMPDEST PUSH1 0x0 DUP1 REVERT JUMPDEST PUSH1 0x0 DUP1 REVERT JUMPDEST PUSH1 0x0 PUSH20 0xFFFFFFFFFFFFFFFFFFFFFFFFFFFFFFFFFFFFFFFF DUP3 AND SWAP1 POP SWAP2 SWAP1 POP JUMP JUMPDEST PUSH1 0x0 PUSH2 0xADD DUP3 PUSH2 0xAB2 JUMP JUMPDEST SWAP1 POP SWAP2 SWAP1 POP JUMP JUMPDEST PUSH2 0xAED DUP2 PUSH2 0xAD2 JUMP JUMPDEST DUP2 EQ PUSH2 0xAF8 JUMPI PUSH1 0x0 DUP1 REVERT JUMPDEST POP JUMP JUMPDEST PUSH1 0x0 DUP2 CALLDATALOAD SWAP1 POP PUSH2 0xB0A DUP2 PUSH2 0xAE4 JUMP JUMPDEST SWAP3 SWAP2 POP POP JUMP JUMPDEST PUSH1 0x0 PUSH1 0x20 DUP3 DUP5 SUB SLT ISZERO PUSH2 0xB26 JUMPI PUSH2 0xB25 PUSH2 0xAA8 JUMP JUMPDEST JUMPDEST PUSH1 0x0 PUSH2 0xB34 DUP5 DUP3 DUP6 ADD PUSH2 0xAFB JUMP JUMPDEST SWAP2 POP POP SWAP3 SWAP2 POP POP JUMP JUMPDEST PUSH1 0x0 DUP2 ISZERO ISZERO SWAP1 POP SWAP2 SWAP1 POP JUMP JUMPDEST PUSH2 0xB52 DUP2 PUSH2 0xB3D JUMP JUMPDEST DUP3 MSTORE POP POP JUMP JUMPDEST PUSH1 0x0 PUSH1 0x20 DUP3 ADD SWAP1 POP PUSH2 0xB6D PUSH1 0x0 DUP4 ADD DUP5 PUSH2 0xB49 JUMP JUMPDEST SWAP3 SWAP2 POP POP JUMP JUMPDEST PUSH1 0x0 PUSH2 0xB7E DUP3 PUSH2 0xAB2 JUMP JUMPDEST SWAP1 POP SWAP2 SWAP1 POP JUMP JUMPDEST PUSH2 0xB8E DUP2 PUSH2 0xB73 JUMP JUMPDEST DUP2 EQ PUSH2 0xB99 JUMPI PUSH1 0x0 DUP1 REVERT JUMPDEST POP JUMP JUMPDEST PUSH1 0x0 DUP2 CALLDATALOAD SWAP1 POP PUSH2 0xBAB DUP2 PUSH2 0xB85 JUMP JUMPDEST SWAP3 SWAP2 POP POP JUMP JUMPDEST PUSH1 0x0 PUSH1 0x20 DUP3 DUP5 SUB SLT ISZERO PUSH2 0xBC7 JUMPI PUSH2 0xBC6 PUSH2 0xAA8 JUMP JUMPDEST JUMPDEST PUSH1 0x0 PUSH2 0xBD5 DUP5 DUP3 DUP6 ADD PUSH2 0xB9C JUMP JUMPDEST SWAP2 POP POP SWAP3 SWAP2 POP POP JUMP JUMPDEST PUSH1 0x0 DUP2 SWAP1 POP SWAP2 SWAP1 POP JUMP JUMPDEST PUSH2 0xBF1 DUP2 PUSH2 0xBDE JUMP JUMPDEST DUP3 MSTORE POP POP JUMP JUMPDEST PUSH1 0x0 PUSH1 0x20 DUP3 ADD SWAP1 POP PUSH2 0xC0C PUSH1 0x0 DUP4 ADD DUP5 PUSH2 0xBE8 JUMP JUMPDEST SWAP3 SWAP2 POP POP JUMP JUMPDEST PUSH2 0xC1B DUP2 PUSH2 0xBDE JUMP JUMPDEST DUP2 EQ PUSH2 0xC26 JUMPI PUSH1 0x0 DUP1 REVERT JUMPDEST POP JUMP JUMPDEST PUSH1 0x0 DUP2 CALLDATALOAD SWAP1 POP PUSH2 0xC38 DUP2 PUSH2 0xC12 JUMP JUMPDEST SWAP3 SWAP2 POP POP JUMP JUMPDEST PUSH1 0x0 DUP1 REVERT JUMPDEST PUSH1 0x0 DUP1 REVERT JUMPDEST PUSH1 0x0 PUSH1 0x1F NOT PUSH1 0x1F DUP4 ADD AND SWAP1 POP SWAP2 SWAP1 POP JUMP JUMPDEST PUSH32 0x4E487B7100000000000000000000000000000000000000000000000000000000 PUSH1 0x0 MSTORE PUSH1 0x41 PUSH1 0x4 MSTORE PUSH1 0x24 PUSH1 0x0 REVERT JUMPDEST PUSH2 0xC91 DUP3 PUSH2 0xC48 JUMP JUMPDEST DUP2 ADD DUP2 DUP2 LT PUSH8 0xFFFFFFFFFFFFFFFF DUP3 GT OR ISZERO PUSH2 0xCB0 JUMPI PUSH2 0xCAF PUSH2 0xC59 JUMP JUMPDEST JUMPDEST DUP1 PUSH1 0x40 MSTORE POP POP POP JUMP JUMPDEST PUSH1 0x0 PUSH2 0xCC3 PUSH2 0xA9E JUMP JUMPDEST SWAP1 POP PUSH2 0xCCF DUP3 DUP3 PUSH2 0xC88 JUMP JUMPDEST SWAP2 SWAP1 POP JUMP JUMPDEST PUSH1 0x0 PUSH8 0xFFFFFFFFFFFFFFFF DUP3 GT ISZERO PUSH2 0xCEF JUMPI PUSH2 0xCEE PUSH2 0xC59 JUMP JUMPDEST JUMPDEST PUSH2 0xCF8 DUP3 PUSH2 0xC48 JUMP JUMPDEST SWAP1 POP PUSH1 0x20 DUP2 ADD SWAP1 POP SWAP2 SWAP1 POP JUMP JUMPDEST DUP3 DUP2 DUP4 CALLDATACOPY PUSH1 0x0 DUP4 DUP4 ADD MSTORE POP POP POP JUMP JUMPDEST PUSH1 0x0 PUSH2 0xD27 PUSH2 0xD22 DUP5 PUSH2 0xCD4 JUMP JUMPDEST PUSH2 0xCB9 JUMP JUMPDEST SWAP1 POP DUP3 DUP2 MSTORE PUSH1 0x20 DUP2 ADD DUP5 DUP5 DUP5 ADD GT ISZERO PUSH2 0xD43 JUMPI PUSH2 0xD42 PUSH2 0xC43 JUMP JUMPDEST JUMPDEST PUSH2 0xD4E DUP5 DUP3 DUP6 PUSH2 0xD05 JUMP JUMPDEST POP SWAP4 SWAP3 POP POP POP JUMP JUMPDEST PUSH1 0x0 DUP3 PUSH1 0x1F DUP4 ADD SLT PUSH2 0xD6B JUMPI PUSH2 0xD6A PUSH2 0xC3E JUMP JUMPDEST JUMPDEST DUP2 CALLDATALOAD PUSH2 0xD7B DUP5 DUP3 PUSH1 0x20 DUP7 ADD PUSH2 0xD14 JUMP JUMPDEST SWAP2 POP POP SWAP3 SWAP2 POP POP JUMP JUMPDEST PUSH1 0x0 DUP1 PUSH1 0x0 PUSH1 0x60 DUP5 DUP7 SUB SLT ISZERO PUSH2 0xD9D JUMPI PUSH2 0xD9C PUSH2 0xAA8 JUMP JUMPDEST JUMPDEST PUSH1 0x0 PUSH2 0xDAB DUP7 DUP3 DUP8 ADD PUSH2 0xB9C JUMP JUMPDEST SWAP4 POP POP PUSH1 0x20 PUSH2 0xDBC DUP7 DUP3 DUP8 ADD PUSH2 0xC29 JUMP JUMPDEST SWAP3 POP POP PUSH1 0x40 DUP5 ADD CALLDATALOAD PUSH8 0xFFFFFFFFFFFFFFFF DUP2 GT ISZERO PUSH2 0xDDD JUMPI PUSH2 0xDDC PUSH2 0xAAD JUMP JUMPDEST JUMPDEST PUSH2 0xDE9 DUP7 DUP3 DUP8 ADD PUSH2 0xD56 JUMP JUMPDEST SWAP2 POP POP SWAP3 POP SWAP3 POP SWAP3 JUMP JUMPDEST PUSH1 0x0 DUP2 MLOAD SWAP1 POP SWAP2 SWAP1 POP JUMP JUMPDEST PUSH1 0x0 DUP3 DUP3 MSTORE PUSH1 0x20 DUP3 ADD SWAP1 POP SWAP3 SWAP2 POP POP JUMP JUMPDEST PUSH1 0x0 JUMPDEST DUP4 DUP2 LT ISZERO PUSH2 0xE2D JUMPI DUP1 DUP3 ADD MLOAD DUP2 DUP5 ADD MSTORE PUSH1 0x20 DUP2 ADD SWAP1 POP PUSH2 0xE12 JUMP JUMPDEST DUP4 DUP2 GT ISZERO PUSH2 0xE3C JUMPI PUSH1 0x0 DUP5 DUP5 ADD MSTORE JUMPDEST POP POP POP POP JUMP JUMPDEST PUSH1 0x0 PUSH2 0xE4D DUP3 PUSH2 0xDF3 JUMP JUMPDEST PUSH2 0xE57 DUP2 DUP6 PUSH2 0xDFE JUMP JUMPDEST SWAP4 POP PUSH2 0xE67 DUP2 DUP6 PUSH1 0x20 DUP7 ADD PUSH2 0xE0F JUMP JUMPDEST PUSH2 0xE70 DUP2 PUSH2 0xC48 JUMP JUMPDEST DUP5 ADD SWAP2 POP POP SWAP3 SWAP2 POP POP JUMP JUMPDEST PUSH1 0x0 PUSH1 0x20 DUP3 ADD SWAP1 POP DUP2 DUP2 SUB PUSH1 0x0 DUP4 ADD MSTORE PUSH2 0xE95 DUP2 DUP5 PUSH2 0xE42 JUMP JUMPDEST SWAP1 POP SWAP3 SWAP2 POP POP JUMP JUMPDEST PUSH1 0x0 DUP1 PUSH1 0x40 DUP4 DUP6 SUB SLT ISZERO PUSH2 0xEB4 JUMPI PUSH2 0xEB3 PUSH2 0xAA8 JUMP JUMPDEST JUMPDEST PUSH1 0x0 PUSH2 0xEC2 DUP6 DUP3 DUP7 ADD PUSH2 0xAFB JUMP JUMPDEST SWAP3 POP POP PUSH1 0x20 PUSH2 0xED3 DUP6 DUP3 DUP7 ADD PUSH2 0xC29 JUMP JUMPDEST SWAP2 POP POP SWAP3 POP SWAP3 SWAP1 POP JUMP JUMPDEST PUSH1 0x0 DUP3 DUP3 MSTORE PUSH1 0x20 DUP3 ADD SWAP1 POP SWAP3 SWAP2 POP POP JUMP JUMPDEST PUSH32 0x596F7520617265206E6F7420746865206F776E65720000000000000000000000 PUSH1 0x0 DUP3 ADD MSTORE POP JUMP JUMPDEST PUSH1 0x0 PUSH2 0xF24 PUSH1 0x15 DUP4 PUSH2 0xEDD JUMP JUMPDEST SWAP2 POP PUSH2 0xF2F DUP3 PUSH2 0xEEE JUMP JUMPDEST PUSH1 0x20 DUP3 ADD SWAP1 POP SWAP2 SWAP1 POP JUMP JUMPDEST PUSH1 0x0 PUSH1 0x20 DUP3 ADD SWAP1 POP DUP2 DUP2 SUB PUSH1 0x0 DUP4 ADD MSTORE PUSH2 0xF53 DUP2 PUSH2 0xF17 JUMP JUMPDEST SWAP1 POP SWAP2 SWAP1 POP JUMP JUMPDEST PUSH32 0x596F7520617265206E6F74206120677561726469616E00000000000000000000 PUSH1 0x0 DUP3 ADD MSTORE POP JUMP JUMPDEST PUSH1 0x0 PUSH2 0xF90 PUSH1 0x16 DUP4 PUSH2 0xEDD JUMP JUMPDEST SWAP2 POP PUSH2 0xF9B DUP3 PUSH2 0xF5A JUMP JUMPDEST PUSH1 0x20 DUP3 ADD SWAP1 POP SWAP2 SWAP1 POP JUMP JUMPDEST PUSH1 0x0 PUSH1 0x20 DUP3 ADD SWAP1 POP DUP2 DUP2 SUB PUSH1 0x0 DUP4 ADD MSTORE PUSH2 0xFBF DUP2 PUSH2 0xF83 JUMP JUMPDEST SWAP1 POP SWAP2 SWAP1 POP JUMP JUMPDEST PUSH32 0x4E487B7100000000000000000000000000000000000000000000000000000000 PUSH1 0x0 MSTORE PUSH1 0x11 PUSH1 0x4 MSTORE PUSH1 0x24 PUSH1 0x0 REVERT JUMPDEST PUSH1 0x0 PUSH2 0x1000 DUP3 PUSH2 0xBDE JUMP JUMPDEST SWAP2 POP PUSH32 0xFFFFFFFFFFFFFFFFFFFFFFFFFFFFFFFFFFFFFFFFFFFFFFFFFFFFFFFFFFFFFFFF DUP3 SUB PUSH2 0x1032 JUMPI PUSH2 0x1031 PUSH2 0xFC6 JUMP JUMPDEST JUMPDEST PUSH1 0x1 DUP3 ADD SWAP1 POP SWAP2 SWAP1 POP JUMP JUMPDEST PUSH32 0x436F6E747261637420646F6573206E6F74206861766520656E6F756768206375 PUSH1 0x0 DUP3 ADD MSTORE PUSH32 0x7272656E63790000000000000000000000000000000000000000000000000000 PUSH1 0x20 DUP3 ADD MSTORE POP JUMP JUMPDEST PUSH1 0x0 PUSH2 0x1099 PUSH1 0x26 DUP4 PUSH2 0xEDD JUMP JUMPDEST SWAP2 POP PUSH2 0x10A4 DUP3 PUSH2 0x103D JUMP JUMPDEST PUSH1 0x40 DUP3 ADD SWAP1 POP SWAP2 SWAP1 POP JUMP JUMPDEST PUSH1 0x0 PUSH1 0x20 DUP3 ADD SWAP1 POP DUP2 DUP2 SUB PUSH1 0x0 DUP4 ADD MSTORE PUSH2 0x10C8 DUP2 PUSH2 0x108C JUMP JUMPDEST SWAP1 POP SWAP2 SWAP1 POP JUMP JUMPDEST PUSH32 0x596F7520617265206E6F7420616C6C6F77656420746F2073656E642063757272 PUSH1 0x0 DUP3 ADD MSTORE PUSH32 0x656E637920746F207468697320706572736F6E00000000000000000000000000 PUSH1 0x20 DUP3 ADD MSTORE POP JUMP JUMPDEST PUSH1 0x0 PUSH2 0x112B PUSH1 0x33 DUP4 PUSH2 0xEDD JUMP JUMPDEST SWAP2 POP PUSH2 0x1136 DUP3 PUSH2 0x10CF JUMP JUMPDEST PUSH1 0x40 DUP3 ADD SWAP1 POP SWAP2 SWAP1 POP JUMP JUMPDEST PUSH1 0x0 PUSH1 0x20 DUP3 ADD SWAP1 POP DUP2 DUP2 SUB PUSH1 0x0 DUP4 ADD MSTORE PUSH2 0x115A DUP2 PUSH2 0x111E JUMP JUMPDEST SWAP1 POP SWAP2 SWAP1 POP JUMP JUMPDEST PUSH32 0x596F752063616E6E6F742073656E64207468697320616D6F756E74206F662063 PUSH1 0x0 DUP3 ADD MSTORE PUSH32 0x757272656E637900000000000000000000000000000000000000000000000000 PUSH1 0x20 DUP3 ADD MSTORE POP JUMP JUMPDEST PUSH1 0x0 PUSH2 0x11BD PUSH1 0x27 DUP4 PUSH2 0xEDD JUMP JUMPDEST SWAP2 POP PUSH2 0x11C8 DUP3 PUSH2 0x1161 JUMP JUMPDEST PUSH1 0x40 DUP3 ADD SWAP1 POP SWAP2 SWAP1 POP JUMP JUMPDEST PUSH1 0x0 PUSH1 0x20 DUP3 ADD SWAP1 POP DUP2 DUP2 SUB PUSH1 0x0 DUP4 ADD MSTORE PUSH2 0x11EC DUP2 PUSH2 0x11B0 JUMP JUMPDEST SWAP1 POP SWAP2 SWAP1 POP JUMP JUMPDEST PUSH1 0x0 PUSH2 0x11FE DUP3 PUSH2 0xBDE JUMP JUMPDEST SWAP2 POP PUSH2 0x1209 DUP4 PUSH2 0xBDE JUMP JUMPDEST SWAP3 POP DUP3 DUP3 LT ISZERO PUSH2 0x121C JUMPI PUSH2 0x121B PUSH2 0xFC6 JUMP JUMPDEST JUMPDEST DUP3 DUP3 SUB SWAP1 POP SWAP3 SWAP2 POP POP JUMP JUMPDEST PUSH1 0x0 DUP2 SWAP1 POP SWAP3 SWAP2 POP POP JUMP JUMPDEST PUSH1 0x0 PUSH2 0x123D DUP3 PUSH2 0xDF3 JUMP JUMPDEST PUSH2 0x1247 DUP2 DUP6 PUSH2 0x1227 JUMP JUMPDEST SWAP4 POP PUSH2 0x1257 DUP2 DUP6 PUSH1 0x20 DUP7 ADD PUSH2 0xE0F JUMP JUMPDEST DUP1 DUP5 ADD SWAP2 POP POP SWAP3 SWAP2 POP POP JUMP JUMPDEST PUSH1 0x0 PUSH2 0x126F DUP3 DUP5 PUSH2 0x1232 JUMP JUMPDEST SWAP2 POP DUP2 SWAP1 POP SWAP3 SWAP2 POP POP JUMP JUMPDEST PUSH32 0x5472616E73616374696F6E206661696C65640000000000000000000000000000 PUSH1 0x0 DUP3 ADD MSTORE POP JUMP JUMPDEST PUSH1 0x0 PUSH2 0x12B0 PUSH1 0x12 DUP4 PUSH2 0xEDD JUMP JUMPDEST SWAP2 POP PUSH2 0x12BB DUP3 PUSH2 0x127A JUMP JUMPDEST PUSH1 0x20 DUP3 ADD SWAP1 POP SWAP2 SWAP1 POP JUMP JUMPDEST PUSH1 0x0 PUSH1 0x20 DUP3 ADD SWAP1 POP DUP2 DUP2 SUB PUSH1 0x0 DUP4 ADD MSTORE PUSH2 0x12DF DUP2 PUSH2 0x12A3 JUMP JUMPDEST SWAP1 POP SWAP2 SWAP1 POP JUMP INVALID LOG2 PUSH5 0x6970667358 0x22 SLT KECCAK256 0xE1 0xBA OR SWAP3 BALANCE 0xBC 0xA6 CHAINID 0xAD PC 0xC6 0xC2 SWAP9 0x2E 0xCB SDIV NOT DELEGATECALL PUSH16 0xDA1C8E2CF24E1F441BABB1C86C64736F PUSH13 0x634300080F0033000000000000 "
				},
				"gasEstimates": {
					"creation": {
						"codeDepositCost": "978400",
						"executionCost": "25280",
						"totalCost": "1003680"
					},
					"external": {
						"GuardiansNeededToReset()": "351",
						"allowedToSend(address)": "2933",
						"amount(address)": "2814",
						"changeOwner(address)": "60696",
						"denyAllowance(address)": "27002",
						"guardians(address)": "2846",
						"setAmount(address,uint256)": "49422",
						"setGuardian(address)": "27024",
						"transfer(address,uint256,bytes)": "infinite"
					}
				},
				"methodIdentifiers": {
					"GuardiansNeededToReset()": "b9f1b8dc",
					"allowedToSend(address)": "f3e0db9e",
					"amount(address)": "b9f0bf66",
					"changeOwner(address)": "a6f9dae1",
					"denyAllowance(address)": "20829d80",
					"guardians(address)": "0633b14a",
					"setAmount(address,uint256)": "d2fafb19",
					"setGuardian(address)": "8a0dac4a",
					"transfer(address,uint256,bytes)": "be45fd62"
				}
			},
			"storageLayout": {
				"storage": [
					{
						"astId": 3,
						"contract": "georgs2Wallet.sol:Wallet",
						"label": "owner",
						"offset": 0,
						"slot": "0",
						"type": "t_address_payable"
					},
					{
						"astId": 7,
						"contract": "georgs2Wallet.sol:Wallet",
						"label": "amount",
						"offset": 0,
						"slot": "1",
						"type": "t_mapping(t_address,t_uint256)"
					},
					{
						"astId": 11,
						"contract": "georgs2Wallet.sol:Wallet",
						"label": "allowedToSend",
						"offset": 0,
						"slot": "2",
						"type": "t_mapping(t_address,t_bool)"
					},
					{
						"astId": 15,
						"contract": "georgs2Wallet.sol:Wallet",
						"label": "guardians",
						"offset": 0,
						"slot": "3",
						"type": "t_mapping(t_address,t_bool)"
					},
					{
						"astId": 17,
						"contract": "georgs2Wallet.sol:Wallet",
						"label": "nxtOwner",
						"offset": 0,
						"slot": "4",
						"type": "t_address_payable"
					},
					{
						"astId": 19,
						"contract": "georgs2Wallet.sol:Wallet",
						"label": "guardianCount",
						"offset": 0,
						"slot": "5",
						"type": "t_uint256"
					}
				],
				"types": {
					"t_address": {
						"encoding": "inplace",
						"label": "address",
						"numberOfBytes": "20"
					},
					"t_address_payable": {
						"encoding": "inplace",
						"label": "address payable",
						"numberOfBytes": "20"
					},
					"t_bool": {
						"encoding": "inplace",
						"label": "bool",
						"numberOfBytes": "1"
					},
					"t_mapping(t_address,t_bool)": {
						"encoding": "mapping",
						"key": "t_address",
						"label": "mapping(address => bool)",
						"numberOfBytes": "32",
						"value": "t_bool"
					},
					"t_mapping(t_address,t_uint256)": {
						"encoding": "mapping",
						"key": "t_address",
						"label": "mapping(address => uint256)",
						"numberOfBytes": "32",
						"value": "t_uint256"
					},
					"t_uint256": {
						"encoding": "inplace",
						"label": "uint256",
						"numberOfBytes": "32"
					}
				}
			},
			"userdoc": {
				"kind": "user",
				"methods": {},
				"version": 1
			}
		}
	}
}