{
	"georgs2NFTDutchAuction.sol": {
		"NFTDutchAuction": {
			"abi": [
				{
					"inputs": [
						{
							"internalType": "uint256",
							"name": "_startingPrice",
							"type": "uint256"
						},
						{
							"internalType": "uint256",
							"name": "_discountRate",
							"type": "uint256"
						}
					],
					"stateMutability": "nonpayable",
					"type": "constructor"
				},
				{
					"inputs": [],
					"name": "buyNow",
					"outputs": [],
					"stateMutability": "payable",
					"type": "function"
				},
				{
					"inputs": [],
					"name": "discountRate",
					"outputs": [
						{
							"internalType": "uint256",
							"name": "",
							"type": "uint256"
						}
					],
					"stateMutability": "view",
					"type": "function"
				},
				{
					"inputs": [],
					"name": "expiresAt",
					"outputs": [
						{
							"internalType": "uint256",
							"name": "",
							"type": "uint256"
						}
					],
					"stateMutability": "view",
					"type": "function"
				},
				{
					"inputs": [],
					"name": "getPrice",
					"outputs": [
						{
							"internalType": "uint256",
							"name": "",
							"type": "uint256"
						}
					],
					"stateMutability": "view",
					"type": "function"
				},
				{
					"inputs": [],
					"name": "nft",
					"outputs": [
						{
							"internalType": "contract IERC721",
							"name": "",
							"type": "address"
						}
					],
					"stateMutability": "view",
					"type": "function"
				},
				{
					"inputs": [],
					"name": "nftId",
					"outputs": [
						{
							"internalType": "uint256",
							"name": "",
							"type": "uint256"
						}
					],
					"stateMutability": "view",
					"type": "function"
				},
				{
					"inputs": [],
					"name": "seller",
					"outputs": [
						{
							"internalType": "address payable",
							"name": "",
							"type": "address"
						}
					],
					"stateMutability": "view",
					"type": "function"
				},
				{
					"inputs": [
						{
							"internalType": "address",
							"name": "_nft",
							"type": "address"
						},
						{
							"internalType": "uint256",
							"name": "_nftId",
							"type": "uint256"
						}
					],
					"name": "setNFT",
					"outputs": [],
					"stateMutability": "nonpayable",
					"type": "function"
				},
				{
					"inputs": [],
					"name": "startAt",
					"outputs": [
						{
							"internalType": "uint256",
							"name": "",
							"type": "uint256"
						}
					],
					"stateMutability": "view",
					"type": "function"
				},
				{
					"inputs": [],
					"name": "startingPrice",
					"outputs": [
						{
							"internalType": "uint256",
							"name": "",
							"type": "uint256"
						}
					],
					"stateMutability": "view",
					"type": "function"
				}
			],
			"devdoc": {
				"kind": "dev",
				"methods": {},
				"version": 1
			},
			"evm": {
				"assembly": "    /* \"georgs2NFTDutchAuction.sol\":163:1752  contract NFTDutchAuction {... */\n  mstore(0x40, 0x0120)\n    /* \"georgs2NFTDutchAuction.sol\":500:929  constructor(uint _startingPrice, uint _discountRate)... */\n  callvalue\n  dup1\n  iszero\n  tag_1\n  jumpi\n  0x00\n  dup1\n  revert\ntag_1:\n  pop\n  mload(0x40)\n  sub(codesize, bytecodeSize)\n  dup1\n  bytecodeSize\n  dup4\n  codecopy\n  dup2\n  dup2\n  add\n  0x40\n  mstore\n  dup2\n  add\n  swap1\n  tag_2\n  swap2\n  swap1\n  tag_3\n  jump\t// in\ntag_2:\n    /* \"georgs2NFTDutchAuction.sol\":586:596  msg.sender */\n  caller\n    /* \"georgs2NFTDutchAuction.sol\":569:597  seller = payable(msg.sender) */\n  0xffffffffffffffffffffffffffffffffffffffff\n  and\n  0x80\n  dup2\n  0xffffffffffffffffffffffffffffffffffffffff\n  and\n  dup2\n  mstore\n  pop\n  pop\n    /* \"georgs2NFTDutchAuction.sol\":624:638  _startingPrice */\n  dup2\n    /* \"georgs2NFTDutchAuction.sol\":608:638  startingPrice = _startingPrice */\n  0xa0\n  dup2\n  dup2\n  mstore\n  pop\n  pop\n    /* \"georgs2NFTDutchAuction.sol\":659:674  block.timestamp */\n  timestamp\n    /* \"georgs2NFTDutchAuction.sol\":649:674  startAt = block.timestamp */\n  0xc0\n  dup2\n  dup2\n  mstore\n  pop\n  pop\n    /* \"georgs2NFTDutchAuction.sol\":228:235  10 days */\n  0x0d2f00\n    /* \"georgs2NFTDutchAuction.sol\":697:712  block.timestamp */\n  timestamp\n    /* \"georgs2NFTDutchAuction.sol\":697:723  block.timestamp + DURATION */\n  tag_6\n  swap2\n  swap1\n  tag_7\n  jump\t// in\ntag_6:\n    /* \"georgs2NFTDutchAuction.sol\":685:723  expiresAt = block.timestamp + DURATION */\n  0xe0\n  dup2\n  dup2\n  mstore\n  pop\n  pop\n    /* \"georgs2NFTDutchAuction.sol\":749:762  _discountRate */\n  dup1\n    /* \"georgs2NFTDutchAuction.sol\":734:762  discountRate = _discountRate */\n  0x0100\n  dup2\n  dup2\n  mstore\n  pop\n  pop\n    /* \"georgs2NFTDutchAuction.sol\":228:235  10 days */\n  0x0d2f00\n    /* \"georgs2NFTDutchAuction.sol\":800:812  discountRate */\n  mload(0x0100)\n    /* \"georgs2NFTDutchAuction.sol\":800:821  discountRate*DURATION */\n  tag_8\n  swap2\n  swap1\n  tag_9\n  jump\t// in\ntag_8:\n    /* \"georgs2NFTDutchAuction.sol\":783:796  startingPrice */\n  mload(0xa0)\n    /* \"georgs2NFTDutchAuction.sol\":783:821  startingPrice >= discountRate*DURATION */\n  lt\n  iszero\n    /* \"georgs2NFTDutchAuction.sol\":775:917  require(startingPrice >= discountRate*DURATION, \"The starting price should be greater than the decrease of the price over the bidding period\") */\n  tag_10\n  jumpi\n  mload(0x40)\n  0x08c379a000000000000000000000000000000000000000000000000000000000\n  dup2\n  mstore\n  0x04\n  add\n  tag_11\n  swap1\n  tag_12\n  jump\t// in\ntag_11:\n  mload(0x40)\n  dup1\n  swap2\n  sub\n  swap1\n  revert\ntag_10:\n    /* \"georgs2NFTDutchAuction.sol\":500:929  constructor(uint _startingPrice, uint _discountRate)... */\n  pop\n  pop\n    /* \"georgs2NFTDutchAuction.sol\":163:1752  contract NFTDutchAuction {... */\n  jump(tag_13)\n    /* \"#utility.yul\":88:205   */\ntag_15:\n    /* \"#utility.yul\":197:198   */\n  0x00\n    /* \"#utility.yul\":194:195   */\n  dup1\n    /* \"#utility.yul\":187:199   */\n  revert\n    /* \"#utility.yul\":334:411   */\ntag_17:\n    /* \"#utility.yul\":371:378   */\n  0x00\n    /* \"#utility.yul\":400:405   */\n  dup2\n    /* \"#utility.yul\":389:405   */\n  swap1\n  pop\n    /* \"#utility.yul\":334:411   */\n  swap2\n  swap1\n  pop\n  jump\t// out\n    /* \"#utility.yul\":417:539   */\ntag_18:\n    /* \"#utility.yul\":490:514   */\n  tag_30\n    /* \"#utility.yul\":508:513   */\n  dup2\n    /* \"#utility.yul\":490:514   */\n  tag_17\n  jump\t// in\ntag_30:\n    /* \"#utility.yul\":483:488   */\n  dup2\n    /* \"#utility.yul\":480:515   */\n  eq\n    /* \"#utility.yul\":470:533   */\n  tag_31\n  jumpi\n    /* \"#utility.yul\":529:530   */\n  0x00\n    /* \"#utility.yul\":526:527   */\n  dup1\n    /* \"#utility.yul\":519:531   */\n  revert\n    /* \"#utility.yul\":470:533   */\ntag_31:\n    /* \"#utility.yul\":417:539   */\n  pop\n  jump\t// out\n    /* \"#utility.yul\":545:688   */\ntag_19:\n    /* \"#utility.yul\":602:607   */\n  0x00\n    /* \"#utility.yul\":633:639   */\n  dup2\n    /* \"#utility.yul\":627:640   */\n  mload\n    /* \"#utility.yul\":618:640   */\n  swap1\n  pop\n    /* \"#utility.yul\":649:682   */\n  tag_33\n    /* \"#utility.yul\":676:681   */\n  dup2\n    /* \"#utility.yul\":649:682   */\n  tag_18\n  jump\t// in\ntag_33:\n    /* \"#utility.yul\":545:688   */\n  swap3\n  swap2\n  pop\n  pop\n  jump\t// out\n    /* \"#utility.yul\":694:1201   */\ntag_3:\n    /* \"#utility.yul\":773:779   */\n  0x00\n    /* \"#utility.yul\":781:787   */\n  dup1\n    /* \"#utility.yul\":830:832   */\n  0x40\n    /* \"#utility.yul\":818:827   */\n  dup4\n    /* \"#utility.yul\":809:816   */\n  dup6\n    /* \"#utility.yul\":805:828   */\n  sub\n    /* \"#utility.yul\":801:833   */\n  slt\n    /* \"#utility.yul\":798:917   */\n  iszero\n  tag_35\n  jumpi\n    /* \"#utility.yul\":836:915   */\n  tag_36\n  tag_15\n  jump\t// in\ntag_36:\n    /* \"#utility.yul\":798:917   */\ntag_35:\n    /* \"#utility.yul\":956:957   */\n  0x00\n    /* \"#utility.yul\":981:1045   */\n  tag_37\n    /* \"#utility.yul\":1037:1044   */\n  dup6\n    /* \"#utility.yul\":1028:1034   */\n  dup3\n    /* \"#utility.yul\":1017:1026   */\n  dup7\n    /* \"#utility.yul\":1013:1035   */\n  add\n    /* \"#utility.yul\":981:1045   */\n  tag_19\n  jump\t// in\ntag_37:\n    /* \"#utility.yul\":971:1045   */\n  swap3\n  pop\n    /* \"#utility.yul\":927:1055   */\n  pop\n    /* \"#utility.yul\":1094:1096   */\n  0x20\n    /* \"#utility.yul\":1120:1184   */\n  tag_38\n    /* \"#utility.yul\":1176:1183   */\n  dup6\n    /* \"#utility.yul\":1167:1173   */\n  dup3\n    /* \"#utility.yul\":1156:1165   */\n  dup7\n    /* \"#utility.yul\":1152:1174   */\n  add\n    /* \"#utility.yul\":1120:1184   */\n  tag_19\n  jump\t// in\ntag_38:\n    /* \"#utility.yul\":1110:1184   */\n  swap2\n  pop\n    /* \"#utility.yul\":1065:1194   */\n  pop\n    /* \"#utility.yul\":694:1201   */\n  swap3\n  pop\n  swap3\n  swap1\n  pop\n  jump\t// out\n    /* \"#utility.yul\":1207:1387   */\ntag_20:\n    /* \"#utility.yul\":1255:1332   */\n  0x4e487b7100000000000000000000000000000000000000000000000000000000\n    /* \"#utility.yul\":1252:1253   */\n  0x00\n    /* \"#utility.yul\":1245:1333   */\n  mstore\n    /* \"#utility.yul\":1352:1356   */\n  0x11\n    /* \"#utility.yul\":1349:1350   */\n  0x04\n    /* \"#utility.yul\":1342:1357   */\n  mstore\n    /* \"#utility.yul\":1376:1380   */\n  0x24\n    /* \"#utility.yul\":1373:1374   */\n  0x00\n    /* \"#utility.yul\":1366:1381   */\n  revert\n    /* \"#utility.yul\":1393:1698   */\ntag_7:\n    /* \"#utility.yul\":1433:1436   */\n  0x00\n    /* \"#utility.yul\":1452:1472   */\n  tag_41\n    /* \"#utility.yul\":1470:1471   */\n  dup3\n    /* \"#utility.yul\":1452:1472   */\n  tag_17\n  jump\t// in\ntag_41:\n    /* \"#utility.yul\":1447:1472   */\n  swap2\n  pop\n    /* \"#utility.yul\":1486:1506   */\n  tag_42\n    /* \"#utility.yul\":1504:1505   */\n  dup4\n    /* \"#utility.yul\":1486:1506   */\n  tag_17\n  jump\t// in\ntag_42:\n    /* \"#utility.yul\":1481:1506   */\n  swap3\n  pop\n    /* \"#utility.yul\":1640:1641   */\n  dup3\n    /* \"#utility.yul\":1572:1638   */\n  0xffffffffffffffffffffffffffffffffffffffffffffffffffffffffffffffff\n    /* \"#utility.yul\":1568:1642   */\n  sub\n    /* \"#utility.yul\":1565:1566   */\n  dup3\n    /* \"#utility.yul\":1562:1643   */\n  gt\n    /* \"#utility.yul\":1559:1666   */\n  iszero\n  tag_43\n  jumpi\n    /* \"#utility.yul\":1646:1664   */\n  tag_44\n  tag_20\n  jump\t// in\ntag_44:\n    /* \"#utility.yul\":1559:1666   */\ntag_43:\n    /* \"#utility.yul\":1690:1691   */\n  dup3\n    /* \"#utility.yul\":1687:1688   */\n  dup3\n    /* \"#utility.yul\":1683:1692   */\n  add\n    /* \"#utility.yul\":1676:1692   */\n  swap1\n  pop\n    /* \"#utility.yul\":1393:1698   */\n  swap3\n  swap2\n  pop\n  pop\n  jump\t// out\n    /* \"#utility.yul\":1704:2052   */\ntag_9:\n    /* \"#utility.yul\":1744:1751   */\n  0x00\n    /* \"#utility.yul\":1767:1787   */\n  tag_46\n    /* \"#utility.yul\":1785:1786   */\n  dup3\n    /* \"#utility.yul\":1767:1787   */\n  tag_17\n  jump\t// in\ntag_46:\n    /* \"#utility.yul\":1762:1787   */\n  swap2\n  pop\n    /* \"#utility.yul\":1801:1821   */\n  tag_47\n    /* \"#utility.yul\":1819:1820   */\n  dup4\n    /* \"#utility.yul\":1801:1821   */\n  tag_17\n  jump\t// in\ntag_47:\n    /* \"#utility.yul\":1796:1821   */\n  swap3\n  pop\n    /* \"#utility.yul\":1989:1990   */\n  dup2\n    /* \"#utility.yul\":1921:1987   */\n  0xffffffffffffffffffffffffffffffffffffffffffffffffffffffffffffffff\n    /* \"#utility.yul\":1917:1991   */\n  div\n    /* \"#utility.yul\":1914:1915   */\n  dup4\n    /* \"#utility.yul\":1911:1992   */\n  gt\n    /* \"#utility.yul\":1906:1907   */\n  dup3\n    /* \"#utility.yul\":1899:1908   */\n  iszero\n    /* \"#utility.yul\":1892:1909   */\n  iszero\n    /* \"#utility.yul\":1888:1993   */\n  and\n    /* \"#utility.yul\":1885:2016   */\n  iszero\n  tag_48\n  jumpi\n    /* \"#utility.yul\":1996:2014   */\n  tag_49\n  tag_20\n  jump\t// in\ntag_49:\n    /* \"#utility.yul\":1885:2016   */\ntag_48:\n    /* \"#utility.yul\":2044:2045   */\n  dup3\n    /* \"#utility.yul\":2041:2042   */\n  dup3\n    /* \"#utility.yul\":2037:2046   */\n  mul\n    /* \"#utility.yul\":2026:2046   */\n  swap1\n  pop\n    /* \"#utility.yul\":1704:2052   */\n  swap3\n  swap2\n  pop\n  pop\n  jump\t// out\n    /* \"#utility.yul\":2058:2227   */\ntag_21:\n    /* \"#utility.yul\":2142:2153   */\n  0x00\n    /* \"#utility.yul\":2176:2182   */\n  dup3\n    /* \"#utility.yul\":2171:2174   */\n  dup3\n    /* \"#utility.yul\":2164:2183   */\n  mstore\n    /* \"#utility.yul\":2216:2220   */\n  0x20\n    /* \"#utility.yul\":2211:2214   */\n  dup3\n    /* \"#utility.yul\":2207:2221   */\n  add\n    /* \"#utility.yul\":2192:2221   */\n  swap1\n  pop\n    /* \"#utility.yul\":2058:2227   */\n  swap3\n  swap2\n  pop\n  pop\n  jump\t// out\n    /* \"#utility.yul\":2233:2548   */\ntag_22:\n    /* \"#utility.yul\":2373:2407   */\n  0x546865207374617274696e672070726963652073686f756c6420626520677265\n    /* \"#utility.yul\":2369:2370   */\n  0x00\n    /* \"#utility.yul\":2361:2367   */\n  dup3\n    /* \"#utility.yul\":2357:2371   */\n  add\n    /* \"#utility.yul\":2350:2408   */\n  mstore\n    /* \"#utility.yul\":2442:2476   */\n  0x61746572207468616e20746865206465637265617365206f6620746865207072\n    /* \"#utility.yul\":2437:2439   */\n  0x20\n    /* \"#utility.yul\":2429:2435   */\n  dup3\n    /* \"#utility.yul\":2425:2440   */\n  add\n    /* \"#utility.yul\":2418:2477   */\n  mstore\n    /* \"#utility.yul\":2511:2540   */\n  0x696365206f766572207468652062696464696e6720706572696f640000000000\n    /* \"#utility.yul\":2506:2508   */\n  0x40\n    /* \"#utility.yul\":2498:2504   */\n  dup3\n    /* \"#utility.yul\":2494:2509   */\n  add\n    /* \"#utility.yul\":2487:2541   */\n  mstore\n    /* \"#utility.yul\":2233:2548   */\n  pop\n  jump\t// out\n    /* \"#utility.yul\":2554:2920   */\ntag_23:\n    /* \"#utility.yul\":2696:2699   */\n  0x00\n    /* \"#utility.yul\":2717:2784   */\n  tag_53\n    /* \"#utility.yul\":2781:2783   */\n  0x5b\n    /* \"#utility.yul\":2776:2779   */\n  dup4\n    /* \"#utility.yul\":2717:2784   */\n  tag_21\n  jump\t// in\ntag_53:\n    /* \"#utility.yul\":2710:2784   */\n  swap2\n  pop\n    /* \"#utility.yul\":2793:2886   */\n  tag_54\n    /* \"#utility.yul\":2882:2885   */\n  dup3\n    /* \"#utility.yul\":2793:2886   */\n  tag_22\n  jump\t// in\ntag_54:\n    /* \"#utility.yul\":2911:2913   */\n  0x60\n    /* \"#utility.yul\":2906:2909   */\n  dup3\n    /* \"#utility.yul\":2902:2914   */\n  add\n    /* \"#utility.yul\":2895:2914   */\n  swap1\n  pop\n    /* \"#utility.yul\":2554:2920   */\n  swap2\n  swap1\n  pop\n  jump\t// out\n    /* \"#utility.yul\":2926:3345   */\ntag_12:\n    /* \"#utility.yul\":3092:3096   */\n  0x00\n    /* \"#utility.yul\":3130:3132   */\n  0x20\n    /* \"#utility.yul\":3119:3128   */\n  dup3\n    /* \"#utility.yul\":3115:3133   */\n  add\n    /* \"#utility.yul\":3107:3133   */\n  swap1\n  pop\n    /* \"#utility.yul\":3179:3188   */\n  dup2\n    /* \"#utility.yul\":3173:3177   */\n  dup2\n    /* \"#utility.yul\":3169:3189   */\n  sub\n    /* \"#utility.yul\":3165:3166   */\n  0x00\n    /* \"#utility.yul\":3154:3163   */\n  dup4\n    /* \"#utility.yul\":3150:3167   */\n  add\n    /* \"#utility.yul\":3143:3190   */\n  mstore\n    /* \"#utility.yul\":3207:3338   */\n  tag_56\n    /* \"#utility.yul\":3333:3337   */\n  dup2\n    /* \"#utility.yul\":3207:3338   */\n  tag_23\n  jump\t// in\ntag_56:\n    /* \"#utility.yul\":3199:3338   */\n  swap1\n  pop\n    /* \"#utility.yul\":2926:3345   */\n  swap2\n  swap1\n  pop\n  jump\t// out\n    /* \"georgs2NFTDutchAuction.sol\":163:1752  contract NFTDutchAuction {... */\ntag_13:\n  mload(0x80)\n  mload(0xa0)\n  mload(0xc0)\n  mload(0xe0)\n  mload(0x0100)\n  codecopy(0x00, dataOffset(sub_0), dataSize(sub_0))\n  0x00\n  assignImmutable(\"0x7749cc8014201da2069c21d93ba99c584b6f62d393fde534ed47eac227e31561\")\n  0x00\n  assignImmutable(\"0x58a280f74f57bf051c40f060139dc747e015be52f68c57e2c4ab2e4bd4146f43\")\n  0x00\n  assignImmutable(\"0x81e080ffc23e8b8d44dd829bc823229e92b893eb1d8f624419d3f5682eb97fc3\")\n  0x00\n  assignImmutable(\"0x1572b593c53d839d80004aa4b8c51211864104f06ace9e22be9c4365b50655ea\")\n  0x00\n  assignImmutable(\"0xf4c2b5de886427473655d4c904c743576dc2d53249b7535d96c06cc97ae7216b\")\n  return(0x00, dataSize(sub_0))\nstop\n\nsub_0: assembly {\n        /* \"georgs2NFTDutchAuction.sol\":163:1752  contract NFTDutchAuction {... */\n      mstore(0x40, 0x80)\n      jumpi(tag_1, lt(calldatasize, 0x04))\n      shr(0xe0, calldataload(0x00))\n      dup1\n      0x9c3962f0\n      gt\n      tag_12\n      jumpi\n      dup1\n      0x9c3962f0\n      eq\n      tag_7\n      jumpi\n      dup1\n      0xc6bc5182\n      eq\n      tag_8\n      jumpi\n      dup1\n      0xc7446565\n      eq\n      tag_9\n      jumpi\n      dup1\n      0xd6fbf202\n      eq\n      tag_10\n      jumpi\n      dup1\n      0xe6c0e6d5\n      eq\n      tag_11\n      jumpi\n      jump(tag_1)\n    tag_12:\n      dup1\n      0x08551a53\n      eq\n      tag_2\n      jumpi\n      dup1\n      0x13e98163\n      eq\n      tag_3\n      jumpi\n      dup1\n      0x47ccca02\n      eq\n      tag_4\n      jumpi\n      dup1\n      0x8622a689\n      eq\n      tag_5\n      jumpi\n      dup1\n      0x98d5fdca\n      eq\n      tag_6\n      jumpi\n    tag_1:\n      0x00\n      dup1\n      revert\n        /* \"georgs2NFTDutchAuction.sol\":295:334  address payable public immutable seller */\n    tag_2:\n      callvalue\n      dup1\n      iszero\n      tag_13\n      jumpi\n      0x00\n      dup1\n      revert\n    tag_13:\n      pop\n      tag_14\n      tag_15\n      jump\t// in\n    tag_14:\n      mload(0x40)\n      tag_16\n      swap2\n      swap1\n      tag_17\n      jump\t// in\n    tag_16:\n      mload(0x40)\n      dup1\n      swap2\n      sub\n      swap1\n      return\n        /* \"georgs2NFTDutchAuction.sol\":937:1055  function setNFT(address _nft, uint _nftId) public... */\n    tag_3:\n      callvalue\n      dup1\n      iszero\n      tag_18\n      jumpi\n      0x00\n      dup1\n      revert\n    tag_18:\n      pop\n      tag_19\n      0x04\n      dup1\n      calldatasize\n      sub\n      dup2\n      add\n      swap1\n      tag_20\n      swap2\n      swap1\n      tag_21\n      jump\t// in\n    tag_20:\n      tag_22\n      jump\t// in\n    tag_19:\n      stop\n        /* \"georgs2NFTDutchAuction.sol\":244:262  IERC721 public nft */\n    tag_4:\n      callvalue\n      dup1\n      iszero\n      tag_23\n      jumpi\n      0x00\n      dup1\n      revert\n    tag_23:\n      pop\n      tag_24\n      tag_25\n      jump\t// in\n    tag_24:\n      mload(0x40)\n      tag_26\n      swap2\n      swap1\n      tag_27\n      jump\t// in\n    tag_26:\n      mload(0x40)\n      dup1\n      swap2\n      sub\n      swap1\n      return\n        /* \"georgs2NFTDutchAuction.sol\":419:450  uint public immutable expiresAt */\n    tag_5:\n      callvalue\n      dup1\n      iszero\n      tag_28\n      jumpi\n      0x00\n      dup1\n      revert\n    tag_28:\n      pop\n      tag_29\n      tag_30\n      jump\t// in\n    tag_29:\n      mload(0x40)\n      tag_31\n      swap2\n      swap1\n      tag_32\n      jump\t// in\n    tag_31:\n      mload(0x40)\n      dup1\n      swap2\n      sub\n      swap1\n      return\n        /* \"georgs2NFTDutchAuction.sol\":1063:1276  function getPrice() public view returns (uint) ... */\n    tag_6:\n      callvalue\n      dup1\n      iszero\n      tag_33\n      jumpi\n      0x00\n      dup1\n      revert\n    tag_33:\n      pop\n      tag_34\n      tag_35\n      jump\t// in\n    tag_34:\n      mload(0x40)\n      tag_36\n      swap2\n      swap1\n      tag_32\n      jump\t// in\n    tag_36:\n      mload(0x40)\n      dup1\n      swap2\n      sub\n      swap1\n      return\n        /* \"georgs2NFTDutchAuction.sol\":1284:1749  function buyNow() external payable ... */\n    tag_7:\n      tag_37\n      tag_38\n      jump\t// in\n    tag_37:\n      stop\n        /* \"georgs2NFTDutchAuction.sol\":269:286  uint public nftId */\n    tag_8:\n      callvalue\n      dup1\n      iszero\n      tag_39\n      jumpi\n      0x00\n      dup1\n      revert\n    tag_39:\n      pop\n      tag_40\n      tag_41\n      jump\t// in\n    tag_40:\n      mload(0x40)\n      tag_42\n      swap2\n      swap1\n      tag_32\n      jump\t// in\n    tag_42:\n      mload(0x40)\n      dup1\n      swap2\n      sub\n      swap1\n      return\n        /* \"georgs2NFTDutchAuction.sol\":383:412  uint public immutable startAt */\n    tag_9:\n      callvalue\n      dup1\n      iszero\n      tag_43\n      jumpi\n      0x00\n      dup1\n      revert\n    tag_43:\n      pop\n      tag_44\n      tag_45\n      jump\t// in\n    tag_44:\n      mload(0x40)\n      tag_46\n      swap2\n      swap1\n      tag_32\n      jump\t// in\n    tag_46:\n      mload(0x40)\n      dup1\n      swap2\n      sub\n      swap1\n      return\n        /* \"georgs2NFTDutchAuction.sol\":341:376  uint public immutable startingPrice */\n    tag_10:\n      callvalue\n      dup1\n      iszero\n      tag_47\n      jumpi\n      0x00\n      dup1\n      revert\n    tag_47:\n      pop\n      tag_48\n      tag_49\n      jump\t// in\n    tag_48:\n      mload(0x40)\n      tag_50\n      swap2\n      swap1\n      tag_32\n      jump\t// in\n    tag_50:\n      mload(0x40)\n      dup1\n      swap2\n      sub\n      swap1\n      return\n        /* \"georgs2NFTDutchAuction.sol\":457:491  uint public immutable discountRate */\n    tag_11:\n      callvalue\n      dup1\n      iszero\n      tag_51\n      jumpi\n      0x00\n      dup1\n      revert\n    tag_51:\n      pop\n      tag_52\n      tag_53\n      jump\t// in\n    tag_52:\n      mload(0x40)\n      tag_54\n      swap2\n      swap1\n      tag_32\n      jump\t// in\n    tag_54:\n      mload(0x40)\n      dup1\n      swap2\n      sub\n      swap1\n      return\n        /* \"georgs2NFTDutchAuction.sol\":295:334  address payable public immutable seller */\n    tag_15:\n      immutable(\"0xf4c2b5de886427473655d4c904c743576dc2d53249b7535d96c06cc97ae7216b\")\n      dup2\n      jump\t// out\n        /* \"georgs2NFTDutchAuction.sol\":937:1055  function setNFT(address _nft, uint _nftId) public... */\n    tag_22:\n        /* \"georgs2NFTDutchAuction.sol\":1017:1021  _nft */\n      dup2\n        /* \"georgs2NFTDutchAuction.sol\":1003:1006  nft */\n      0x00\n      dup1\n        /* \"georgs2NFTDutchAuction.sol\":1003:1022  nft = IERC721(_nft) */\n      0x0100\n      exp\n      dup2\n      sload\n      dup2\n      0xffffffffffffffffffffffffffffffffffffffff\n      mul\n      not\n      and\n      swap1\n      dup4\n      0xffffffffffffffffffffffffffffffffffffffff\n      and\n      mul\n      or\n      swap1\n      sstore\n      pop\n        /* \"georgs2NFTDutchAuction.sol\":1041:1047  _nftId */\n      dup1\n        /* \"georgs2NFTDutchAuction.sol\":1033:1038  nftId */\n      0x01\n        /* \"georgs2NFTDutchAuction.sol\":1033:1047  nftId = _nftId */\n      dup2\n      swap1\n      sstore\n      pop\n        /* \"georgs2NFTDutchAuction.sol\":937:1055  function setNFT(address _nft, uint _nftId) public... */\n      pop\n      pop\n      jump\t// out\n        /* \"georgs2NFTDutchAuction.sol\":244:262  IERC721 public nft */\n    tag_25:\n      0x00\n      dup1\n      sload\n      swap1\n      0x0100\n      exp\n      swap1\n      div\n      0xffffffffffffffffffffffffffffffffffffffff\n      and\n      dup2\n      jump\t// out\n        /* \"georgs2NFTDutchAuction.sol\":419:450  uint public immutable expiresAt */\n    tag_30:\n      immutable(\"0x58a280f74f57bf051c40f060139dc747e015be52f68c57e2c4ab2e4bd4146f43\")\n      dup2\n      jump\t// out\n        /* \"georgs2NFTDutchAuction.sol\":1063:1276  function getPrice() public view returns (uint) ... */\n    tag_35:\n        /* \"georgs2NFTDutchAuction.sol\":1104:1108  uint */\n      0x00\n        /* \"georgs2NFTDutchAuction.sol\":1127:1142  uint timePassed */\n      dup1\n        /* \"georgs2NFTDutchAuction.sol\":1163:1170  startAt */\n      immutable(\"0x81e080ffc23e8b8d44dd829bc823229e92b893eb1d8f624419d3f5682eb97fc3\")\n        /* \"georgs2NFTDutchAuction.sol\":1145:1160  block.timestamp */\n      timestamp\n        /* \"georgs2NFTDutchAuction.sol\":1145:1170  block.timestamp - startAt */\n      tag_57\n      swap2\n      swap1\n      tag_58\n      jump\t// in\n    tag_57:\n        /* \"georgs2NFTDutchAuction.sol\":1127:1170  uint timePassed = block.timestamp - startAt */\n      swap1\n      pop\n        /* \"georgs2NFTDutchAuction.sol\":1181:1195  uint priceDrop */\n      0x00\n        /* \"georgs2NFTDutchAuction.sol\":1213:1223  timePassed */\n      dup2\n        /* \"georgs2NFTDutchAuction.sol\":1198:1210  discountRate */\n      immutable(\"0x7749cc8014201da2069c21d93ba99c584b6f62d393fde534ed47eac227e31561\")\n        /* \"georgs2NFTDutchAuction.sol\":1198:1223  discountRate * timePassed */\n      tag_59\n      swap2\n      swap1\n      tag_60\n      jump\t// in\n    tag_59:\n        /* \"georgs2NFTDutchAuction.sol\":1181:1223  uint priceDrop = discountRate * timePassed */\n      swap1\n      pop\n        /* \"georgs2NFTDutchAuction.sol\":1259:1268  priceDrop */\n      dup1\n        /* \"georgs2NFTDutchAuction.sol\":1243:1256  startingPrice */\n      immutable(\"0x1572b593c53d839d80004aa4b8c51211864104f06ace9e22be9c4365b50655ea\")\n        /* \"georgs2NFTDutchAuction.sol\":1243:1268  startingPrice - priceDrop */\n      tag_61\n      swap2\n      swap1\n      tag_58\n      jump\t// in\n    tag_61:\n        /* \"georgs2NFTDutchAuction.sol\":1236:1268  return startingPrice - priceDrop */\n      swap3\n      pop\n      pop\n      pop\n        /* \"georgs2NFTDutchAuction.sol\":1063:1276  function getPrice() public view returns (uint) ... */\n      swap1\n      jump\t// out\n        /* \"georgs2NFTDutchAuction.sol\":1284:1749  function buyNow() external payable ... */\n    tag_38:\n        /* \"georgs2NFTDutchAuction.sol\":1362:1371  expiresAt */\n      immutable(\"0x58a280f74f57bf051c40f060139dc747e015be52f68c57e2c4ab2e4bd4146f43\")\n        /* \"georgs2NFTDutchAuction.sol\":1344:1359  block.timestamp */\n      timestamp\n        /* \"georgs2NFTDutchAuction.sol\":1344:1371  block.timestamp < expiresAt */\n      lt\n        /* \"georgs2NFTDutchAuction.sol\":1336:1408  require(block.timestamp < expiresAt, \"Time for the auction has expired\") */\n      tag_63\n      jumpi\n      mload(0x40)\n      0x08c379a000000000000000000000000000000000000000000000000000000000\n      dup2\n      mstore\n      0x04\n      add\n      tag_64\n      swap1\n      tag_65\n      jump\t// in\n    tag_64:\n      mload(0x40)\n      dup1\n      swap2\n      sub\n      swap1\n      revert\n    tag_63:\n        /* \"georgs2NFTDutchAuction.sol\":1419:1429  uint price */\n      0x00\n        /* \"georgs2NFTDutchAuction.sol\":1432:1442  getPrice() */\n      tag_66\n        /* \"georgs2NFTDutchAuction.sol\":1432:1440  getPrice */\n      tag_35\n        /* \"georgs2NFTDutchAuction.sol\":1432:1442  getPrice() */\n      jump\t// in\n    tag_66:\n        /* \"georgs2NFTDutchAuction.sol\":1419:1442  uint price = getPrice() */\n      swap1\n      pop\n        /* \"georgs2NFTDutchAuction.sol\":1474:1479  price */\n      dup1\n        /* \"georgs2NFTDutchAuction.sol\":1461:1470  msg.value */\n      callvalue\n        /* \"georgs2NFTDutchAuction.sol\":1461:1479  msg.value >= price */\n      lt\n      iszero\n        /* \"georgs2NFTDutchAuction.sol\":1453:1518  require(msg.value >= price, \"Not enough currency to buy the NFT\") */\n      tag_67\n      jumpi\n      mload(0x40)\n      0x08c379a000000000000000000000000000000000000000000000000000000000\n      dup2\n      mstore\n      0x04\n      add\n      tag_68\n      swap1\n      tag_69\n      jump\t// in\n    tag_68:\n      mload(0x40)\n      dup1\n      swap2\n      sub\n      swap1\n      revert\n    tag_67:\n        /* \"georgs2NFTDutchAuction.sol\":1531:1534  nft */\n      0x00\n      dup1\n      sload\n      swap1\n      0x0100\n      exp\n      swap1\n      div\n      0xffffffffffffffffffffffffffffffffffffffff\n      and\n        /* \"georgs2NFTDutchAuction.sol\":1531:1547  nft.transferFrom */\n      0xffffffffffffffffffffffffffffffffffffffff\n      and\n      0x23b872dd\n        /* \"georgs2NFTDutchAuction.sol\":1548:1554  seller */\n      immutable(\"0xf4c2b5de886427473655d4c904c743576dc2d53249b7535d96c06cc97ae7216b\")\n        /* \"georgs2NFTDutchAuction.sol\":1556:1566  msg.sender */\n      caller\n        /* \"georgs2NFTDutchAuction.sol\":1568:1573  nftId */\n      sload(0x01)\n        /* \"georgs2NFTDutchAuction.sol\":1531:1574  nft.transferFrom(seller, msg.sender, nftId) */\n      mload(0x40)\n      dup5\n      0xffffffff\n      and\n      0xe0\n      shl\n      dup2\n      mstore\n      0x04\n      add\n      tag_70\n      swap4\n      swap3\n      swap2\n      swap1\n      tag_71\n      jump\t// in\n    tag_70:\n      0x00\n      mload(0x40)\n      dup1\n      dup4\n      sub\n      dup2\n      0x00\n      dup8\n      dup1\n      extcodesize\n      iszero\n      dup1\n      iszero\n      tag_72\n      jumpi\n      0x00\n      dup1\n      revert\n    tag_72:\n      pop\n      gas\n      call\n      iszero\n      dup1\n      iszero\n      tag_74\n      jumpi\n      returndatasize\n      0x00\n      dup1\n      returndatacopy\n      revert(0x00, returndatasize)\n    tag_74:\n      pop\n      pop\n      pop\n      pop\n        /* \"georgs2NFTDutchAuction.sol\":1585:1596  uint refund */\n      0x00\n        /* \"georgs2NFTDutchAuction.sol\":1609:1614  price */\n      dup2\n        /* \"georgs2NFTDutchAuction.sol\":1599:1608  msg.value */\n      callvalue\n        /* \"georgs2NFTDutchAuction.sol\":1599:1614  msg.value-price */\n      tag_75\n      swap2\n      swap1\n      tag_58\n      jump\t// in\n    tag_75:\n        /* \"georgs2NFTDutchAuction.sol\":1585:1614  uint refund = msg.value-price */\n      swap1\n      pop\n        /* \"georgs2NFTDutchAuction.sol\":1636:1637  0 */\n      0x00\n        /* \"georgs2NFTDutchAuction.sol\":1629:1635  refund */\n      dup2\n        /* \"georgs2NFTDutchAuction.sol\":1629:1637  refund>0 */\n      gt\n        /* \"georgs2NFTDutchAuction.sol\":1625:1711  if (refund>0)... */\n      iszero\n      tag_76\n      jumpi\n        /* \"georgs2NFTDutchAuction.sol\":1671:1681  msg.sender */\n      caller\n        /* \"georgs2NFTDutchAuction.sol\":1663:1691  payable(msg.sender).transfer */\n      0xffffffffffffffffffffffffffffffffffffffff\n      and\n        /* \"georgs2NFTDutchAuction.sol\":1663:1699  payable(msg.sender).transfer(refund) */\n      0x08fc\n        /* \"georgs2NFTDutchAuction.sol\":1692:1698  refund */\n      dup3\n        /* \"georgs2NFTDutchAuction.sol\":1663:1699  payable(msg.sender).transfer(refund) */\n      swap1\n      dup2\n      iszero\n      mul\n      swap1\n      mload(0x40)\n      0x00\n      mload(0x40)\n      dup1\n      dup4\n      sub\n      dup2\n      dup6\n      dup9\n      dup9\n      call\n      swap4\n      pop\n      pop\n      pop\n      pop\n      iszero\n      dup1\n      iszero\n      tag_78\n      jumpi\n      returndatasize\n      0x00\n      dup1\n      returndatacopy\n      revert(0x00, returndatasize)\n    tag_78:\n      pop\n        /* \"georgs2NFTDutchAuction.sol\":1625:1711  if (refund>0)... */\n    tag_76:\n        /* \"georgs2NFTDutchAuction.sol\":1734:1740  seller */\n      immutable(\"0xf4c2b5de886427473655d4c904c743576dc2d53249b7535d96c06cc97ae7216b\")\n        /* \"georgs2NFTDutchAuction.sol\":1721:1741  selfdestruct(seller) */\n      0xffffffffffffffffffffffffffffffffffffffff\n      and\n      selfdestruct\n        /* \"georgs2NFTDutchAuction.sol\":269:286  uint public nftId */\n    tag_41:\n      sload(0x01)\n      dup2\n      jump\t// out\n        /* \"georgs2NFTDutchAuction.sol\":383:412  uint public immutable startAt */\n    tag_45:\n      immutable(\"0x81e080ffc23e8b8d44dd829bc823229e92b893eb1d8f624419d3f5682eb97fc3\")\n      dup2\n      jump\t// out\n        /* \"georgs2NFTDutchAuction.sol\":341:376  uint public immutable startingPrice */\n    tag_49:\n      immutable(\"0x1572b593c53d839d80004aa4b8c51211864104f06ace9e22be9c4365b50655ea\")\n      dup2\n      jump\t// out\n        /* \"georgs2NFTDutchAuction.sol\":457:491  uint public immutable discountRate */\n    tag_53:\n      immutable(\"0x7749cc8014201da2069c21d93ba99c584b6f62d393fde534ed47eac227e31561\")\n      dup2\n      jump\t// out\n        /* \"#utility.yul\":7:133   */\n    tag_79:\n        /* \"#utility.yul\":44:51   */\n      0x00\n        /* \"#utility.yul\":84:126   */\n      0xffffffffffffffffffffffffffffffffffffffff\n        /* \"#utility.yul\":77:82   */\n      dup3\n        /* \"#utility.yul\":73:127   */\n      and\n        /* \"#utility.yul\":62:127   */\n      swap1\n      pop\n        /* \"#utility.yul\":7:133   */\n      swap2\n      swap1\n      pop\n      jump\t// out\n        /* \"#utility.yul\":139:243   */\n    tag_80:\n        /* \"#utility.yul\":184:191   */\n      0x00\n        /* \"#utility.yul\":213:237   */\n      tag_109\n        /* \"#utility.yul\":231:236   */\n      dup3\n        /* \"#utility.yul\":213:237   */\n      tag_79\n      jump\t// in\n    tag_109:\n        /* \"#utility.yul\":202:237   */\n      swap1\n      pop\n        /* \"#utility.yul\":139:243   */\n      swap2\n      swap1\n      pop\n      jump\t// out\n        /* \"#utility.yul\":249:391   */\n    tag_81:\n        /* \"#utility.yul\":352:384   */\n      tag_111\n        /* \"#utility.yul\":378:383   */\n      dup2\n        /* \"#utility.yul\":352:384   */\n      tag_80\n      jump\t// in\n    tag_111:\n        /* \"#utility.yul\":347:350   */\n      dup3\n        /* \"#utility.yul\":340:385   */\n      mstore\n        /* \"#utility.yul\":249:391   */\n      pop\n      pop\n      jump\t// out\n        /* \"#utility.yul\":397:651   */\n    tag_17:\n        /* \"#utility.yul\":506:510   */\n      0x00\n        /* \"#utility.yul\":544:546   */\n      0x20\n        /* \"#utility.yul\":533:542   */\n      dup3\n        /* \"#utility.yul\":529:547   */\n      add\n        /* \"#utility.yul\":521:547   */\n      swap1\n      pop\n        /* \"#utility.yul\":557:644   */\n      tag_113\n        /* \"#utility.yul\":641:642   */\n      0x00\n        /* \"#utility.yul\":630:639   */\n      dup4\n        /* \"#utility.yul\":626:643   */\n      add\n        /* \"#utility.yul\":617:623   */\n      dup5\n        /* \"#utility.yul\":557:644   */\n      tag_81\n      jump\t// in\n    tag_113:\n        /* \"#utility.yul\":397:651   */\n      swap3\n      swap2\n      pop\n      pop\n      jump\t// out\n        /* \"#utility.yul\":738:855   */\n    tag_83:\n        /* \"#utility.yul\":847:848   */\n      0x00\n        /* \"#utility.yul\":844:845   */\n      dup1\n        /* \"#utility.yul\":837:849   */\n      revert\n        /* \"#utility.yul\":984:1080   */\n    tag_85:\n        /* \"#utility.yul\":1021:1028   */\n      0x00\n        /* \"#utility.yul\":1050:1074   */\n      tag_118\n        /* \"#utility.yul\":1068:1073   */\n      dup3\n        /* \"#utility.yul\":1050:1074   */\n      tag_79\n      jump\t// in\n    tag_118:\n        /* \"#utility.yul\":1039:1074   */\n      swap1\n      pop\n        /* \"#utility.yul\":984:1080   */\n      swap2\n      swap1\n      pop\n      jump\t// out\n        /* \"#utility.yul\":1086:1208   */\n    tag_86:\n        /* \"#utility.yul\":1159:1183   */\n      tag_120\n        /* \"#utility.yul\":1177:1182   */\n      dup2\n        /* \"#utility.yul\":1159:1183   */\n      tag_85\n      jump\t// in\n    tag_120:\n        /* \"#utility.yul\":1152:1157   */\n      dup2\n        /* \"#utility.yul\":1149:1184   */\n      eq\n        /* \"#utility.yul\":1139:1202   */\n      tag_121\n      jumpi\n        /* \"#utility.yul\":1198:1199   */\n      0x00\n        /* \"#utility.yul\":1195:1196   */\n      dup1\n        /* \"#utility.yul\":1188:1200   */\n      revert\n        /* \"#utility.yul\":1139:1202   */\n    tag_121:\n        /* \"#utility.yul\":1086:1208   */\n      pop\n      jump\t// out\n        /* \"#utility.yul\":1214:1353   */\n    tag_87:\n        /* \"#utility.yul\":1260:1265   */\n      0x00\n        /* \"#utility.yul\":1298:1304   */\n      dup2\n        /* \"#utility.yul\":1285:1305   */\n      calldataload\n        /* \"#utility.yul\":1276:1305   */\n      swap1\n      pop\n        /* \"#utility.yul\":1314:1347   */\n      tag_123\n        /* \"#utility.yul\":1341:1346   */\n      dup2\n        /* \"#utility.yul\":1314:1347   */\n      tag_86\n      jump\t// in\n    tag_123:\n        /* \"#utility.yul\":1214:1353   */\n      swap3\n      swap2\n      pop\n      pop\n      jump\t// out\n        /* \"#utility.yul\":1359:1436   */\n    tag_88:\n        /* \"#utility.yul\":1396:1403   */\n      0x00\n        /* \"#utility.yul\":1425:1430   */\n      dup2\n        /* \"#utility.yul\":1414:1430   */\n      swap1\n      pop\n        /* \"#utility.yul\":1359:1436   */\n      swap2\n      swap1\n      pop\n      jump\t// out\n        /* \"#utility.yul\":1442:1564   */\n    tag_89:\n        /* \"#utility.yul\":1515:1539   */\n      tag_126\n        /* \"#utility.yul\":1533:1538   */\n      dup2\n        /* \"#utility.yul\":1515:1539   */\n      tag_88\n      jump\t// in\n    tag_126:\n        /* \"#utility.yul\":1508:1513   */\n      dup2\n        /* \"#utility.yul\":1505:1540   */\n      eq\n        /* \"#utility.yul\":1495:1558   */\n      tag_127\n      jumpi\n        /* \"#utility.yul\":1554:1555   */\n      0x00\n        /* \"#utility.yul\":1551:1552   */\n      dup1\n        /* \"#utility.yul\":1544:1556   */\n      revert\n        /* \"#utility.yul\":1495:1558   */\n    tag_127:\n        /* \"#utility.yul\":1442:1564   */\n      pop\n      jump\t// out\n        /* \"#utility.yul\":1570:1709   */\n    tag_90:\n        /* \"#utility.yul\":1616:1621   */\n      0x00\n        /* \"#utility.yul\":1654:1660   */\n      dup2\n        /* \"#utility.yul\":1641:1661   */\n      calldataload\n        /* \"#utility.yul\":1632:1661   */\n      swap1\n      pop\n        /* \"#utility.yul\":1670:1703   */\n      tag_129\n        /* \"#utility.yul\":1697:1702   */\n      dup2\n        /* \"#utility.yul\":1670:1703   */\n      tag_89\n      jump\t// in\n    tag_129:\n        /* \"#utility.yul\":1570:1709   */\n      swap3\n      swap2\n      pop\n      pop\n      jump\t// out\n        /* \"#utility.yul\":1715:2189   */\n    tag_21:\n        /* \"#utility.yul\":1783:1789   */\n      0x00\n        /* \"#utility.yul\":1791:1797   */\n      dup1\n        /* \"#utility.yul\":1840:1842   */\n      0x40\n        /* \"#utility.yul\":1828:1837   */\n      dup4\n        /* \"#utility.yul\":1819:1826   */\n      dup6\n        /* \"#utility.yul\":1815:1838   */\n      sub\n        /* \"#utility.yul\":1811:1843   */\n      slt\n        /* \"#utility.yul\":1808:1927   */\n      iszero\n      tag_131\n      jumpi\n        /* \"#utility.yul\":1846:1925   */\n      tag_132\n      tag_83\n      jump\t// in\n    tag_132:\n        /* \"#utility.yul\":1808:1927   */\n    tag_131:\n        /* \"#utility.yul\":1966:1967   */\n      0x00\n        /* \"#utility.yul\":1991:2044   */\n      tag_133\n        /* \"#utility.yul\":2036:2043   */\n      dup6\n        /* \"#utility.yul\":2027:2033   */\n      dup3\n        /* \"#utility.yul\":2016:2025   */\n      dup7\n        /* \"#utility.yul\":2012:2034   */\n      add\n        /* \"#utility.yul\":1991:2044   */\n      tag_87\n      jump\t// in\n    tag_133:\n        /* \"#utility.yul\":1981:2044   */\n      swap3\n      pop\n        /* \"#utility.yul\":1937:2054   */\n      pop\n        /* \"#utility.yul\":2093:2095   */\n      0x20\n        /* \"#utility.yul\":2119:2172   */\n      tag_134\n        /* \"#utility.yul\":2164:2171   */\n      dup6\n        /* \"#utility.yul\":2155:2161   */\n      dup3\n        /* \"#utility.yul\":2144:2153   */\n      dup7\n        /* \"#utility.yul\":2140:2162   */\n      add\n        /* \"#utility.yul\":2119:2172   */\n      tag_90\n      jump\t// in\n    tag_134:\n        /* \"#utility.yul\":2109:2172   */\n      swap2\n      pop\n        /* \"#utility.yul\":2064:2182   */\n      pop\n        /* \"#utility.yul\":1715:2189   */\n      swap3\n      pop\n      swap3\n      swap1\n      pop\n      jump\t// out\n        /* \"#utility.yul\":2195:2255   */\n    tag_91:\n        /* \"#utility.yul\":2223:2226   */\n      0x00\n        /* \"#utility.yul\":2244:2249   */\n      dup2\n        /* \"#utility.yul\":2237:2249   */\n      swap1\n      pop\n        /* \"#utility.yul\":2195:2255   */\n      swap2\n      swap1\n      pop\n      jump\t// out\n        /* \"#utility.yul\":2261:2403   */\n    tag_92:\n        /* \"#utility.yul\":2311:2320   */\n      0x00\n        /* \"#utility.yul\":2344:2397   */\n      tag_137\n        /* \"#utility.yul\":2362:2396   */\n      tag_138\n        /* \"#utility.yul\":2371:2395   */\n      tag_139\n        /* \"#utility.yul\":2389:2394   */\n      dup5\n        /* \"#utility.yul\":2371:2395   */\n      tag_79\n      jump\t// in\n    tag_139:\n        /* \"#utility.yul\":2362:2396   */\n      tag_91\n      jump\t// in\n    tag_138:\n        /* \"#utility.yul\":2344:2397   */\n      tag_79\n      jump\t// in\n    tag_137:\n        /* \"#utility.yul\":2331:2397   */\n      swap1\n      pop\n        /* \"#utility.yul\":2261:2403   */\n      swap2\n      swap1\n      pop\n      jump\t// out\n        /* \"#utility.yul\":2409:2535   */\n    tag_93:\n        /* \"#utility.yul\":2459:2468   */\n      0x00\n        /* \"#utility.yul\":2492:2529   */\n      tag_141\n        /* \"#utility.yul\":2523:2528   */\n      dup3\n        /* \"#utility.yul\":2492:2529   */\n      tag_92\n      jump\t// in\n    tag_141:\n        /* \"#utility.yul\":2479:2529   */\n      swap1\n      pop\n        /* \"#utility.yul\":2409:2535   */\n      swap2\n      swap1\n      pop\n      jump\t// out\n        /* \"#utility.yul\":2541:2681   */\n    tag_94:\n        /* \"#utility.yul\":2605:2614   */\n      0x00\n        /* \"#utility.yul\":2638:2675   */\n      tag_143\n        /* \"#utility.yul\":2669:2674   */\n      dup3\n        /* \"#utility.yul\":2638:2675   */\n      tag_93\n      jump\t// in\n    tag_143:\n        /* \"#utility.yul\":2625:2675   */\n      swap1\n      pop\n        /* \"#utility.yul\":2541:2681   */\n      swap2\n      swap1\n      pop\n      jump\t// out\n        /* \"#utility.yul\":2687:2846   */\n    tag_95:\n        /* \"#utility.yul\":2788:2839   */\n      tag_145\n        /* \"#utility.yul\":2833:2838   */\n      dup2\n        /* \"#utility.yul\":2788:2839   */\n      tag_94\n      jump\t// in\n    tag_145:\n        /* \"#utility.yul\":2783:2786   */\n      dup3\n        /* \"#utility.yul\":2776:2840   */\n      mstore\n        /* \"#utility.yul\":2687:2846   */\n      pop\n      pop\n      jump\t// out\n        /* \"#utility.yul\":2852:3102   */\n    tag_27:\n        /* \"#utility.yul\":2959:2963   */\n      0x00\n        /* \"#utility.yul\":2997:2999   */\n      0x20\n        /* \"#utility.yul\":2986:2995   */\n      dup3\n        /* \"#utility.yul\":2982:3000   */\n      add\n        /* \"#utility.yul\":2974:3000   */\n      swap1\n      pop\n        /* \"#utility.yul\":3010:3095   */\n      tag_147\n        /* \"#utility.yul\":3092:3093   */\n      0x00\n        /* \"#utility.yul\":3081:3090   */\n      dup4\n        /* \"#utility.yul\":3077:3094   */\n      add\n        /* \"#utility.yul\":3068:3074   */\n      dup5\n        /* \"#utility.yul\":3010:3095   */\n      tag_95\n      jump\t// in\n    tag_147:\n        /* \"#utility.yul\":2852:3102   */\n      swap3\n      swap2\n      pop\n      pop\n      jump\t// out\n        /* \"#utility.yul\":3108:3226   */\n    tag_96:\n        /* \"#utility.yul\":3195:3219   */\n      tag_149\n        /* \"#utility.yul\":3213:3218   */\n      dup2\n        /* \"#utility.yul\":3195:3219   */\n      tag_88\n      jump\t// in\n    tag_149:\n        /* \"#utility.yul\":3190:3193   */\n      dup3\n        /* \"#utility.yul\":3183:3220   */\n      mstore\n        /* \"#utility.yul\":3108:3226   */\n      pop\n      pop\n      jump\t// out\n        /* \"#utility.yul\":3232:3454   */\n    tag_32:\n        /* \"#utility.yul\":3325:3329   */\n      0x00\n        /* \"#utility.yul\":3363:3365   */\n      0x20\n        /* \"#utility.yul\":3352:3361   */\n      dup3\n        /* \"#utility.yul\":3348:3366   */\n      add\n        /* \"#utility.yul\":3340:3366   */\n      swap1\n      pop\n        /* \"#utility.yul\":3376:3447   */\n      tag_151\n        /* \"#utility.yul\":3444:3445   */\n      0x00\n        /* \"#utility.yul\":3433:3442   */\n      dup4\n        /* \"#utility.yul\":3429:3446   */\n      add\n        /* \"#utility.yul\":3420:3426   */\n      dup5\n        /* \"#utility.yul\":3376:3447   */\n      tag_96\n      jump\t// in\n    tag_151:\n        /* \"#utility.yul\":3232:3454   */\n      swap3\n      swap2\n      pop\n      pop\n      jump\t// out\n        /* \"#utility.yul\":3460:3640   */\n    tag_97:\n        /* \"#utility.yul\":3508:3585   */\n      0x4e487b7100000000000000000000000000000000000000000000000000000000\n        /* \"#utility.yul\":3505:3506   */\n      0x00\n        /* \"#utility.yul\":3498:3586   */\n      mstore\n        /* \"#utility.yul\":3605:3609   */\n      0x11\n        /* \"#utility.yul\":3602:3603   */\n      0x04\n        /* \"#utility.yul\":3595:3610   */\n      mstore\n        /* \"#utility.yul\":3629:3633   */\n      0x24\n        /* \"#utility.yul\":3626:3627   */\n      0x00\n        /* \"#utility.yul\":3619:3634   */\n      revert\n        /* \"#utility.yul\":3646:3837   */\n    tag_58:\n        /* \"#utility.yul\":3686:3690   */\n      0x00\n        /* \"#utility.yul\":3706:3726   */\n      tag_154\n        /* \"#utility.yul\":3724:3725   */\n      dup3\n        /* \"#utility.yul\":3706:3726   */\n      tag_88\n      jump\t// in\n    tag_154:\n        /* \"#utility.yul\":3701:3726   */\n      swap2\n      pop\n        /* \"#utility.yul\":3740:3760   */\n      tag_155\n        /* \"#utility.yul\":3758:3759   */\n      dup4\n        /* \"#utility.yul\":3740:3760   */\n      tag_88\n      jump\t// in\n    tag_155:\n        /* \"#utility.yul\":3735:3760   */\n      swap3\n      pop\n        /* \"#utility.yul\":3779:3780   */\n      dup3\n        /* \"#utility.yul\":3776:3777   */\n      dup3\n        /* \"#utility.yul\":3773:3781   */\n      lt\n        /* \"#utility.yul\":3770:3804   */\n      iszero\n      tag_156\n      jumpi\n        /* \"#utility.yul\":3784:3802   */\n      tag_157\n      tag_97\n      jump\t// in\n    tag_157:\n        /* \"#utility.yul\":3770:3804   */\n    tag_156:\n        /* \"#utility.yul\":3829:3830   */\n      dup3\n        /* \"#utility.yul\":3826:3827   */\n      dup3\n        /* \"#utility.yul\":3822:3831   */\n      sub\n        /* \"#utility.yul\":3814:3831   */\n      swap1\n      pop\n        /* \"#utility.yul\":3646:3837   */\n      swap3\n      swap2\n      pop\n      pop\n      jump\t// out\n        /* \"#utility.yul\":3843:4191   */\n    tag_60:\n        /* \"#utility.yul\":3883:3890   */\n      0x00\n        /* \"#utility.yul\":3906:3926   */\n      tag_159\n        /* \"#utility.yul\":3924:3925   */\n      dup3\n        /* \"#utility.yul\":3906:3926   */\n      tag_88\n      jump\t// in\n    tag_159:\n        /* \"#utility.yul\":3901:3926   */\n      swap2\n      pop\n        /* \"#utility.yul\":3940:3960   */\n      tag_160\n        /* \"#utility.yul\":3958:3959   */\n      dup4\n        /* \"#utility.yul\":3940:3960   */\n      tag_88\n      jump\t// in\n    tag_160:\n        /* \"#utility.yul\":3935:3960   */\n      swap3\n      pop\n        /* \"#utility.yul\":4128:4129   */\n      dup2\n        /* \"#utility.yul\":4060:4126   */\n      0xffffffffffffffffffffffffffffffffffffffffffffffffffffffffffffffff\n        /* \"#utility.yul\":4056:4130   */\n      div\n        /* \"#utility.yul\":4053:4054   */\n      dup4\n        /* \"#utility.yul\":4050:4131   */\n      gt\n        /* \"#utility.yul\":4045:4046   */\n      dup3\n        /* \"#utility.yul\":4038:4047   */\n      iszero\n        /* \"#utility.yul\":4031:4048   */\n      iszero\n        /* \"#utility.yul\":4027:4132   */\n      and\n        /* \"#utility.yul\":4024:4155   */\n      iszero\n      tag_161\n      jumpi\n        /* \"#utility.yul\":4135:4153   */\n      tag_162\n      tag_97\n      jump\t// in\n    tag_162:\n        /* \"#utility.yul\":4024:4155   */\n    tag_161:\n        /* \"#utility.yul\":4183:4184   */\n      dup3\n        /* \"#utility.yul\":4180:4181   */\n      dup3\n        /* \"#utility.yul\":4176:4185   */\n      mul\n        /* \"#utility.yul\":4165:4185   */\n      swap1\n      pop\n        /* \"#utility.yul\":3843:4191   */\n      swap3\n      swap2\n      pop\n      pop\n      jump\t// out\n        /* \"#utility.yul\":4197:4366   */\n    tag_98:\n        /* \"#utility.yul\":4281:4292   */\n      0x00\n        /* \"#utility.yul\":4315:4321   */\n      dup3\n        /* \"#utility.yul\":4310:4313   */\n      dup3\n        /* \"#utility.yul\":4303:4322   */\n      mstore\n        /* \"#utility.yul\":4355:4359   */\n      0x20\n        /* \"#utility.yul\":4350:4353   */\n      dup3\n        /* \"#utility.yul\":4346:4360   */\n      add\n        /* \"#utility.yul\":4331:4360   */\n      swap1\n      pop\n        /* \"#utility.yul\":4197:4366   */\n      swap3\n      swap2\n      pop\n      pop\n      jump\t// out\n        /* \"#utility.yul\":4372:4554   */\n    tag_99:\n        /* \"#utility.yul\":4512:4546   */\n      0x54696d6520666f72207468652061756374696f6e206861732065787069726564\n        /* \"#utility.yul\":4508:4509   */\n      0x00\n        /* \"#utility.yul\":4500:4506   */\n      dup3\n        /* \"#utility.yul\":4496:4510   */\n      add\n        /* \"#utility.yul\":4489:4547   */\n      mstore\n        /* \"#utility.yul\":4372:4554   */\n      pop\n      jump\t// out\n        /* \"#utility.yul\":4560:4926   */\n    tag_100:\n        /* \"#utility.yul\":4702:4705   */\n      0x00\n        /* \"#utility.yul\":4723:4790   */\n      tag_166\n        /* \"#utility.yul\":4787:4789   */\n      0x20\n        /* \"#utility.yul\":4782:4785   */\n      dup4\n        /* \"#utility.yul\":4723:4790   */\n      tag_98\n      jump\t// in\n    tag_166:\n        /* \"#utility.yul\":4716:4790   */\n      swap2\n      pop\n        /* \"#utility.yul\":4799:4892   */\n      tag_167\n        /* \"#utility.yul\":4888:4891   */\n      dup3\n        /* \"#utility.yul\":4799:4892   */\n      tag_99\n      jump\t// in\n    tag_167:\n        /* \"#utility.yul\":4917:4919   */\n      0x20\n        /* \"#utility.yul\":4912:4915   */\n      dup3\n        /* \"#utility.yul\":4908:4920   */\n      add\n        /* \"#utility.yul\":4901:4920   */\n      swap1\n      pop\n        /* \"#utility.yul\":4560:4926   */\n      swap2\n      swap1\n      pop\n      jump\t// out\n        /* \"#utility.yul\":4932:5351   */\n    tag_65:\n        /* \"#utility.yul\":5098:5102   */\n      0x00\n        /* \"#utility.yul\":5136:5138   */\n      0x20\n        /* \"#utility.yul\":5125:5134   */\n      dup3\n        /* \"#utility.yul\":5121:5139   */\n      add\n        /* \"#utility.yul\":5113:5139   */\n      swap1\n      pop\n        /* \"#utility.yul\":5185:5194   */\n      dup2\n        /* \"#utility.yul\":5179:5183   */\n      dup2\n        /* \"#utility.yul\":5175:5195   */\n      sub\n        /* \"#utility.yul\":5171:5172   */\n      0x00\n        /* \"#utility.yul\":5160:5169   */\n      dup4\n        /* \"#utility.yul\":5156:5173   */\n      add\n        /* \"#utility.yul\":5149:5196   */\n      mstore\n        /* \"#utility.yul\":5213:5344   */\n      tag_169\n        /* \"#utility.yul\":5339:5343   */\n      dup2\n        /* \"#utility.yul\":5213:5344   */\n      tag_100\n      jump\t// in\n    tag_169:\n        /* \"#utility.yul\":5205:5344   */\n      swap1\n      pop\n        /* \"#utility.yul\":4932:5351   */\n      swap2\n      swap1\n      pop\n      jump\t// out\n        /* \"#utility.yul\":5357:5578   */\n    tag_101:\n        /* \"#utility.yul\":5497:5531   */\n      0x4e6f7420656e6f7567682063757272656e637920746f2062757920746865204e\n        /* \"#utility.yul\":5493:5494   */\n      0x00\n        /* \"#utility.yul\":5485:5491   */\n      dup3\n        /* \"#utility.yul\":5481:5495   */\n      add\n        /* \"#utility.yul\":5474:5532   */\n      mstore\n        /* \"#utility.yul\":5566:5570   */\n      0x4654000000000000000000000000000000000000000000000000000000000000\n        /* \"#utility.yul\":5561:5563   */\n      0x20\n        /* \"#utility.yul\":5553:5559   */\n      dup3\n        /* \"#utility.yul\":5549:5564   */\n      add\n        /* \"#utility.yul\":5542:5571   */\n      mstore\n        /* \"#utility.yul\":5357:5578   */\n      pop\n      jump\t// out\n        /* \"#utility.yul\":5584:5950   */\n    tag_102:\n        /* \"#utility.yul\":5726:5729   */\n      0x00\n        /* \"#utility.yul\":5747:5814   */\n      tag_172\n        /* \"#utility.yul\":5811:5813   */\n      0x22\n        /* \"#utility.yul\":5806:5809   */\n      dup4\n        /* \"#utility.yul\":5747:5814   */\n      tag_98\n      jump\t// in\n    tag_172:\n        /* \"#utility.yul\":5740:5814   */\n      swap2\n      pop\n        /* \"#utility.yul\":5823:5916   */\n      tag_173\n        /* \"#utility.yul\":5912:5915   */\n      dup3\n        /* \"#utility.yul\":5823:5916   */\n      tag_101\n      jump\t// in\n    tag_173:\n        /* \"#utility.yul\":5941:5943   */\n      0x40\n        /* \"#utility.yul\":5936:5939   */\n      dup3\n        /* \"#utility.yul\":5932:5944   */\n      add\n        /* \"#utility.yul\":5925:5944   */\n      swap1\n      pop\n        /* \"#utility.yul\":5584:5950   */\n      swap2\n      swap1\n      pop\n      jump\t// out\n        /* \"#utility.yul\":5956:6375   */\n    tag_69:\n        /* \"#utility.yul\":6122:6126   */\n      0x00\n        /* \"#utility.yul\":6160:6162   */\n      0x20\n        /* \"#utility.yul\":6149:6158   */\n      dup3\n        /* \"#utility.yul\":6145:6163   */\n      add\n        /* \"#utility.yul\":6137:6163   */\n      swap1\n      pop\n        /* \"#utility.yul\":6209:6218   */\n      dup2\n        /* \"#utility.yul\":6203:6207   */\n      dup2\n        /* \"#utility.yul\":6199:6219   */\n      sub\n        /* \"#utility.yul\":6195:6196   */\n      0x00\n        /* \"#utility.yul\":6184:6193   */\n      dup4\n        /* \"#utility.yul\":6180:6197   */\n      add\n        /* \"#utility.yul\":6173:6220   */\n      mstore\n        /* \"#utility.yul\":6237:6368   */\n      tag_175\n        /* \"#utility.yul\":6363:6367   */\n      dup2\n        /* \"#utility.yul\":6237:6368   */\n      tag_102\n      jump\t// in\n    tag_175:\n        /* \"#utility.yul\":6229:6368   */\n      swap1\n      pop\n        /* \"#utility.yul\":5956:6375   */\n      swap2\n      swap1\n      pop\n      jump\t// out\n        /* \"#utility.yul\":6381:6515   */\n    tag_103:\n        /* \"#utility.yul\":6439:6448   */\n      0x00\n        /* \"#utility.yul\":6472:6509   */\n      tag_177\n        /* \"#utility.yul\":6503:6508   */\n      dup3\n        /* \"#utility.yul\":6472:6509   */\n      tag_93\n      jump\t// in\n    tag_177:\n        /* \"#utility.yul\":6459:6509   */\n      swap1\n      pop\n        /* \"#utility.yul\":6381:6515   */\n      swap2\n      swap1\n      pop\n      jump\t// out\n        /* \"#utility.yul\":6521:6668   */\n    tag_104:\n        /* \"#utility.yul\":6616:6661   */\n      tag_179\n        /* \"#utility.yul\":6655:6660   */\n      dup2\n        /* \"#utility.yul\":6616:6661   */\n      tag_103\n      jump\t// in\n    tag_179:\n        /* \"#utility.yul\":6611:6614   */\n      dup3\n        /* \"#utility.yul\":6604:6662   */\n      mstore\n        /* \"#utility.yul\":6521:6668   */\n      pop\n      pop\n      jump\t// out\n        /* \"#utility.yul\":6674:6792   */\n    tag_105:\n        /* \"#utility.yul\":6761:6785   */\n      tag_181\n        /* \"#utility.yul\":6779:6784   */\n      dup2\n        /* \"#utility.yul\":6761:6785   */\n      tag_85\n      jump\t// in\n    tag_181:\n        /* \"#utility.yul\":6756:6759   */\n      dup3\n        /* \"#utility.yul\":6749:6786   */\n      mstore\n        /* \"#utility.yul\":6674:6792   */\n      pop\n      pop\n      jump\t// out\n        /* \"#utility.yul\":6798:7256   */\n    tag_71:\n        /* \"#utility.yul\":6955:6959   */\n      0x00\n        /* \"#utility.yul\":6993:6995   */\n      0x60\n        /* \"#utility.yul\":6982:6991   */\n      dup3\n        /* \"#utility.yul\":6978:6996   */\n      add\n        /* \"#utility.yul\":6970:6996   */\n      swap1\n      pop\n        /* \"#utility.yul\":7006:7085   */\n      tag_183\n        /* \"#utility.yul\":7082:7083   */\n      0x00\n        /* \"#utility.yul\":7071:7080   */\n      dup4\n        /* \"#utility.yul\":7067:7084   */\n      add\n        /* \"#utility.yul\":7058:7064   */\n      dup7\n        /* \"#utility.yul\":7006:7085   */\n      tag_104\n      jump\t// in\n    tag_183:\n        /* \"#utility.yul\":7095:7167   */\n      tag_184\n        /* \"#utility.yul\":7163:7165   */\n      0x20\n        /* \"#utility.yul\":7152:7161   */\n      dup4\n        /* \"#utility.yul\":7148:7166   */\n      add\n        /* \"#utility.yul\":7139:7145   */\n      dup6\n        /* \"#utility.yul\":7095:7167   */\n      tag_105\n      jump\t// in\n    tag_184:\n        /* \"#utility.yul\":7177:7249   */\n      tag_185\n        /* \"#utility.yul\":7245:7247   */\n      0x40\n        /* \"#utility.yul\":7234:7243   */\n      dup4\n        /* \"#utility.yul\":7230:7248   */\n      add\n        /* \"#utility.yul\":7221:7227   */\n      dup5\n        /* \"#utility.yul\":7177:7249   */\n      tag_96\n      jump\t// in\n    tag_185:\n        /* \"#utility.yul\":6798:7256   */\n      swap5\n      swap4\n      pop\n      pop\n      pop\n      pop\n      jump\t// out\n\n    auxdata: 0xa26469706673582212200e04acf4c427914e835f24817a9970cfcb5d88a1d9b9e8cf29499b2f1459fc5c64736f6c634300080f0033\n}\n",
				"bytecode": {
					"linkReferences": {},
					"object": "6101206040523480156200001257600080fd5b5060405162000dae38038062000dae833981810160405281019062000038919062000140565b3373ffffffffffffffffffffffffffffffffffffffff1660808173ffffffffffffffffffffffffffffffffffffffff16815250508160a081815250504260c08181525050620d2f00426200008d9190620001b6565b60e08181525050806101008181525050620d2f0061010051620000b1919062000213565b60a0511015620000f8576040517f08c379a0000000000000000000000000000000000000000000000000000000008152600401620000ef9062000321565b60405180910390fd5b505062000343565b600080fd5b6000819050919050565b6200011a8162000105565b81146200012657600080fd5b50565b6000815190506200013a816200010f565b92915050565b600080604083850312156200015a576200015962000100565b5b60006200016a8582860162000129565b92505060206200017d8582860162000129565b9150509250929050565b7f4e487b7100000000000000000000000000000000000000000000000000000000600052601160045260246000fd5b6000620001c38262000105565b9150620001d08362000105565b9250827fffffffffffffffffffffffffffffffffffffffffffffffffffffffffffffffff0382111562000208576200020762000187565b5b828201905092915050565b6000620002208262000105565b91506200022d8362000105565b9250817fffffffffffffffffffffffffffffffffffffffffffffffffffffffffffffffff048311821515161562000269576200026862000187565b5b828202905092915050565b600082825260208201905092915050565b7f546865207374617274696e672070726963652073686f756c642062652067726560008201527f61746572207468616e20746865206465637265617365206f662074686520707260208201527f696365206f766572207468652062696464696e6720706572696f640000000000604082015250565b600062000309605b8362000274565b9150620003168262000285565b606082019050919050565b600060208201905081810360008301526200033c81620002fa565b9050919050565b60805160a05160c05160e051610100516109fc620003b26000396000818161030e01526105b80152600081816102b6015261036e0152600081816102dd015261057001526000818161033c01526105940152600081816102230152818161045b015261053101526109fc6000f3fe6080604052600436106100915760003560e01c80639c3962f0116100595780639c3962f01461016b578063c6bc518214610175578063c7446565146101a0578063d6fbf202146101cb578063e6c0e6d5146101f657610091565b806308551a531461009657806313e98163146100c157806347ccca02146100ea5780638622a6891461011557806398d5fdca14610140575b600080fd5b3480156100a257600080fd5b506100ab610221565b6040516100b8919061061b565b60405180910390f35b3480156100cd57600080fd5b506100e860048036038101906100e391906106af565b610245565b005b3480156100f657600080fd5b506100ff610290565b60405161010c919061074e565b60405180910390f35b34801561012157600080fd5b5061012a6102b4565b6040516101379190610778565b60405180910390f35b34801561014c57600080fd5b506101556102d8565b6040516101629190610778565b60405180910390f35b61017361036c565b005b34801561018157600080fd5b5061018a610568565b6040516101979190610778565b60405180910390f35b3480156101ac57600080fd5b506101b561056e565b6040516101c29190610778565b60405180910390f35b3480156101d757600080fd5b506101e0610592565b6040516101ed9190610778565b60405180910390f35b34801561020257600080fd5b5061020b6105b6565b6040516102189190610778565b60405180910390f35b7f000000000000000000000000000000000000000000000000000000000000000081565b816000806101000a81548173ffffffffffffffffffffffffffffffffffffffff021916908373ffffffffffffffffffffffffffffffffffffffff160217905550806001819055505050565b60008054906101000a900473ffffffffffffffffffffffffffffffffffffffff1681565b7f000000000000000000000000000000000000000000000000000000000000000081565b6000807f00000000000000000000000000000000000000000000000000000000000000004261030791906107c2565b90506000817f000000000000000000000000000000000000000000000000000000000000000061033791906107f6565b9050807f000000000000000000000000000000000000000000000000000000000000000061036591906107c2565b9250505090565b7f000000000000000000000000000000000000000000000000000000000000000042106103ce576040517f08c379a00000000000000000000000000000000000000000000000000000000081526004016103c5906108ad565b60405180910390fd5b60006103d86102d8565b90508034101561041d576040517f08c379a00000000000000000000000000000000000000000000000000000000081526004016104149061093f565b60405180910390fd5b60008054906101000a900473ffffffffffffffffffffffffffffffffffffffff1673ffffffffffffffffffffffffffffffffffffffff166323b872dd7f0000000000000000000000000000000000000000000000000000000000000000336001546040518463ffffffff1660e01b815260040161049c9392919061098f565b600060405180830381600087803b1580156104b657600080fd5b505af11580156104ca573d6000803e3d6000fd5b50505050600081346104dc91906107c2565b9050600081111561052f573373ffffffffffffffffffffffffffffffffffffffff166108fc829081150290604051600060405180830381858888f1935050505015801561052d573d6000803e3d6000fd5b505b7f000000000000000000000000000000000000000000000000000000000000000073ffffffffffffffffffffffffffffffffffffffff16ff5b60015481565b7f000000000000000000000000000000000000000000000000000000000000000081565b7f000000000000000000000000000000000000000000000000000000000000000081565b7f000000000000000000000000000000000000000000000000000000000000000081565b600073ffffffffffffffffffffffffffffffffffffffff82169050919050565b6000610605826105da565b9050919050565b610615816105fa565b82525050565b6000602082019050610630600083018461060c565b92915050565b600080fd5b6000610646826105da565b9050919050565b6106568161063b565b811461066157600080fd5b50565b6000813590506106738161064d565b92915050565b6000819050919050565b61068c81610679565b811461069757600080fd5b50565b6000813590506106a981610683565b92915050565b600080604083850312156106c6576106c5610636565b5b60006106d485828601610664565b92505060206106e58582860161069a565b9150509250929050565b6000819050919050565b600061071461070f61070a846105da565b6106ef565b6105da565b9050919050565b6000610726826106f9565b9050919050565b60006107388261071b565b9050919050565b6107488161072d565b82525050565b6000602082019050610763600083018461073f565b92915050565b61077281610679565b82525050565b600060208201905061078d6000830184610769565b92915050565b7f4e487b7100000000000000000000000000000000000000000000000000000000600052601160045260246000fd5b60006107cd82610679565b91506107d883610679565b9250828210156107eb576107ea610793565b5b828203905092915050565b600061080182610679565b915061080c83610679565b9250817fffffffffffffffffffffffffffffffffffffffffffffffffffffffffffffffff048311821515161561084557610844610793565b5b828202905092915050565b600082825260208201905092915050565b7f54696d6520666f72207468652061756374696f6e206861732065787069726564600082015250565b6000610897602083610850565b91506108a282610861565b602082019050919050565b600060208201905081810360008301526108c68161088a565b9050919050565b7f4e6f7420656e6f7567682063757272656e637920746f2062757920746865204e60008201527f4654000000000000000000000000000000000000000000000000000000000000602082015250565b6000610929602283610850565b9150610934826108cd565b604082019050919050565b600060208201905081810360008301526109588161091c565b9050919050565b600061096a8261071b565b9050919050565b61097a8161095f565b82525050565b6109898161063b565b82525050565b60006060820190506109a46000830186610971565b6109b16020830185610980565b6109be6040830184610769565b94935050505056fea26469706673582212200e04acf4c427914e835f24817a9970cfcb5d88a1d9b9e8cf29499b2f1459fc5c64736f6c634300080f0033",
					"opcodes": "PUSH2 0x120 PUSH1 0x40 MSTORE CALLVALUE DUP1 ISZERO PUSH3 0x12 JUMPI PUSH1 0x0 DUP1 REVERT JUMPDEST POP PUSH1 0x40 MLOAD PUSH3 0xDAE CODESIZE SUB DUP1 PUSH3 0xDAE DUP4 CODECOPY DUP2 DUP2 ADD PUSH1 0x40 MSTORE DUP2 ADD SWAP1 PUSH3 0x38 SWAP2 SWAP1 PUSH3 0x140 JUMP JUMPDEST CALLER PUSH20 0xFFFFFFFFFFFFFFFFFFFFFFFFFFFFFFFFFFFFFFFF AND PUSH1 0x80 DUP2 PUSH20 0xFFFFFFFFFFFFFFFFFFFFFFFFFFFFFFFFFFFFFFFF AND DUP2 MSTORE POP POP DUP2 PUSH1 0xA0 DUP2 DUP2 MSTORE POP POP TIMESTAMP PUSH1 0xC0 DUP2 DUP2 MSTORE POP POP PUSH3 0xD2F00 TIMESTAMP PUSH3 0x8D SWAP2 SWAP1 PUSH3 0x1B6 JUMP JUMPDEST PUSH1 0xE0 DUP2 DUP2 MSTORE POP POP DUP1 PUSH2 0x100 DUP2 DUP2 MSTORE POP POP PUSH3 0xD2F00 PUSH2 0x100 MLOAD PUSH3 0xB1 SWAP2 SWAP1 PUSH3 0x213 JUMP JUMPDEST PUSH1 0xA0 MLOAD LT ISZERO PUSH3 0xF8 JUMPI PUSH1 0x40 MLOAD PUSH32 0x8C379A000000000000000000000000000000000000000000000000000000000 DUP2 MSTORE PUSH1 0x4 ADD PUSH3 0xEF SWAP1 PUSH3 0x321 JUMP JUMPDEST PUSH1 0x40 MLOAD DUP1 SWAP2 SUB SWAP1 REVERT JUMPDEST POP POP PUSH3 0x343 JUMP JUMPDEST PUSH1 0x0 DUP1 REVERT JUMPDEST PUSH1 0x0 DUP2 SWAP1 POP SWAP2 SWAP1 POP JUMP JUMPDEST PUSH3 0x11A DUP2 PUSH3 0x105 JUMP JUMPDEST DUP2 EQ PUSH3 0x126 JUMPI PUSH1 0x0 DUP1 REVERT JUMPDEST POP JUMP JUMPDEST PUSH1 0x0 DUP2 MLOAD SWAP1 POP PUSH3 0x13A DUP2 PUSH3 0x10F JUMP JUMPDEST SWAP3 SWAP2 POP POP JUMP JUMPDEST PUSH1 0x0 DUP1 PUSH1 0x40 DUP4 DUP6 SUB SLT ISZERO PUSH3 0x15A JUMPI PUSH3 0x159 PUSH3 0x100 JUMP JUMPDEST JUMPDEST PUSH1 0x0 PUSH3 0x16A DUP6 DUP3 DUP7 ADD PUSH3 0x129 JUMP JUMPDEST SWAP3 POP POP PUSH1 0x20 PUSH3 0x17D DUP6 DUP3 DUP7 ADD PUSH3 0x129 JUMP JUMPDEST SWAP2 POP POP SWAP3 POP SWAP3 SWAP1 POP JUMP JUMPDEST PUSH32 0x4E487B7100000000000000000000000000000000000000000000000000000000 PUSH1 0x0 MSTORE PUSH1 0x11 PUSH1 0x4 MSTORE PUSH1 0x24 PUSH1 0x0 REVERT JUMPDEST PUSH1 0x0 PUSH3 0x1C3 DUP3 PUSH3 0x105 JUMP JUMPDEST SWAP2 POP PUSH3 0x1D0 DUP4 PUSH3 0x105 JUMP JUMPDEST SWAP3 POP DUP3 PUSH32 0xFFFFFFFFFFFFFFFFFFFFFFFFFFFFFFFFFFFFFFFFFFFFFFFFFFFFFFFFFFFFFFFF SUB DUP3 GT ISZERO PUSH3 0x208 JUMPI PUSH3 0x207 PUSH3 0x187 JUMP JUMPDEST JUMPDEST DUP3 DUP3 ADD SWAP1 POP SWAP3 SWAP2 POP POP JUMP JUMPDEST PUSH1 0x0 PUSH3 0x220 DUP3 PUSH3 0x105 JUMP JUMPDEST SWAP2 POP PUSH3 0x22D DUP4 PUSH3 0x105 JUMP JUMPDEST SWAP3 POP DUP2 PUSH32 0xFFFFFFFFFFFFFFFFFFFFFFFFFFFFFFFFFFFFFFFFFFFFFFFFFFFFFFFFFFFFFFFF DIV DUP4 GT DUP3 ISZERO ISZERO AND ISZERO PUSH3 0x269 JUMPI PUSH3 0x268 PUSH3 0x187 JUMP JUMPDEST JUMPDEST DUP3 DUP3 MUL SWAP1 POP SWAP3 SWAP2 POP POP JUMP JUMPDEST PUSH1 0x0 DUP3 DUP3 MSTORE PUSH1 0x20 DUP3 ADD SWAP1 POP SWAP3 SWAP2 POP POP JUMP JUMPDEST PUSH32 0x546865207374617274696E672070726963652073686F756C6420626520677265 PUSH1 0x0 DUP3 ADD MSTORE PUSH32 0x61746572207468616E20746865206465637265617365206F6620746865207072 PUSH1 0x20 DUP3 ADD MSTORE PUSH32 0x696365206F766572207468652062696464696E6720706572696F640000000000 PUSH1 0x40 DUP3 ADD MSTORE POP JUMP JUMPDEST PUSH1 0x0 PUSH3 0x309 PUSH1 0x5B DUP4 PUSH3 0x274 JUMP JUMPDEST SWAP2 POP PUSH3 0x316 DUP3 PUSH3 0x285 JUMP JUMPDEST PUSH1 0x60 DUP3 ADD SWAP1 POP SWAP2 SWAP1 POP JUMP JUMPDEST PUSH1 0x0 PUSH1 0x20 DUP3 ADD SWAP1 POP DUP2 DUP2 SUB PUSH1 0x0 DUP4 ADD MSTORE PUSH3 0x33C DUP2 PUSH3 0x2FA JUMP JUMPDEST SWAP1 POP SWAP2 SWAP1 POP JUMP JUMPDEST PUSH1 0x80 MLOAD PUSH1 0xA0 MLOAD PUSH1 0xC0 MLOAD PUSH1 0xE0 MLOAD PUSH2 0x100 MLOAD PUSH2 0x9FC PUSH3 0x3B2 PUSH1 0x0 CODECOPY PUSH1 0x0 DUP2 DUP2 PUSH2 0x30E ADD MSTORE PUSH2 0x5B8 ADD MSTORE PUSH1 0x0 DUP2 DUP2 PUSH2 0x2B6 ADD MSTORE PUSH2 0x36E ADD MSTORE PUSH1 0x0 DUP2 DUP2 PUSH2 0x2DD ADD MSTORE PUSH2 0x570 ADD MSTORE PUSH1 0x0 DUP2 DUP2 PUSH2 0x33C ADD MSTORE PUSH2 0x594 ADD MSTORE PUSH1 0x0 DUP2 DUP2 PUSH2 0x223 ADD MSTORE DUP2 DUP2 PUSH2 0x45B ADD MSTORE PUSH2 0x531 ADD MSTORE PUSH2 0x9FC PUSH1 0x0 RETURN INVALID PUSH1 0x80 PUSH1 0x40 MSTORE PUSH1 0x4 CALLDATASIZE LT PUSH2 0x91 JUMPI PUSH1 0x0 CALLDATALOAD PUSH1 0xE0 SHR DUP1 PUSH4 0x9C3962F0 GT PUSH2 0x59 JUMPI DUP1 PUSH4 0x9C3962F0 EQ PUSH2 0x16B JUMPI DUP1 PUSH4 0xC6BC5182 EQ PUSH2 0x175 JUMPI DUP1 PUSH4 0xC7446565 EQ PUSH2 0x1A0 JUMPI DUP1 PUSH4 0xD6FBF202 EQ PUSH2 0x1CB JUMPI DUP1 PUSH4 0xE6C0E6D5 EQ PUSH2 0x1F6 JUMPI PUSH2 0x91 JUMP JUMPDEST DUP1 PUSH4 0x8551A53 EQ PUSH2 0x96 JUMPI DUP1 PUSH4 0x13E98163 EQ PUSH2 0xC1 JUMPI DUP1 PUSH4 0x47CCCA02 EQ PUSH2 0xEA JUMPI DUP1 PUSH4 0x8622A689 EQ PUSH2 0x115 JUMPI DUP1 PUSH4 0x98D5FDCA EQ PUSH2 0x140 JUMPI JUMPDEST PUSH1 0x0 DUP1 REVERT JUMPDEST CALLVALUE DUP1 ISZERO PUSH2 0xA2 JUMPI PUSH1 0x0 DUP1 REVERT JUMPDEST POP PUSH2 0xAB PUSH2 0x221 JUMP JUMPDEST PUSH1 0x40 MLOAD PUSH2 0xB8 SWAP2 SWAP1 PUSH2 0x61B JUMP JUMPDEST PUSH1 0x40 MLOAD DUP1 SWAP2 SUB SWAP1 RETURN JUMPDEST CALLVALUE DUP1 ISZERO PUSH2 0xCD JUMPI PUSH1 0x0 DUP1 REVERT JUMPDEST POP PUSH2 0xE8 PUSH1 0x4 DUP1 CALLDATASIZE SUB DUP2 ADD SWAP1 PUSH2 0xE3 SWAP2 SWAP1 PUSH2 0x6AF JUMP JUMPDEST PUSH2 0x245 JUMP JUMPDEST STOP JUMPDEST CALLVALUE DUP1 ISZERO PUSH2 0xF6 JUMPI PUSH1 0x0 DUP1 REVERT JUMPDEST POP PUSH2 0xFF PUSH2 0x290 JUMP JUMPDEST PUSH1 0x40 MLOAD PUSH2 0x10C SWAP2 SWAP1 PUSH2 0x74E JUMP JUMPDEST PUSH1 0x40 MLOAD DUP1 SWAP2 SUB SWAP1 RETURN JUMPDEST CALLVALUE DUP1 ISZERO PUSH2 0x121 JUMPI PUSH1 0x0 DUP1 REVERT JUMPDEST POP PUSH2 0x12A PUSH2 0x2B4 JUMP JUMPDEST PUSH1 0x40 MLOAD PUSH2 0x137 SWAP2 SWAP1 PUSH2 0x778 JUMP JUMPDEST PUSH1 0x40 MLOAD DUP1 SWAP2 SUB SWAP1 RETURN JUMPDEST CALLVALUE DUP1 ISZERO PUSH2 0x14C JUMPI PUSH1 0x0 DUP1 REVERT JUMPDEST POP PUSH2 0x155 PUSH2 0x2D8 JUMP JUMPDEST PUSH1 0x40 MLOAD PUSH2 0x162 SWAP2 SWAP1 PUSH2 0x778 JUMP JUMPDEST PUSH1 0x40 MLOAD DUP1 SWAP2 SUB SWAP1 RETURN JUMPDEST PUSH2 0x173 PUSH2 0x36C JUMP JUMPDEST STOP JUMPDEST CALLVALUE DUP1 ISZERO PUSH2 0x181 JUMPI PUSH1 0x0 DUP1 REVERT JUMPDEST POP PUSH2 0x18A PUSH2 0x568 JUMP JUMPDEST PUSH1 0x40 MLOAD PUSH2 0x197 SWAP2 SWAP1 PUSH2 0x778 JUMP JUMPDEST PUSH1 0x40 MLOAD DUP1 SWAP2 SUB SWAP1 RETURN JUMPDEST CALLVALUE DUP1 ISZERO PUSH2 0x1AC JUMPI PUSH1 0x0 DUP1 REVERT JUMPDEST POP PUSH2 0x1B5 PUSH2 0x56E JUMP JUMPDEST PUSH1 0x40 MLOAD PUSH2 0x1C2 SWAP2 SWAP1 PUSH2 0x778 JUMP JUMPDEST PUSH1 0x40 MLOAD DUP1 SWAP2 SUB SWAP1 RETURN JUMPDEST CALLVALUE DUP1 ISZERO PUSH2 0x1D7 JUMPI PUSH1 0x0 DUP1 REVERT JUMPDEST POP PUSH2 0x1E0 PUSH2 0x592 JUMP JUMPDEST PUSH1 0x40 MLOAD PUSH2 0x1ED SWAP2 SWAP1 PUSH2 0x778 JUMP JUMPDEST PUSH1 0x40 MLOAD DUP1 SWAP2 SUB SWAP1 RETURN JUMPDEST CALLVALUE DUP1 ISZERO PUSH2 0x202 JUMPI PUSH1 0x0 DUP1 REVERT JUMPDEST POP PUSH2 0x20B PUSH2 0x5B6 JUMP JUMPDEST PUSH1 0x40 MLOAD PUSH2 0x218 SWAP2 SWAP1 PUSH2 0x778 JUMP JUMPDEST PUSH1 0x40 MLOAD DUP1 SWAP2 SUB SWAP1 RETURN JUMPDEST PUSH32 0x0 DUP2 JUMP JUMPDEST DUP2 PUSH1 0x0 DUP1 PUSH2 0x100 EXP DUP2 SLOAD DUP2 PUSH20 0xFFFFFFFFFFFFFFFFFFFFFFFFFFFFFFFFFFFFFFFF MUL NOT AND SWAP1 DUP4 PUSH20 0xFFFFFFFFFFFFFFFFFFFFFFFFFFFFFFFFFFFFFFFF AND MUL OR SWAP1 SSTORE POP DUP1 PUSH1 0x1 DUP2 SWAP1 SSTORE POP POP POP JUMP JUMPDEST PUSH1 0x0 DUP1 SLOAD SWAP1 PUSH2 0x100 EXP SWAP1 DIV PUSH20 0xFFFFFFFFFFFFFFFFFFFFFFFFFFFFFFFFFFFFFFFF AND DUP2 JUMP JUMPDEST PUSH32 0x0 DUP2 JUMP JUMPDEST PUSH1 0x0 DUP1 PUSH32 0x0 TIMESTAMP PUSH2 0x307 SWAP2 SWAP1 PUSH2 0x7C2 JUMP JUMPDEST SWAP1 POP PUSH1 0x0 DUP2 PUSH32 0x0 PUSH2 0x337 SWAP2 SWAP1 PUSH2 0x7F6 JUMP JUMPDEST SWAP1 POP DUP1 PUSH32 0x0 PUSH2 0x365 SWAP2 SWAP1 PUSH2 0x7C2 JUMP JUMPDEST SWAP3 POP POP POP SWAP1 JUMP JUMPDEST PUSH32 0x0 TIMESTAMP LT PUSH2 0x3CE JUMPI PUSH1 0x40 MLOAD PUSH32 0x8C379A000000000000000000000000000000000000000000000000000000000 DUP2 MSTORE PUSH1 0x4 ADD PUSH2 0x3C5 SWAP1 PUSH2 0x8AD JUMP JUMPDEST PUSH1 0x40 MLOAD DUP1 SWAP2 SUB SWAP1 REVERT JUMPDEST PUSH1 0x0 PUSH2 0x3D8 PUSH2 0x2D8 JUMP JUMPDEST SWAP1 POP DUP1 CALLVALUE LT ISZERO PUSH2 0x41D JUMPI PUSH1 0x40 MLOAD PUSH32 0x8C379A000000000000000000000000000000000000000000000000000000000 DUP2 MSTORE PUSH1 0x4 ADD PUSH2 0x414 SWAP1 PUSH2 0x93F JUMP JUMPDEST PUSH1 0x40 MLOAD DUP1 SWAP2 SUB SWAP1 REVERT JUMPDEST PUSH1 0x0 DUP1 SLOAD SWAP1 PUSH2 0x100 EXP SWAP1 DIV PUSH20 0xFFFFFFFFFFFFFFFFFFFFFFFFFFFFFFFFFFFFFFFF AND PUSH20 0xFFFFFFFFFFFFFFFFFFFFFFFFFFFFFFFFFFFFFFFF AND PUSH4 0x23B872DD PUSH32 0x0 CALLER PUSH1 0x1 SLOAD PUSH1 0x40 MLOAD DUP5 PUSH4 0xFFFFFFFF AND PUSH1 0xE0 SHL DUP2 MSTORE PUSH1 0x4 ADD PUSH2 0x49C SWAP4 SWAP3 SWAP2 SWAP1 PUSH2 0x98F JUMP JUMPDEST PUSH1 0x0 PUSH1 0x40 MLOAD DUP1 DUP4 SUB DUP2 PUSH1 0x0 DUP8 DUP1 EXTCODESIZE ISZERO DUP1 ISZERO PUSH2 0x4B6 JUMPI PUSH1 0x0 DUP1 REVERT JUMPDEST POP GAS CALL ISZERO DUP1 ISZERO PUSH2 0x4CA JUMPI RETURNDATASIZE PUSH1 0x0 DUP1 RETURNDATACOPY RETURNDATASIZE PUSH1 0x0 REVERT JUMPDEST POP POP POP POP PUSH1 0x0 DUP2 CALLVALUE PUSH2 0x4DC SWAP2 SWAP1 PUSH2 0x7C2 JUMP JUMPDEST SWAP1 POP PUSH1 0x0 DUP2 GT ISZERO PUSH2 0x52F JUMPI CALLER PUSH20 0xFFFFFFFFFFFFFFFFFFFFFFFFFFFFFFFFFFFFFFFF AND PUSH2 0x8FC DUP3 SWAP1 DUP2 ISZERO MUL SWAP1 PUSH1 0x40 MLOAD PUSH1 0x0 PUSH1 0x40 MLOAD DUP1 DUP4 SUB DUP2 DUP6 DUP9 DUP9 CALL SWAP4 POP POP POP POP ISZERO DUP1 ISZERO PUSH2 0x52D JUMPI RETURNDATASIZE PUSH1 0x0 DUP1 RETURNDATACOPY RETURNDATASIZE PUSH1 0x0 REVERT JUMPDEST POP JUMPDEST PUSH32 0x0 PUSH20 0xFFFFFFFFFFFFFFFFFFFFFFFFFFFFFFFFFFFFFFFF AND SELFDESTRUCT JUMPDEST PUSH1 0x1 SLOAD DUP2 JUMP JUMPDEST PUSH32 0x0 DUP2 JUMP JUMPDEST PUSH32 0x0 DUP2 JUMP JUMPDEST PUSH32 0x0 DUP2 JUMP JUMPDEST PUSH1 0x0 PUSH20 0xFFFFFFFFFFFFFFFFFFFFFFFFFFFFFFFFFFFFFFFF DUP3 AND SWAP1 POP SWAP2 SWAP1 POP JUMP JUMPDEST PUSH1 0x0 PUSH2 0x605 DUP3 PUSH2 0x5DA JUMP JUMPDEST SWAP1 POP SWAP2 SWAP1 POP JUMP JUMPDEST PUSH2 0x615 DUP2 PUSH2 0x5FA JUMP JUMPDEST DUP3 MSTORE POP POP JUMP JUMPDEST PUSH1 0x0 PUSH1 0x20 DUP3 ADD SWAP1 POP PUSH2 0x630 PUSH1 0x0 DUP4 ADD DUP5 PUSH2 0x60C JUMP JUMPDEST SWAP3 SWAP2 POP POP JUMP JUMPDEST PUSH1 0x0 DUP1 REVERT JUMPDEST PUSH1 0x0 PUSH2 0x646 DUP3 PUSH2 0x5DA JUMP JUMPDEST SWAP1 POP SWAP2 SWAP1 POP JUMP JUMPDEST PUSH2 0x656 DUP2 PUSH2 0x63B JUMP JUMPDEST DUP2 EQ PUSH2 0x661 JUMPI PUSH1 0x0 DUP1 REVERT JUMPDEST POP JUMP JUMPDEST PUSH1 0x0 DUP2 CALLDATALOAD SWAP1 POP PUSH2 0x673 DUP2 PUSH2 0x64D JUMP JUMPDEST SWAP3 SWAP2 POP POP JUMP JUMPDEST PUSH1 0x0 DUP2 SWAP1 POP SWAP2 SWAP1 POP JUMP JUMPDEST PUSH2 0x68C DUP2 PUSH2 0x679 JUMP JUMPDEST DUP2 EQ PUSH2 0x697 JUMPI PUSH1 0x0 DUP1 REVERT JUMPDEST POP JUMP JUMPDEST PUSH1 0x0 DUP2 CALLDATALOAD SWAP1 POP PUSH2 0x6A9 DUP2 PUSH2 0x683 JUMP JUMPDEST SWAP3 SWAP2 POP POP JUMP JUMPDEST PUSH1 0x0 DUP1 PUSH1 0x40 DUP4 DUP6 SUB SLT ISZERO PUSH2 0x6C6 JUMPI PUSH2 0x6C5 PUSH2 0x636 JUMP JUMPDEST JUMPDEST PUSH1 0x0 PUSH2 0x6D4 DUP6 DUP3 DUP7 ADD PUSH2 0x664 JUMP JUMPDEST SWAP3 POP POP PUSH1 0x20 PUSH2 0x6E5 DUP6 DUP3 DUP7 ADD PUSH2 0x69A JUMP JUMPDEST SWAP2 POP POP SWAP3 POP SWAP3 SWAP1 POP JUMP JUMPDEST PUSH1 0x0 DUP2 SWAP1 POP SWAP2 SWAP1 POP JUMP JUMPDEST PUSH1 0x0 PUSH2 0x714 PUSH2 0x70F PUSH2 0x70A DUP5 PUSH2 0x5DA JUMP JUMPDEST PUSH2 0x6EF JUMP JUMPDEST PUSH2 0x5DA JUMP JUMPDEST SWAP1 POP SWAP2 SWAP1 POP JUMP JUMPDEST PUSH1 0x0 PUSH2 0x726 DUP3 PUSH2 0x6F9 JUMP JUMPDEST SWAP1 POP SWAP2 SWAP1 POP JUMP JUMPDEST PUSH1 0x0 PUSH2 0x738 DUP3 PUSH2 0x71B JUMP JUMPDEST SWAP1 POP SWAP2 SWAP1 POP JUMP JUMPDEST PUSH2 0x748 DUP2 PUSH2 0x72D JUMP JUMPDEST DUP3 MSTORE POP POP JUMP JUMPDEST PUSH1 0x0 PUSH1 0x20 DUP3 ADD SWAP1 POP PUSH2 0x763 PUSH1 0x0 DUP4 ADD DUP5 PUSH2 0x73F JUMP JUMPDEST SWAP3 SWAP2 POP POP JUMP JUMPDEST PUSH2 0x772 DUP2 PUSH2 0x679 JUMP JUMPDEST DUP3 MSTORE POP POP JUMP JUMPDEST PUSH1 0x0 PUSH1 0x20 DUP3 ADD SWAP1 POP PUSH2 0x78D PUSH1 0x0 DUP4 ADD DUP5 PUSH2 0x769 JUMP JUMPDEST SWAP3 SWAP2 POP POP JUMP JUMPDEST PUSH32 0x4E487B7100000000000000000000000000000000000000000000000000000000 PUSH1 0x0 MSTORE PUSH1 0x11 PUSH1 0x4 MSTORE PUSH1 0x24 PUSH1 0x0 REVERT JUMPDEST PUSH1 0x0 PUSH2 0x7CD DUP3 PUSH2 0x679 JUMP JUMPDEST SWAP2 POP PUSH2 0x7D8 DUP4 PUSH2 0x679 JUMP JUMPDEST SWAP3 POP DUP3 DUP3 LT ISZERO PUSH2 0x7EB JUMPI PUSH2 0x7EA PUSH2 0x793 JUMP JUMPDEST JUMPDEST DUP3 DUP3 SUB SWAP1 POP SWAP3 SWAP2 POP POP JUMP JUMPDEST PUSH1 0x0 PUSH2 0x801 DUP3 PUSH2 0x679 JUMP JUMPDEST SWAP2 POP PUSH2 0x80C DUP4 PUSH2 0x679 JUMP JUMPDEST SWAP3 POP DUP2 PUSH32 0xFFFFFFFFFFFFFFFFFFFFFFFFFFFFFFFFFFFFFFFFFFFFFFFFFFFFFFFFFFFFFFFF DIV DUP4 GT DUP3 ISZERO ISZERO AND ISZERO PUSH2 0x845 JUMPI PUSH2 0x844 PUSH2 0x793 JUMP JUMPDEST JUMPDEST DUP3 DUP3 MUL SWAP1 POP SWAP3 SWAP2 POP POP JUMP JUMPDEST PUSH1 0x0 DUP3 DUP3 MSTORE PUSH1 0x20 DUP3 ADD SWAP1 POP SWAP3 SWAP2 POP POP JUMP JUMPDEST PUSH32 0x54696D6520666F72207468652061756374696F6E206861732065787069726564 PUSH1 0x0 DUP3 ADD MSTORE POP JUMP JUMPDEST PUSH1 0x0 PUSH2 0x897 PUSH1 0x20 DUP4 PUSH2 0x850 JUMP JUMPDEST SWAP2 POP PUSH2 0x8A2 DUP3 PUSH2 0x861 JUMP JUMPDEST PUSH1 0x20 DUP3 ADD SWAP1 POP SWAP2 SWAP1 POP JUMP JUMPDEST PUSH1 0x0 PUSH1 0x20 DUP3 ADD SWAP1 POP DUP2 DUP2 SUB PUSH1 0x0 DUP4 ADD MSTORE PUSH2 0x8C6 DUP2 PUSH2 0x88A JUMP JUMPDEST SWAP1 POP SWAP2 SWAP1 POP JUMP JUMPDEST PUSH32 0x4E6F7420656E6F7567682063757272656E637920746F2062757920746865204E PUSH1 0x0 DUP3 ADD MSTORE PUSH32 0x4654000000000000000000000000000000000000000000000000000000000000 PUSH1 0x20 DUP3 ADD MSTORE POP JUMP JUMPDEST PUSH1 0x0 PUSH2 0x929 PUSH1 0x22 DUP4 PUSH2 0x850 JUMP JUMPDEST SWAP2 POP PUSH2 0x934 DUP3 PUSH2 0x8CD JUMP JUMPDEST PUSH1 0x40 DUP3 ADD SWAP1 POP SWAP2 SWAP1 POP JUMP JUMPDEST PUSH1 0x0 PUSH1 0x20 DUP3 ADD SWAP1 POP DUP2 DUP2 SUB PUSH1 0x0 DUP4 ADD MSTORE PUSH2 0x958 DUP2 PUSH2 0x91C JUMP JUMPDEST SWAP1 POP SWAP2 SWAP1 POP JUMP JUMPDEST PUSH1 0x0 PUSH2 0x96A DUP3 PUSH2 0x71B JUMP JUMPDEST SWAP1 POP SWAP2 SWAP1 POP JUMP JUMPDEST PUSH2 0x97A DUP2 PUSH2 0x95F JUMP JUMPDEST DUP3 MSTORE POP POP JUMP JUMPDEST PUSH2 0x989 DUP2 PUSH2 0x63B JUMP JUMPDEST DUP3 MSTORE POP POP JUMP JUMPDEST PUSH1 0x0 PUSH1 0x60 DUP3 ADD SWAP1 POP PUSH2 0x9A4 PUSH1 0x0 DUP4 ADD DUP7 PUSH2 0x971 JUMP JUMPDEST PUSH2 0x9B1 PUSH1 0x20 DUP4 ADD DUP6 PUSH2 0x980 JUMP JUMPDEST PUSH2 0x9BE PUSH1 0x40 DUP4 ADD DUP5 PUSH2 0x769 JUMP JUMPDEST SWAP5 SWAP4 POP POP POP POP JUMP INVALID LOG2 PUSH5 0x6970667358 0x22 SLT KECCAK256 0xE DIV 0xAC DELEGATECALL 0xC4 0x27 SWAP2 0x4E DUP4 0x5F 0x24 DUP2 PUSH27 0x9970CFCB5D88A1D9B9E8CF29499B2F1459FC5C64736F6C63430008 0xF STOP CALLER "
				},
				"gasEstimates": {
					"creation": {
						"codeDepositCost": "511200",
						"executionCost": "infinite",
						"totalCost": "infinite"
					},
					"external": {
						"buyNow()": "infinite",
						"discountRate()": "infinite",
						"expiresAt()": "infinite",
						"getPrice()": "infinite",
						"nft()": "infinite",
						"nftId()": "2451",
						"seller()": "infinite",
						"setNFT(address,uint256)": "47032",
						"startAt()": "infinite",
						"startingPrice()": "infinite"
					}
				},
				"methodIdentifiers": {
					"buyNow()": "9c3962f0",
					"discountRate()": "e6c0e6d5",
					"expiresAt()": "8622a689",
					"getPrice()": "98d5fdca",
					"nft()": "47ccca02",
					"nftId()": "c6bc5182",
					"seller()": "08551a53",
					"setNFT(address,uint256)": "13e98163",
					"startAt()": "c7446565",
					"startingPrice()": "d6fbf202"
				}
			},
			"storageLayout": {
				"storage": [
					{
						"astId": 17,
						"contract": "georgs2NFTDutchAuction.sol:NFTDutchAuction",
						"label": "nft",
						"offset": 0,
						"slot": "0",
						"type": "t_contract(IERC721)11"
					},
					{
						"astId": 19,
						"contract": "georgs2NFTDutchAuction.sol:NFTDutchAuction",
						"label": "nftId",
						"offset": 0,
						"slot": "1",
						"type": "t_uint256"
					}
				],
				"types": {
					"t_contract(IERC721)11": {
						"encoding": "inplace",
						"label": "contract IERC721",
						"numberOfBytes": "20"
					},
					"t_uint256": {
						"encoding": "inplace",
						"label": "uint256",
						"numberOfBytes": "32"
					}
				}
			},
			"userdoc": {
				"kind": "user",
				"methods": {},
				"version": 1
			}
		}
	}
}