{
	"georgs2TokenSale.sol": {
		"TokenSale": {
			"abi": [
				{
					"inputs": [],
					"name": "purchase",
					"outputs": [],
					"stateMutability": "payable",
					"type": "function"
				},
				{
					"inputs": [
						{
							"internalType": "address",
							"name": "_token",
							"type": "address"
						}
					],
					"name": "setToken",
					"outputs": [],
					"stateMutability": "nonpayable",
					"type": "function"
				}
			],
			"devdoc": {
				"kind": "dev",
				"methods": {},
				"version": 1
			},
			"evm": {
				"assembly": "    /* \"georgs2TokenSale.sol\":195:701  contract TokenSale{... */\n  mstore(0x40, 0x80)\n    /* \"georgs2TokenSale.sol\":241:248  1 ether */\n  0x0de0b6b3a7640000\n    /* \"georgs2TokenSale.sol\":220:248  uint weiTokenPrice = 1 ether */\n  0x00\n  sstore\n    /* \"georgs2TokenSale.sol\":195:701  contract TokenSale{... */\n  callvalue\n  dup1\n  iszero\n  tag_1\n  jumpi\n  0x00\n  dup1\n  revert\ntag_1:\n  pop\n  dataSize(sub_0)\n  dup1\n  dataOffset(sub_0)\n  0x00\n  codecopy\n  0x00\n  return\nstop\n\nsub_0: assembly {\n        /* \"georgs2TokenSale.sol\":195:701  contract TokenSale{... */\n      mstore(0x40, 0x80)\n      jumpi(tag_1, lt(calldatasize, 0x04))\n      shr(0xe0, calldataload(0x00))\n      dup1\n      0x144fa6d7\n      eq\n      tag_2\n      jumpi\n      dup1\n      0x64edfbf0\n      eq\n      tag_3\n      jumpi\n    tag_1:\n      0x00\n      dup1\n      revert\n        /* \"georgs2TokenSale.sol\":278:365  function setToken(address _token) public... */\n    tag_2:\n      callvalue\n      dup1\n      iszero\n      tag_4\n      jumpi\n      0x00\n      dup1\n      revert\n    tag_4:\n      pop\n      tag_5\n      0x04\n      dup1\n      calldatasize\n      sub\n      dup2\n      add\n      swap1\n      tag_6\n      swap2\n      swap1\n      tag_7\n      jump\t// in\n    tag_6:\n      tag_8\n      jump\t// in\n    tag_5:\n      stop\n        /* \"georgs2TokenSale.sol\":371:698  function purchase() public payable... */\n    tag_3:\n      tag_9\n      tag_10\n      jump\t// in\n    tag_9:\n      stop\n        /* \"georgs2TokenSale.sol\":278:365  function setToken(address _token) public... */\n    tag_8:\n        /* \"georgs2TokenSale.sol\":350:356  _token */\n      dup1\n        /* \"georgs2TokenSale.sol\":335:340  token */\n      0x01\n      0x00\n        /* \"georgs2TokenSale.sol\":335:357  token = IERC20(_token) */\n      0x0100\n      exp\n      dup2\n      sload\n      dup2\n      0xffffffffffffffffffffffffffffffffffffffff\n      mul\n      not\n      and\n      swap1\n      dup4\n      0xffffffffffffffffffffffffffffffffffffffff\n      and\n      mul\n      or\n      swap1\n      sstore\n      pop\n        /* \"georgs2TokenSale.sol\":278:365  function setToken(address _token) public... */\n      pop\n      jump\t// out\n        /* \"georgs2TokenSale.sol\":371:698  function purchase() public payable... */\n    tag_10:\n        /* \"georgs2TokenSale.sol\":442:455  weiTokenPrice */\n      sload(0x00)\n        /* \"georgs2TokenSale.sol\":430:439  msg.value */\n      callvalue\n        /* \"georgs2TokenSale.sol\":430:455  msg.value >=weiTokenPrice */\n      lt\n      iszero\n        /* \"georgs2TokenSale.sol\":422:479  require(msg.value >=weiTokenPrice, \"Not enough currency\") */\n      tag_13\n      jumpi\n      mload(0x40)\n      0x08c379a000000000000000000000000000000000000000000000000000000000\n      dup2\n      mstore\n      0x04\n      add\n      tag_14\n      swap1\n      tag_15\n      jump\t// in\n    tag_14:\n      mload(0x40)\n      dup1\n      swap2\n      sub\n      swap1\n      revert\n    tag_13:\n        /* \"georgs2TokenSale.sol\":490:501  uint tokens */\n      0x00\n        /* \"georgs2TokenSale.sol\":514:527  weiTokenPrice */\n      dup1\n      sload\n        /* \"georgs2TokenSale.sol\":504:513  msg.value */\n      callvalue\n        /* \"georgs2TokenSale.sol\":504:527  msg.value/weiTokenPrice */\n      tag_16\n      swap2\n      swap1\n      tag_17\n      jump\t// in\n    tag_16:\n        /* \"georgs2TokenSale.sol\":490:527  uint tokens = msg.value/weiTokenPrice */\n      swap1\n      pop\n        /* \"georgs2TokenSale.sol\":538:546  uint rem */\n      0x00\n        /* \"georgs2TokenSale.sol\":568:581  weiTokenPrice */\n      dup1\n      sload\n        /* \"georgs2TokenSale.sol\":561:567  tokens */\n      dup3\n        /* \"georgs2TokenSale.sol\":561:581  tokens*weiTokenPrice */\n      tag_18\n      swap2\n      swap1\n      tag_19\n      jump\t// in\n    tag_18:\n        /* \"georgs2TokenSale.sol\":549:558  msg.value */\n      callvalue\n        /* \"georgs2TokenSale.sol\":549:581  msg.value - tokens*weiTokenPrice */\n      tag_20\n      swap2\n      swap1\n      tag_21\n      jump\t// in\n    tag_20:\n        /* \"georgs2TokenSale.sol\":538:581  uint rem = msg.value - tokens*weiTokenPrice */\n      swap1\n      pop\n        /* \"georgs2TokenSale.sol\":592:597  token */\n      0x01\n      0x00\n      swap1\n      sload\n      swap1\n      0x0100\n      exp\n      swap1\n      div\n      0xffffffffffffffffffffffffffffffffffffffff\n      and\n        /* \"georgs2TokenSale.sol\":592:606  token.transfer */\n      0xffffffffffffffffffffffffffffffffffffffff\n      and\n      0xa9059cbb\n        /* \"georgs2TokenSale.sol\":607:617  msg.sender */\n      caller\n        /* \"georgs2TokenSale.sol\":629:634  token */\n      0x01\n      0x00\n      swap1\n      sload\n      swap1\n      0x0100\n      exp\n      swap1\n      div\n      0xffffffffffffffffffffffffffffffffffffffff\n      and\n        /* \"georgs2TokenSale.sol\":629:643  token.decimals */\n      0xffffffffffffffffffffffffffffffffffffffff\n      and\n      0x313ce567\n        /* \"georgs2TokenSale.sol\":629:645  token.decimals() */\n      mload(0x40)\n      dup2\n      0xffffffff\n      and\n      0xe0\n      shl\n      dup2\n      mstore\n      0x04\n      add\n      0x20\n      mload(0x40)\n      dup1\n      dup4\n      sub\n      dup2\n      dup7\n      gas\n      staticcall\n      iszero\n      dup1\n      iszero\n      tag_23\n      jumpi\n      returndatasize\n      0x00\n      dup1\n      returndatacopy\n      revert(0x00, returndatasize)\n    tag_23:\n      pop\n      pop\n      pop\n      pop\n      mload(0x40)\n      returndatasize\n      not(0x1f)\n      0x1f\n      dup3\n      add\n      and\n      dup3\n      add\n      dup1\n      0x40\n      mstore\n      pop\n      dup2\n      add\n      swap1\n      tag_24\n      swap2\n      swap1\n      tag_25\n      jump\t// in\n    tag_24:\n        /* \"georgs2TokenSale.sol\":625:627  10 */\n      0x0a\n        /* \"georgs2TokenSale.sol\":625:645  10**token.decimals() */\n      tag_26\n      swap2\n      swap1\n      tag_27\n      jump\t// in\n    tag_26:\n        /* \"georgs2TokenSale.sol\":618:624  tokens */\n      dup6\n        /* \"georgs2TokenSale.sol\":618:645  tokens*10**token.decimals() */\n      tag_28\n      swap2\n      swap1\n      tag_19\n      jump\t// in\n    tag_28:\n        /* \"georgs2TokenSale.sol\":592:646  token.transfer(msg.sender,tokens*10**token.decimals()) */\n      mload(0x40)\n      dup4\n      0xffffffff\n      and\n      0xe0\n      shl\n      dup2\n      mstore\n      0x04\n      add\n      tag_29\n      swap3\n      swap2\n      swap1\n      tag_30\n      jump\t// in\n    tag_29:\n      0x00\n      mload(0x40)\n      dup1\n      dup4\n      sub\n      dup2\n      0x00\n      dup8\n      dup1\n      extcodesize\n      iszero\n      dup1\n      iszero\n      tag_31\n      jumpi\n      0x00\n      dup1\n      revert\n    tag_31:\n      pop\n      gas\n      call\n      iszero\n      dup1\n      iszero\n      tag_33\n      jumpi\n      returndatasize\n      0x00\n      dup1\n      returndatacopy\n      revert(0x00, returndatasize)\n    tag_33:\n      pop\n      pop\n      pop\n      pop\n        /* \"georgs2TokenSale.sol\":665:675  msg.sender */\n      caller\n        /* \"georgs2TokenSale.sol\":657:685  payable(msg.sender).transfer */\n      0xffffffffffffffffffffffffffffffffffffffff\n      and\n        /* \"georgs2TokenSale.sol\":657:690  payable(msg.sender).transfer(rem) */\n      0x08fc\n        /* \"georgs2TokenSale.sol\":686:689  rem */\n      dup3\n        /* \"georgs2TokenSale.sol\":657:690  payable(msg.sender).transfer(rem) */\n      swap1\n      dup2\n      iszero\n      mul\n      swap1\n      mload(0x40)\n      0x00\n      mload(0x40)\n      dup1\n      dup4\n      sub\n      dup2\n      dup6\n      dup9\n      dup9\n      call\n      swap4\n      pop\n      pop\n      pop\n      pop\n      iszero\n      dup1\n      iszero\n      tag_35\n      jumpi\n      returndatasize\n      0x00\n      dup1\n      returndatacopy\n      revert(0x00, returndatasize)\n    tag_35:\n      pop\n        /* \"georgs2TokenSale.sol\":411:698  {... */\n      pop\n      pop\n        /* \"georgs2TokenSale.sol\":371:698  function purchase() public payable... */\n      jump\t// out\n        /* \"#utility.yul\":88:205   */\n    tag_37:\n        /* \"#utility.yul\":197:198   */\n      0x00\n        /* \"#utility.yul\":194:195   */\n      dup1\n        /* \"#utility.yul\":187:199   */\n      revert\n        /* \"#utility.yul\":334:460   */\n    tag_39:\n        /* \"#utility.yul\":371:378   */\n      0x00\n        /* \"#utility.yul\":411:453   */\n      0xffffffffffffffffffffffffffffffffffffffff\n        /* \"#utility.yul\":404:409   */\n      dup3\n        /* \"#utility.yul\":400:454   */\n      and\n        /* \"#utility.yul\":389:454   */\n      swap1\n      pop\n        /* \"#utility.yul\":334:460   */\n      swap2\n      swap1\n      pop\n      jump\t// out\n        /* \"#utility.yul\":466:562   */\n    tag_40:\n        /* \"#utility.yul\":503:510   */\n      0x00\n        /* \"#utility.yul\":532:556   */\n      tag_62\n        /* \"#utility.yul\":550:555   */\n      dup3\n        /* \"#utility.yul\":532:556   */\n      tag_39\n      jump\t// in\n    tag_62:\n        /* \"#utility.yul\":521:556   */\n      swap1\n      pop\n        /* \"#utility.yul\":466:562   */\n      swap2\n      swap1\n      pop\n      jump\t// out\n        /* \"#utility.yul\":568:690   */\n    tag_41:\n        /* \"#utility.yul\":641:665   */\n      tag_64\n        /* \"#utility.yul\":659:664   */\n      dup2\n        /* \"#utility.yul\":641:665   */\n      tag_40\n      jump\t// in\n    tag_64:\n        /* \"#utility.yul\":634:639   */\n      dup2\n        /* \"#utility.yul\":631:666   */\n      eq\n        /* \"#utility.yul\":621:684   */\n      tag_65\n      jumpi\n        /* \"#utility.yul\":680:681   */\n      0x00\n        /* \"#utility.yul\":677:678   */\n      dup1\n        /* \"#utility.yul\":670:682   */\n      revert\n        /* \"#utility.yul\":621:684   */\n    tag_65:\n        /* \"#utility.yul\":568:690   */\n      pop\n      jump\t// out\n        /* \"#utility.yul\":696:835   */\n    tag_42:\n        /* \"#utility.yul\":742:747   */\n      0x00\n        /* \"#utility.yul\":780:786   */\n      dup2\n        /* \"#utility.yul\":767:787   */\n      calldataload\n        /* \"#utility.yul\":758:787   */\n      swap1\n      pop\n        /* \"#utility.yul\":796:829   */\n      tag_67\n        /* \"#utility.yul\":823:828   */\n      dup2\n        /* \"#utility.yul\":796:829   */\n      tag_41\n      jump\t// in\n    tag_67:\n        /* \"#utility.yul\":696:835   */\n      swap3\n      swap2\n      pop\n      pop\n      jump\t// out\n        /* \"#utility.yul\":841:1170   */\n    tag_7:\n        /* \"#utility.yul\":900:906   */\n      0x00\n        /* \"#utility.yul\":949:951   */\n      0x20\n        /* \"#utility.yul\":937:946   */\n      dup3\n        /* \"#utility.yul\":928:935   */\n      dup5\n        /* \"#utility.yul\":924:947   */\n      sub\n        /* \"#utility.yul\":920:952   */\n      slt\n        /* \"#utility.yul\":917:1036   */\n      iszero\n      tag_69\n      jumpi\n        /* \"#utility.yul\":955:1034   */\n      tag_70\n      tag_37\n      jump\t// in\n    tag_70:\n        /* \"#utility.yul\":917:1036   */\n    tag_69:\n        /* \"#utility.yul\":1075:1076   */\n      0x00\n        /* \"#utility.yul\":1100:1153   */\n      tag_71\n        /* \"#utility.yul\":1145:1152   */\n      dup5\n        /* \"#utility.yul\":1136:1142   */\n      dup3\n        /* \"#utility.yul\":1125:1134   */\n      dup6\n        /* \"#utility.yul\":1121:1143   */\n      add\n        /* \"#utility.yul\":1100:1153   */\n      tag_42\n      jump\t// in\n    tag_71:\n        /* \"#utility.yul\":1090:1153   */\n      swap2\n      pop\n        /* \"#utility.yul\":1046:1163   */\n      pop\n        /* \"#utility.yul\":841:1170   */\n      swap3\n      swap2\n      pop\n      pop\n      jump\t// out\n        /* \"#utility.yul\":1176:1345   */\n    tag_43:\n        /* \"#utility.yul\":1260:1271   */\n      0x00\n        /* \"#utility.yul\":1294:1300   */\n      dup3\n        /* \"#utility.yul\":1289:1292   */\n      dup3\n        /* \"#utility.yul\":1282:1301   */\n      mstore\n        /* \"#utility.yul\":1334:1338   */\n      0x20\n        /* \"#utility.yul\":1329:1332   */\n      dup3\n        /* \"#utility.yul\":1325:1339   */\n      add\n        /* \"#utility.yul\":1310:1339   */\n      swap1\n      pop\n        /* \"#utility.yul\":1176:1345   */\n      swap3\n      swap2\n      pop\n      pop\n      jump\t// out\n        /* \"#utility.yul\":1351:1520   */\n    tag_44:\n        /* \"#utility.yul\":1491:1512   */\n      0x4e6f7420656e6f7567682063757272656e637900000000000000000000000000\n        /* \"#utility.yul\":1487:1488   */\n      0x00\n        /* \"#utility.yul\":1479:1485   */\n      dup3\n        /* \"#utility.yul\":1475:1489   */\n      add\n        /* \"#utility.yul\":1468:1513   */\n      mstore\n        /* \"#utility.yul\":1351:1520   */\n      pop\n      jump\t// out\n        /* \"#utility.yul\":1526:1892   */\n    tag_45:\n        /* \"#utility.yul\":1668:1671   */\n      0x00\n        /* \"#utility.yul\":1689:1756   */\n      tag_75\n        /* \"#utility.yul\":1753:1755   */\n      0x13\n        /* \"#utility.yul\":1748:1751   */\n      dup4\n        /* \"#utility.yul\":1689:1756   */\n      tag_43\n      jump\t// in\n    tag_75:\n        /* \"#utility.yul\":1682:1756   */\n      swap2\n      pop\n        /* \"#utility.yul\":1765:1858   */\n      tag_76\n        /* \"#utility.yul\":1854:1857   */\n      dup3\n        /* \"#utility.yul\":1765:1858   */\n      tag_44\n      jump\t// in\n    tag_76:\n        /* \"#utility.yul\":1883:1885   */\n      0x20\n        /* \"#utility.yul\":1878:1881   */\n      dup3\n        /* \"#utility.yul\":1874:1886   */\n      add\n        /* \"#utility.yul\":1867:1886   */\n      swap1\n      pop\n        /* \"#utility.yul\":1526:1892   */\n      swap2\n      swap1\n      pop\n      jump\t// out\n        /* \"#utility.yul\":1898:2317   */\n    tag_15:\n        /* \"#utility.yul\":2064:2068   */\n      0x00\n        /* \"#utility.yul\":2102:2104   */\n      0x20\n        /* \"#utility.yul\":2091:2100   */\n      dup3\n        /* \"#utility.yul\":2087:2105   */\n      add\n        /* \"#utility.yul\":2079:2105   */\n      swap1\n      pop\n        /* \"#utility.yul\":2151:2160   */\n      dup2\n        /* \"#utility.yul\":2145:2149   */\n      dup2\n        /* \"#utility.yul\":2141:2161   */\n      sub\n        /* \"#utility.yul\":2137:2138   */\n      0x00\n        /* \"#utility.yul\":2126:2135   */\n      dup4\n        /* \"#utility.yul\":2122:2139   */\n      add\n        /* \"#utility.yul\":2115:2162   */\n      mstore\n        /* \"#utility.yul\":2179:2310   */\n      tag_78\n        /* \"#utility.yul\":2305:2309   */\n      dup2\n        /* \"#utility.yul\":2179:2310   */\n      tag_45\n      jump\t// in\n    tag_78:\n        /* \"#utility.yul\":2171:2310   */\n      swap1\n      pop\n        /* \"#utility.yul\":1898:2317   */\n      swap2\n      swap1\n      pop\n      jump\t// out\n        /* \"#utility.yul\":2323:2400   */\n    tag_46:\n        /* \"#utility.yul\":2360:2367   */\n      0x00\n        /* \"#utility.yul\":2389:2394   */\n      dup2\n        /* \"#utility.yul\":2378:2394   */\n      swap1\n      pop\n        /* \"#utility.yul\":2323:2400   */\n      swap2\n      swap1\n      pop\n      jump\t// out\n        /* \"#utility.yul\":2406:2586   */\n    tag_47:\n        /* \"#utility.yul\":2454:2531   */\n      0x4e487b7100000000000000000000000000000000000000000000000000000000\n        /* \"#utility.yul\":2451:2452   */\n      0x00\n        /* \"#utility.yul\":2444:2532   */\n      mstore\n        /* \"#utility.yul\":2551:2555   */\n      0x12\n        /* \"#utility.yul\":2548:2549   */\n      0x04\n        /* \"#utility.yul\":2541:2556   */\n      mstore\n        /* \"#utility.yul\":2575:2579   */\n      0x24\n        /* \"#utility.yul\":2572:2573   */\n      0x00\n        /* \"#utility.yul\":2565:2580   */\n      revert\n        /* \"#utility.yul\":2592:2772   */\n    tag_48:\n        /* \"#utility.yul\":2640:2717   */\n      0x4e487b7100000000000000000000000000000000000000000000000000000000\n        /* \"#utility.yul\":2637:2638   */\n      0x00\n        /* \"#utility.yul\":2630:2718   */\n      mstore\n        /* \"#utility.yul\":2737:2741   */\n      0x11\n        /* \"#utility.yul\":2734:2735   */\n      0x04\n        /* \"#utility.yul\":2727:2742   */\n      mstore\n        /* \"#utility.yul\":2761:2765   */\n      0x24\n        /* \"#utility.yul\":2758:2759   */\n      0x00\n        /* \"#utility.yul\":2751:2766   */\n      revert\n        /* \"#utility.yul\":2778:2963   */\n    tag_17:\n        /* \"#utility.yul\":2818:2819   */\n      0x00\n        /* \"#utility.yul\":2835:2855   */\n      tag_83\n        /* \"#utility.yul\":2853:2854   */\n      dup3\n        /* \"#utility.yul\":2835:2855   */\n      tag_46\n      jump\t// in\n    tag_83:\n        /* \"#utility.yul\":2830:2855   */\n      swap2\n      pop\n        /* \"#utility.yul\":2869:2889   */\n      tag_84\n        /* \"#utility.yul\":2887:2888   */\n      dup4\n        /* \"#utility.yul\":2869:2889   */\n      tag_46\n      jump\t// in\n    tag_84:\n        /* \"#utility.yul\":2864:2889   */\n      swap3\n      pop\n        /* \"#utility.yul\":2908:2909   */\n      dup3\n        /* \"#utility.yul\":2898:2933   */\n      tag_85\n      jumpi\n        /* \"#utility.yul\":2913:2931   */\n      tag_86\n      tag_47\n      jump\t// in\n    tag_86:\n        /* \"#utility.yul\":2898:2933   */\n    tag_85:\n        /* \"#utility.yul\":2955:2956   */\n      dup3\n        /* \"#utility.yul\":2952:2953   */\n      dup3\n        /* \"#utility.yul\":2948:2957   */\n      div\n        /* \"#utility.yul\":2943:2957   */\n      swap1\n      pop\n        /* \"#utility.yul\":2778:2963   */\n      swap3\n      swap2\n      pop\n      pop\n      jump\t// out\n        /* \"#utility.yul\":2969:3317   */\n    tag_19:\n        /* \"#utility.yul\":3009:3016   */\n      0x00\n        /* \"#utility.yul\":3032:3052   */\n      tag_88\n        /* \"#utility.yul\":3050:3051   */\n      dup3\n        /* \"#utility.yul\":3032:3052   */\n      tag_46\n      jump\t// in\n    tag_88:\n        /* \"#utility.yul\":3027:3052   */\n      swap2\n      pop\n        /* \"#utility.yul\":3066:3086   */\n      tag_89\n        /* \"#utility.yul\":3084:3085   */\n      dup4\n        /* \"#utility.yul\":3066:3086   */\n      tag_46\n      jump\t// in\n    tag_89:\n        /* \"#utility.yul\":3061:3086   */\n      swap3\n      pop\n        /* \"#utility.yul\":3254:3255   */\n      dup2\n        /* \"#utility.yul\":3186:3252   */\n      0xffffffffffffffffffffffffffffffffffffffffffffffffffffffffffffffff\n        /* \"#utility.yul\":3182:3256   */\n      div\n        /* \"#utility.yul\":3179:3180   */\n      dup4\n        /* \"#utility.yul\":3176:3257   */\n      gt\n        /* \"#utility.yul\":3171:3172   */\n      dup3\n        /* \"#utility.yul\":3164:3173   */\n      iszero\n        /* \"#utility.yul\":3157:3174   */\n      iszero\n        /* \"#utility.yul\":3153:3258   */\n      and\n        /* \"#utility.yul\":3150:3281   */\n      iszero\n      tag_90\n      jumpi\n        /* \"#utility.yul\":3261:3279   */\n      tag_91\n      tag_48\n      jump\t// in\n    tag_91:\n        /* \"#utility.yul\":3150:3281   */\n    tag_90:\n        /* \"#utility.yul\":3309:3310   */\n      dup3\n        /* \"#utility.yul\":3306:3307   */\n      dup3\n        /* \"#utility.yul\":3302:3311   */\n      mul\n        /* \"#utility.yul\":3291:3311   */\n      swap1\n      pop\n        /* \"#utility.yul\":2969:3317   */\n      swap3\n      swap2\n      pop\n      pop\n      jump\t// out\n        /* \"#utility.yul\":3323:3514   */\n    tag_21:\n        /* \"#utility.yul\":3363:3367   */\n      0x00\n        /* \"#utility.yul\":3383:3403   */\n      tag_93\n        /* \"#utility.yul\":3401:3402   */\n      dup3\n        /* \"#utility.yul\":3383:3403   */\n      tag_46\n      jump\t// in\n    tag_93:\n        /* \"#utility.yul\":3378:3403   */\n      swap2\n      pop\n        /* \"#utility.yul\":3417:3437   */\n      tag_94\n        /* \"#utility.yul\":3435:3436   */\n      dup4\n        /* \"#utility.yul\":3417:3437   */\n      tag_46\n      jump\t// in\n    tag_94:\n        /* \"#utility.yul\":3412:3437   */\n      swap3\n      pop\n        /* \"#utility.yul\":3456:3457   */\n      dup3\n        /* \"#utility.yul\":3453:3454   */\n      dup3\n        /* \"#utility.yul\":3450:3458   */\n      lt\n        /* \"#utility.yul\":3447:3481   */\n      iszero\n      tag_95\n      jumpi\n        /* \"#utility.yul\":3461:3479   */\n      tag_96\n      tag_48\n      jump\t// in\n    tag_96:\n        /* \"#utility.yul\":3447:3481   */\n    tag_95:\n        /* \"#utility.yul\":3506:3507   */\n      dup3\n        /* \"#utility.yul\":3503:3504   */\n      dup3\n        /* \"#utility.yul\":3499:3508   */\n      sub\n        /* \"#utility.yul\":3491:3508   */\n      swap1\n      pop\n        /* \"#utility.yul\":3323:3514   */\n      swap3\n      swap2\n      pop\n      pop\n      jump\t// out\n        /* \"#utility.yul\":3520:3642   */\n    tag_49:\n        /* \"#utility.yul\":3593:3617   */\n      tag_98\n        /* \"#utility.yul\":3611:3616   */\n      dup2\n        /* \"#utility.yul\":3593:3617   */\n      tag_46\n      jump\t// in\n    tag_98:\n        /* \"#utility.yul\":3586:3591   */\n      dup2\n        /* \"#utility.yul\":3583:3618   */\n      eq\n        /* \"#utility.yul\":3573:3636   */\n      tag_99\n      jumpi\n        /* \"#utility.yul\":3632:3633   */\n      0x00\n        /* \"#utility.yul\":3629:3630   */\n      dup1\n        /* \"#utility.yul\":3622:3634   */\n      revert\n        /* \"#utility.yul\":3573:3636   */\n    tag_99:\n        /* \"#utility.yul\":3520:3642   */\n      pop\n      jump\t// out\n        /* \"#utility.yul\":3648:3791   */\n    tag_50:\n        /* \"#utility.yul\":3705:3710   */\n      0x00\n        /* \"#utility.yul\":3736:3742   */\n      dup2\n        /* \"#utility.yul\":3730:3743   */\n      mload\n        /* \"#utility.yul\":3721:3743   */\n      swap1\n      pop\n        /* \"#utility.yul\":3752:3785   */\n      tag_101\n        /* \"#utility.yul\":3779:3784   */\n      dup2\n        /* \"#utility.yul\":3752:3785   */\n      tag_49\n      jump\t// in\n    tag_101:\n        /* \"#utility.yul\":3648:3791   */\n      swap3\n      swap2\n      pop\n      pop\n      jump\t// out\n        /* \"#utility.yul\":3797:4148   */\n    tag_25:\n        /* \"#utility.yul\":3867:3873   */\n      0x00\n        /* \"#utility.yul\":3916:3918   */\n      0x20\n        /* \"#utility.yul\":3904:3913   */\n      dup3\n        /* \"#utility.yul\":3895:3902   */\n      dup5\n        /* \"#utility.yul\":3891:3914   */\n      sub\n        /* \"#utility.yul\":3887:3919   */\n      slt\n        /* \"#utility.yul\":3884:4003   */\n      iszero\n      tag_103\n      jumpi\n        /* \"#utility.yul\":3922:4001   */\n      tag_104\n      tag_37\n      jump\t// in\n    tag_104:\n        /* \"#utility.yul\":3884:4003   */\n    tag_103:\n        /* \"#utility.yul\":4042:4043   */\n      0x00\n        /* \"#utility.yul\":4067:4131   */\n      tag_105\n        /* \"#utility.yul\":4123:4130   */\n      dup5\n        /* \"#utility.yul\":4114:4120   */\n      dup3\n        /* \"#utility.yul\":4103:4112   */\n      dup6\n        /* \"#utility.yul\":4099:4121   */\n      add\n        /* \"#utility.yul\":4067:4131   */\n      tag_50\n      jump\t// in\n    tag_105:\n        /* \"#utility.yul\":4057:4131   */\n      swap2\n      pop\n        /* \"#utility.yul\":4013:4141   */\n      pop\n        /* \"#utility.yul\":3797:4148   */\n      swap3\n      swap2\n      pop\n      pop\n      jump\t// out\n        /* \"#utility.yul\":4154:4256   */\n    tag_51:\n        /* \"#utility.yul\":4196:4204   */\n      0x00\n        /* \"#utility.yul\":4243:4248   */\n      dup2\n        /* \"#utility.yul\":4240:4241   */\n      0x01\n        /* \"#utility.yul\":4236:4249   */\n      shr\n        /* \"#utility.yul\":4215:4249   */\n      swap1\n      pop\n        /* \"#utility.yul\":4154:4256   */\n      swap2\n      swap1\n      pop\n      jump\t// out\n        /* \"#utility.yul\":4262:5110   */\n    tag_52:\n        /* \"#utility.yul\":4323:4328   */\n      0x00\n        /* \"#utility.yul\":4330:4334   */\n      dup1\n        /* \"#utility.yul\":4354:4360   */\n      dup3\n        /* \"#utility.yul\":4345:4360   */\n      swap2\n      pop\n        /* \"#utility.yul\":4378:4383   */\n      dup4\n        /* \"#utility.yul\":4369:4383   */\n      swap1\n      pop\n        /* \"#utility.yul\":4392:5104   */\n    tag_108:\n        /* \"#utility.yul\":4413:4414   */\n      0x01\n        /* \"#utility.yul\":4403:4411   */\n      dup6\n        /* \"#utility.yul\":4400:4415   */\n      gt\n        /* \"#utility.yul\":4392:5104   */\n      iszero\n      tag_110\n      jumpi\n        /* \"#utility.yul\":4508:4512   */\n      dup1\n        /* \"#utility.yul\":4503:4506   */\n      dup7\n        /* \"#utility.yul\":4499:4513   */\n      div\n        /* \"#utility.yul\":4493:4497   */\n      dup2\n        /* \"#utility.yul\":4490:4514   */\n      gt\n        /* \"#utility.yul\":4487:4537   */\n      iszero\n      tag_111\n      jumpi\n        /* \"#utility.yul\":4517:4535   */\n      tag_112\n      tag_48\n      jump\t// in\n    tag_112:\n        /* \"#utility.yul\":4487:4537   */\n    tag_111:\n        /* \"#utility.yul\":4567:4568   */\n      0x01\n        /* \"#utility.yul\":4557:4565   */\n      dup6\n        /* \"#utility.yul\":4553:4569   */\n      and\n        /* \"#utility.yul\":4550:5001   */\n      iszero\n      tag_113\n      jumpi\n        /* \"#utility.yul\":4982:4986   */\n      dup1\n        /* \"#utility.yul\":4975:4980   */\n      dup3\n        /* \"#utility.yul\":4971:4987   */\n      mul\n        /* \"#utility.yul\":4962:4987   */\n      swap2\n      pop\n        /* \"#utility.yul\":4550:5001   */\n    tag_113:\n        /* \"#utility.yul\":5032:5036   */\n      dup1\n        /* \"#utility.yul\":5026:5030   */\n      dup2\n        /* \"#utility.yul\":5022:5037   */\n      mul\n        /* \"#utility.yul\":5014:5037   */\n      swap1\n      pop\n        /* \"#utility.yul\":5062:5094   */\n      tag_114\n        /* \"#utility.yul\":5085:5093   */\n      dup6\n        /* \"#utility.yul\":5062:5094   */\n      tag_51\n      jump\t// in\n    tag_114:\n        /* \"#utility.yul\":5050:5094   */\n      swap5\n      pop\n        /* \"#utility.yul\":4392:5104   */\n      jump(tag_108)\n    tag_110:\n        /* \"#utility.yul\":4262:5110   */\n      swap5\n      pop\n      swap5\n      swap3\n      pop\n      pop\n      pop\n      jump\t// out\n        /* \"#utility.yul\":5116:6189   */\n    tag_53:\n        /* \"#utility.yul\":5170:5175   */\n      0x00\n        /* \"#utility.yul\":5361:5369   */\n      dup3\n        /* \"#utility.yul\":5351:5391   */\n      tag_116\n      jumpi\n        /* \"#utility.yul\":5382:5383   */\n      0x01\n        /* \"#utility.yul\":5373:5383   */\n      swap1\n      pop\n        /* \"#utility.yul\":5384:5389   */\n      jump(tag_115)\n        /* \"#utility.yul\":5351:5391   */\n    tag_116:\n        /* \"#utility.yul\":5410:5414   */\n      dup2\n        /* \"#utility.yul\":5400:5436   */\n      tag_117\n      jumpi\n        /* \"#utility.yul\":5427:5428   */\n      0x00\n        /* \"#utility.yul\":5418:5428   */\n      swap1\n      pop\n        /* \"#utility.yul\":5429:5434   */\n      jump(tag_115)\n        /* \"#utility.yul\":5400:5436   */\n    tag_117:\n        /* \"#utility.yul\":5496:5500   */\n      dup2\n        /* \"#utility.yul\":5544:5545   */\n      0x01\n        /* \"#utility.yul\":5539:5566   */\n      dup2\n      eq\n      tag_119\n      jumpi\n        /* \"#utility.yul\":5580:5581   */\n      0x02\n        /* \"#utility.yul\":5575:5766   */\n      dup2\n      eq\n      tag_120\n      jumpi\n        /* \"#utility.yul\":5489:5766   */\n      jump(tag_118)\n        /* \"#utility.yul\":5539:5566   */\n    tag_119:\n        /* \"#utility.yul\":5557:5558   */\n      0x01\n        /* \"#utility.yul\":5548:5558   */\n      swap2\n      pop\n        /* \"#utility.yul\":5559:5564   */\n      pop\n      jump(tag_115)\n        /* \"#utility.yul\":5575:5766   */\n    tag_120:\n        /* \"#utility.yul\":5620:5623   */\n      0xff\n        /* \"#utility.yul\":5610:5618   */\n      dup5\n        /* \"#utility.yul\":5607:5624   */\n      gt\n        /* \"#utility.yul\":5604:5647   */\n      iszero\n      tag_121\n      jumpi\n        /* \"#utility.yul\":5627:5645   */\n      tag_122\n      tag_48\n      jump\t// in\n    tag_122:\n        /* \"#utility.yul\":5604:5647   */\n    tag_121:\n        /* \"#utility.yul\":5676:5684   */\n      dup4\n        /* \"#utility.yul\":5673:5674   */\n      0x02\n        /* \"#utility.yul\":5669:5685   */\n      exp\n        /* \"#utility.yul\":5660:5685   */\n      swap2\n      pop\n        /* \"#utility.yul\":5711:5714   */\n      dup5\n        /* \"#utility.yul\":5704:5709   */\n      dup3\n        /* \"#utility.yul\":5701:5715   */\n      gt\n        /* \"#utility.yul\":5698:5738   */\n      iszero\n      tag_123\n      jumpi\n        /* \"#utility.yul\":5718:5736   */\n      tag_124\n      tag_48\n      jump\t// in\n    tag_124:\n        /* \"#utility.yul\":5698:5738   */\n    tag_123:\n        /* \"#utility.yul\":5751:5756   */\n      pop\n      jump(tag_115)\n        /* \"#utility.yul\":5489:5766   */\n    tag_118:\n      pop\n        /* \"#utility.yul\":5875:5877   */\n      0x20\n        /* \"#utility.yul\":5865:5873   */\n      dup4\n        /* \"#utility.yul\":5862:5878   */\n      lt\n        /* \"#utility.yul\":5856:5859   */\n      0x0133\n        /* \"#utility.yul\":5850:5854   */\n      dup4\n        /* \"#utility.yul\":5847:5860   */\n      lt\n        /* \"#utility.yul\":5843:5879   */\n      and\n        /* \"#utility.yul\":5825:5827   */\n      0x4e\n        /* \"#utility.yul\":5815:5823   */\n      dup5\n        /* \"#utility.yul\":5812:5828   */\n      lt\n        /* \"#utility.yul\":5807:5809   */\n      0x0b\n        /* \"#utility.yul\":5801:5805   */\n      dup5\n        /* \"#utility.yul\":5798:5810   */\n      lt\n        /* \"#utility.yul\":5794:5829   */\n      and\n        /* \"#utility.yul\":5778:5889   */\n      or\n        /* \"#utility.yul\":5775:6021   */\n      iszero\n      tag_125\n      jumpi\n        /* \"#utility.yul\":5931:5939   */\n      dup3\n        /* \"#utility.yul\":5925:5929   */\n      dup3\n        /* \"#utility.yul\":5921:5940   */\n      exp\n        /* \"#utility.yul\":5912:5940   */\n      swap1\n      pop\n        /* \"#utility.yul\":5966:5969   */\n      dup4\n        /* \"#utility.yul\":5959:5964   */\n      dup2\n        /* \"#utility.yul\":5956:5970   */\n      gt\n        /* \"#utility.yul\":5953:5993   */\n      iszero\n      tag_126\n      jumpi\n        /* \"#utility.yul\":5973:5991   */\n      tag_127\n      tag_48\n      jump\t// in\n    tag_127:\n        /* \"#utility.yul\":5953:5993   */\n    tag_126:\n        /* \"#utility.yul\":6006:6011   */\n      jump(tag_115)\n        /* \"#utility.yul\":5775:6021   */\n    tag_125:\n        /* \"#utility.yul\":6046:6088   */\n      tag_128\n        /* \"#utility.yul\":6084:6087   */\n      dup5\n        /* \"#utility.yul\":6074:6082   */\n      dup5\n        /* \"#utility.yul\":6068:6072   */\n      dup5\n        /* \"#utility.yul\":6065:6066   */\n      0x01\n        /* \"#utility.yul\":6046:6088   */\n      tag_52\n      jump\t// in\n    tag_128:\n        /* \"#utility.yul\":6031:6088   */\n      swap3\n      pop\n      swap1\n      pop\n        /* \"#utility.yul\":6120:6124   */\n      dup2\n        /* \"#utility.yul\":6115:6118   */\n      dup5\n        /* \"#utility.yul\":6111:6125   */\n      div\n        /* \"#utility.yul\":6104:6109   */\n      dup2\n        /* \"#utility.yul\":6101:6126   */\n      gt\n        /* \"#utility.yul\":6098:6149   */\n      iszero\n      tag_129\n      jumpi\n        /* \"#utility.yul\":6129:6147   */\n      tag_130\n      tag_48\n      jump\t// in\n    tag_130:\n        /* \"#utility.yul\":6098:6149   */\n    tag_129:\n        /* \"#utility.yul\":6178:6182   */\n      dup2\n        /* \"#utility.yul\":6171:6176   */\n      dup2\n        /* \"#utility.yul\":6167:6183   */\n      mul\n        /* \"#utility.yul\":6158:6183   */\n      swap1\n      pop\n        /* \"#utility.yul\":5116:6189   */\n    tag_115:\n      swap4\n      swap3\n      pop\n      pop\n      pop\n      jump\t// out\n        /* \"#utility.yul\":6195:6480   */\n    tag_27:\n        /* \"#utility.yul\":6255:6260   */\n      0x00\n        /* \"#utility.yul\":6279:6302   */\n      tag_132\n        /* \"#utility.yul\":6297:6301   */\n      dup3\n        /* \"#utility.yul\":6279:6302   */\n      tag_46\n      jump\t// in\n    tag_132:\n        /* \"#utility.yul\":6271:6302   */\n      swap2\n      pop\n        /* \"#utility.yul\":6323:6350   */\n      tag_133\n        /* \"#utility.yul\":6341:6349   */\n      dup4\n        /* \"#utility.yul\":6323:6350   */\n      tag_46\n      jump\t// in\n    tag_133:\n        /* \"#utility.yul\":6311:6350   */\n      swap3\n      pop\n        /* \"#utility.yul\":6369:6473   */\n      tag_134\n        /* \"#utility.yul\":6406:6472   */\n      0xffffffffffffffffffffffffffffffffffffffffffffffffffffffffffffffff\n        /* \"#utility.yul\":6396:6404   */\n      dup5\n        /* \"#utility.yul\":6390:6394   */\n      dup5\n        /* \"#utility.yul\":6369:6473   */\n      tag_53\n      jump\t// in\n    tag_134:\n        /* \"#utility.yul\":6360:6473   */\n      swap1\n      pop\n        /* \"#utility.yul\":6195:6480   */\n      swap3\n      swap2\n      pop\n      pop\n      jump\t// out\n        /* \"#utility.yul\":6486:6604   */\n    tag_54:\n        /* \"#utility.yul\":6573:6597   */\n      tag_136\n        /* \"#utility.yul\":6591:6596   */\n      dup2\n        /* \"#utility.yul\":6573:6597   */\n      tag_40\n      jump\t// in\n    tag_136:\n        /* \"#utility.yul\":6568:6571   */\n      dup3\n        /* \"#utility.yul\":6561:6598   */\n      mstore\n        /* \"#utility.yul\":6486:6604   */\n      pop\n      pop\n      jump\t// out\n        /* \"#utility.yul\":6610:6728   */\n    tag_55:\n        /* \"#utility.yul\":6697:6721   */\n      tag_138\n        /* \"#utility.yul\":6715:6720   */\n      dup2\n        /* \"#utility.yul\":6697:6721   */\n      tag_46\n      jump\t// in\n    tag_138:\n        /* \"#utility.yul\":6692:6695   */\n      dup3\n        /* \"#utility.yul\":6685:6722   */\n      mstore\n        /* \"#utility.yul\":6610:6728   */\n      pop\n      pop\n      jump\t// out\n        /* \"#utility.yul\":6734:7066   */\n    tag_30:\n        /* \"#utility.yul\":6855:6859   */\n      0x00\n        /* \"#utility.yul\":6893:6895   */\n      0x40\n        /* \"#utility.yul\":6882:6891   */\n      dup3\n        /* \"#utility.yul\":6878:6896   */\n      add\n        /* \"#utility.yul\":6870:6896   */\n      swap1\n      pop\n        /* \"#utility.yul\":6906:6977   */\n      tag_140\n        /* \"#utility.yul\":6974:6975   */\n      0x00\n        /* \"#utility.yul\":6963:6972   */\n      dup4\n        /* \"#utility.yul\":6959:6976   */\n      add\n        /* \"#utility.yul\":6950:6956   */\n      dup6\n        /* \"#utility.yul\":6906:6977   */\n      tag_54\n      jump\t// in\n    tag_140:\n        /* \"#utility.yul\":6987:7059   */\n      tag_141\n        /* \"#utility.yul\":7055:7057   */\n      0x20\n        /* \"#utility.yul\":7044:7053   */\n      dup4\n        /* \"#utility.yul\":7040:7058   */\n      add\n        /* \"#utility.yul\":7031:7037   */\n      dup5\n        /* \"#utility.yul\":6987:7059   */\n      tag_55\n      jump\t// in\n    tag_141:\n        /* \"#utility.yul\":6734:7066   */\n      swap4\n      swap3\n      pop\n      pop\n      pop\n      jump\t// out\n\n    auxdata: 0xa2646970667358221220cc9dcc679409de767868ae5e47d23c84401d5860e5d9698ce4eddff627f9d99864736f6c634300080f0033\n}\n",
				"bytecode": {
					"linkReferences": {},
					"object": "6080604052670de0b6b3a764000060005534801561001c57600080fd5b506107208061002c6000396000f3fe6080604052600436106100295760003560e01c8063144fa6d71461002e57806364edfbf014610057575b600080fd5b34801561003a57600080fd5b50610055600480360381019061005091906102fb565b610061565b005b61005f6100a5565b005b80600160006101000a81548173ffffffffffffffffffffffffffffffffffffffff021916908373ffffffffffffffffffffffffffffffffffffffff16021790555050565b6000543410156100ea576040517f08c379a00000000000000000000000000000000000000000000000000000000081526004016100e190610385565b60405180910390fd5b60008054346100f9919061040d565b9050600080548261010a919061043e565b346101159190610498565b9050600160009054906101000a900473ffffffffffffffffffffffffffffffffffffffff1673ffffffffffffffffffffffffffffffffffffffff1663a9059cbb33600160009054906101000a900473ffffffffffffffffffffffffffffffffffffffff1673ffffffffffffffffffffffffffffffffffffffff1663313ce5676040518163ffffffff1660e01b8152600401602060405180830381865afa1580156101c3573d6000803e3d6000fd5b505050506040513d601f19601f820116820180604052508101906101e791906104f8565b600a6101f39190610658565b856101fe919061043e565b6040518363ffffffff1660e01b815260040161021b9291906106c1565b600060405180830381600087803b15801561023557600080fd5b505af1158015610249573d6000803e3d6000fd5b505050503373ffffffffffffffffffffffffffffffffffffffff166108fc829081150290604051600060405180830381858888f19350505050158015610293573d6000803e3d6000fd5b505050565b600080fd5b600073ffffffffffffffffffffffffffffffffffffffff82169050919050565b60006102c88261029d565b9050919050565b6102d8816102bd565b81146102e357600080fd5b50565b6000813590506102f5816102cf565b92915050565b60006020828403121561031157610310610298565b5b600061031f848285016102e6565b91505092915050565b600082825260208201905092915050565b7f4e6f7420656e6f7567682063757272656e637900000000000000000000000000600082015250565b600061036f601383610328565b915061037a82610339565b602082019050919050565b6000602082019050818103600083015261039e81610362565b9050919050565b6000819050919050565b7f4e487b7100000000000000000000000000000000000000000000000000000000600052601260045260246000fd5b7f4e487b7100000000000000000000000000000000000000000000000000000000600052601160045260246000fd5b6000610418826103a5565b9150610423836103a5565b925082610433576104326103af565b5b828204905092915050565b6000610449826103a5565b9150610454836103a5565b9250817fffffffffffffffffffffffffffffffffffffffffffffffffffffffffffffffff048311821515161561048d5761048c6103de565b5b828202905092915050565b60006104a3826103a5565b91506104ae836103a5565b9250828210156104c1576104c06103de565b5b828203905092915050565b6104d5816103a5565b81146104e057600080fd5b50565b6000815190506104f2816104cc565b92915050565b60006020828403121561050e5761050d610298565b5b600061051c848285016104e3565b91505092915050565b60008160011c9050919050565b6000808291508390505b600185111561057c57808604811115610558576105576103de565b5b60018516156105675780820291505b808102905061057585610525565b945061053c565b94509492505050565b6000826105955760019050610651565b816105a35760009050610651565b81600181146105b957600281146105c3576105f2565b6001915050610651565b60ff8411156105d5576105d46103de565b5b8360020a9150848211156105ec576105eb6103de565b5b50610651565b5060208310610133831016604e8410600b84101617156106275782820a905083811115610622576106216103de565b5b610651565b6106348484846001610532565b9250905081840481111561064b5761064a6103de565b5b81810290505b9392505050565b6000610663826103a5565b915061066e836103a5565b925061069b7fffffffffffffffffffffffffffffffffffffffffffffffffffffffffffffffff8484610585565b905092915050565b6106ac816102bd565b82525050565b6106bb816103a5565b82525050565b60006040820190506106d660008301856106a3565b6106e360208301846106b2565b939250505056fea2646970667358221220cc9dcc679409de767868ae5e47d23c84401d5860e5d9698ce4eddff627f9d99864736f6c634300080f0033",
					"opcodes": "PUSH1 0x80 PUSH1 0x40 MSTORE PUSH8 0xDE0B6B3A7640000 PUSH1 0x0 SSTORE CALLVALUE DUP1 ISZERO PUSH2 0x1C JUMPI PUSH1 0x0 DUP1 REVERT JUMPDEST POP PUSH2 0x720 DUP1 PUSH2 0x2C PUSH1 0x0 CODECOPY PUSH1 0x0 RETURN INVALID PUSH1 0x80 PUSH1 0x40 MSTORE PUSH1 0x4 CALLDATASIZE LT PUSH2 0x29 JUMPI PUSH1 0x0 CALLDATALOAD PUSH1 0xE0 SHR DUP1 PUSH4 0x144FA6D7 EQ PUSH2 0x2E JUMPI DUP1 PUSH4 0x64EDFBF0 EQ PUSH2 0x57 JUMPI JUMPDEST PUSH1 0x0 DUP1 REVERT JUMPDEST CALLVALUE DUP1 ISZERO PUSH2 0x3A JUMPI PUSH1 0x0 DUP1 REVERT JUMPDEST POP PUSH2 0x55 PUSH1 0x4 DUP1 CALLDATASIZE SUB DUP2 ADD SWAP1 PUSH2 0x50 SWAP2 SWAP1 PUSH2 0x2FB JUMP JUMPDEST PUSH2 0x61 JUMP JUMPDEST STOP JUMPDEST PUSH2 0x5F PUSH2 0xA5 JUMP JUMPDEST STOP JUMPDEST DUP1 PUSH1 0x1 PUSH1 0x0 PUSH2 0x100 EXP DUP2 SLOAD DUP2 PUSH20 0xFFFFFFFFFFFFFFFFFFFFFFFFFFFFFFFFFFFFFFFF MUL NOT AND SWAP1 DUP4 PUSH20 0xFFFFFFFFFFFFFFFFFFFFFFFFFFFFFFFFFFFFFFFF AND MUL OR SWAP1 SSTORE POP POP JUMP JUMPDEST PUSH1 0x0 SLOAD CALLVALUE LT ISZERO PUSH2 0xEA JUMPI PUSH1 0x40 MLOAD PUSH32 0x8C379A000000000000000000000000000000000000000000000000000000000 DUP2 MSTORE PUSH1 0x4 ADD PUSH2 0xE1 SWAP1 PUSH2 0x385 JUMP JUMPDEST PUSH1 0x40 MLOAD DUP1 SWAP2 SUB SWAP1 REVERT JUMPDEST PUSH1 0x0 DUP1 SLOAD CALLVALUE PUSH2 0xF9 SWAP2 SWAP1 PUSH2 0x40D JUMP JUMPDEST SWAP1 POP PUSH1 0x0 DUP1 SLOAD DUP3 PUSH2 0x10A SWAP2 SWAP1 PUSH2 0x43E JUMP JUMPDEST CALLVALUE PUSH2 0x115 SWAP2 SWAP1 PUSH2 0x498 JUMP JUMPDEST SWAP1 POP PUSH1 0x1 PUSH1 0x0 SWAP1 SLOAD SWAP1 PUSH2 0x100 EXP SWAP1 DIV PUSH20 0xFFFFFFFFFFFFFFFFFFFFFFFFFFFFFFFFFFFFFFFF AND PUSH20 0xFFFFFFFFFFFFFFFFFFFFFFFFFFFFFFFFFFFFFFFF AND PUSH4 0xA9059CBB CALLER PUSH1 0x1 PUSH1 0x0 SWAP1 SLOAD SWAP1 PUSH2 0x100 EXP SWAP1 DIV PUSH20 0xFFFFFFFFFFFFFFFFFFFFFFFFFFFFFFFFFFFFFFFF AND PUSH20 0xFFFFFFFFFFFFFFFFFFFFFFFFFFFFFFFFFFFFFFFF AND PUSH4 0x313CE567 PUSH1 0x40 MLOAD DUP2 PUSH4 0xFFFFFFFF AND PUSH1 0xE0 SHL DUP2 MSTORE PUSH1 0x4 ADD PUSH1 0x20 PUSH1 0x40 MLOAD DUP1 DUP4 SUB DUP2 DUP7 GAS STATICCALL ISZERO DUP1 ISZERO PUSH2 0x1C3 JUMPI RETURNDATASIZE PUSH1 0x0 DUP1 RETURNDATACOPY RETURNDATASIZE PUSH1 0x0 REVERT JUMPDEST POP POP POP POP PUSH1 0x40 MLOAD RETURNDATASIZE PUSH1 0x1F NOT PUSH1 0x1F DUP3 ADD AND DUP3 ADD DUP1 PUSH1 0x40 MSTORE POP DUP2 ADD SWAP1 PUSH2 0x1E7 SWAP2 SWAP1 PUSH2 0x4F8 JUMP JUMPDEST PUSH1 0xA PUSH2 0x1F3 SWAP2 SWAP1 PUSH2 0x658 JUMP JUMPDEST DUP6 PUSH2 0x1FE SWAP2 SWAP1 PUSH2 0x43E JUMP JUMPDEST PUSH1 0x40 MLOAD DUP4 PUSH4 0xFFFFFFFF AND PUSH1 0xE0 SHL DUP2 MSTORE PUSH1 0x4 ADD PUSH2 0x21B SWAP3 SWAP2 SWAP1 PUSH2 0x6C1 JUMP JUMPDEST PUSH1 0x0 PUSH1 0x40 MLOAD DUP1 DUP4 SUB DUP2 PUSH1 0x0 DUP8 DUP1 EXTCODESIZE ISZERO DUP1 ISZERO PUSH2 0x235 JUMPI PUSH1 0x0 DUP1 REVERT JUMPDEST POP GAS CALL ISZERO DUP1 ISZERO PUSH2 0x249 JUMPI RETURNDATASIZE PUSH1 0x0 DUP1 RETURNDATACOPY RETURNDATASIZE PUSH1 0x0 REVERT JUMPDEST POP POP POP POP CALLER PUSH20 0xFFFFFFFFFFFFFFFFFFFFFFFFFFFFFFFFFFFFFFFF AND PUSH2 0x8FC DUP3 SWAP1 DUP2 ISZERO MUL SWAP1 PUSH1 0x40 MLOAD PUSH1 0x0 PUSH1 0x40 MLOAD DUP1 DUP4 SUB DUP2 DUP6 DUP9 DUP9 CALL SWAP4 POP POP POP POP ISZERO DUP1 ISZERO PUSH2 0x293 JUMPI RETURNDATASIZE PUSH1 0x0 DUP1 RETURNDATACOPY RETURNDATASIZE PUSH1 0x0 REVERT JUMPDEST POP POP POP JUMP JUMPDEST PUSH1 0x0 DUP1 REVERT JUMPDEST PUSH1 0x0 PUSH20 0xFFFFFFFFFFFFFFFFFFFFFFFFFFFFFFFFFFFFFFFF DUP3 AND SWAP1 POP SWAP2 SWAP1 POP JUMP JUMPDEST PUSH1 0x0 PUSH2 0x2C8 DUP3 PUSH2 0x29D JUMP JUMPDEST SWAP1 POP SWAP2 SWAP1 POP JUMP JUMPDEST PUSH2 0x2D8 DUP2 PUSH2 0x2BD JUMP JUMPDEST DUP2 EQ PUSH2 0x2E3 JUMPI PUSH1 0x0 DUP1 REVERT JUMPDEST POP JUMP JUMPDEST PUSH1 0x0 DUP2 CALLDATALOAD SWAP1 POP PUSH2 0x2F5 DUP2 PUSH2 0x2CF JUMP JUMPDEST SWAP3 SWAP2 POP POP JUMP JUMPDEST PUSH1 0x0 PUSH1 0x20 DUP3 DUP5 SUB SLT ISZERO PUSH2 0x311 JUMPI PUSH2 0x310 PUSH2 0x298 JUMP JUMPDEST JUMPDEST PUSH1 0x0 PUSH2 0x31F DUP5 DUP3 DUP6 ADD PUSH2 0x2E6 JUMP JUMPDEST SWAP2 POP POP SWAP3 SWAP2 POP POP JUMP JUMPDEST PUSH1 0x0 DUP3 DUP3 MSTORE PUSH1 0x20 DUP3 ADD SWAP1 POP SWAP3 SWAP2 POP POP JUMP JUMPDEST PUSH32 0x4E6F7420656E6F7567682063757272656E637900000000000000000000000000 PUSH1 0x0 DUP3 ADD MSTORE POP JUMP JUMPDEST PUSH1 0x0 PUSH2 0x36F PUSH1 0x13 DUP4 PUSH2 0x328 JUMP JUMPDEST SWAP2 POP PUSH2 0x37A DUP3 PUSH2 0x339 JUMP JUMPDEST PUSH1 0x20 DUP3 ADD SWAP1 POP SWAP2 SWAP1 POP JUMP JUMPDEST PUSH1 0x0 PUSH1 0x20 DUP3 ADD SWAP1 POP DUP2 DUP2 SUB PUSH1 0x0 DUP4 ADD MSTORE PUSH2 0x39E DUP2 PUSH2 0x362 JUMP JUMPDEST SWAP1 POP SWAP2 SWAP1 POP JUMP JUMPDEST PUSH1 0x0 DUP2 SWAP1 POP SWAP2 SWAP1 POP JUMP JUMPDEST PUSH32 0x4E487B7100000000000000000000000000000000000000000000000000000000 PUSH1 0x0 MSTORE PUSH1 0x12 PUSH1 0x4 MSTORE PUSH1 0x24 PUSH1 0x0 REVERT JUMPDEST PUSH32 0x4E487B7100000000000000000000000000000000000000000000000000000000 PUSH1 0x0 MSTORE PUSH1 0x11 PUSH1 0x4 MSTORE PUSH1 0x24 PUSH1 0x0 REVERT JUMPDEST PUSH1 0x0 PUSH2 0x418 DUP3 PUSH2 0x3A5 JUMP JUMPDEST SWAP2 POP PUSH2 0x423 DUP4 PUSH2 0x3A5 JUMP JUMPDEST SWAP3 POP DUP3 PUSH2 0x433 JUMPI PUSH2 0x432 PUSH2 0x3AF JUMP JUMPDEST JUMPDEST DUP3 DUP3 DIV SWAP1 POP SWAP3 SWAP2 POP POP JUMP JUMPDEST PUSH1 0x0 PUSH2 0x449 DUP3 PUSH2 0x3A5 JUMP JUMPDEST SWAP2 POP PUSH2 0x454 DUP4 PUSH2 0x3A5 JUMP JUMPDEST SWAP3 POP DUP2 PUSH32 0xFFFFFFFFFFFFFFFFFFFFFFFFFFFFFFFFFFFFFFFFFFFFFFFFFFFFFFFFFFFFFFFF DIV DUP4 GT DUP3 ISZERO ISZERO AND ISZERO PUSH2 0x48D JUMPI PUSH2 0x48C PUSH2 0x3DE JUMP JUMPDEST JUMPDEST DUP3 DUP3 MUL SWAP1 POP SWAP3 SWAP2 POP POP JUMP JUMPDEST PUSH1 0x0 PUSH2 0x4A3 DUP3 PUSH2 0x3A5 JUMP JUMPDEST SWAP2 POP PUSH2 0x4AE DUP4 PUSH2 0x3A5 JUMP JUMPDEST SWAP3 POP DUP3 DUP3 LT ISZERO PUSH2 0x4C1 JUMPI PUSH2 0x4C0 PUSH2 0x3DE JUMP JUMPDEST JUMPDEST DUP3 DUP3 SUB SWAP1 POP SWAP3 SWAP2 POP POP JUMP JUMPDEST PUSH2 0x4D5 DUP2 PUSH2 0x3A5 JUMP JUMPDEST DUP2 EQ PUSH2 0x4E0 JUMPI PUSH1 0x0 DUP1 REVERT JUMPDEST POP JUMP JUMPDEST PUSH1 0x0 DUP2 MLOAD SWAP1 POP PUSH2 0x4F2 DUP2 PUSH2 0x4CC JUMP JUMPDEST SWAP3 SWAP2 POP POP JUMP JUMPDEST PUSH1 0x0 PUSH1 0x20 DUP3 DUP5 SUB SLT ISZERO PUSH2 0x50E JUMPI PUSH2 0x50D PUSH2 0x298 JUMP JUMPDEST JUMPDEST PUSH1 0x0 PUSH2 0x51C DUP5 DUP3 DUP6 ADD PUSH2 0x4E3 JUMP JUMPDEST SWAP2 POP POP SWAP3 SWAP2 POP POP JUMP JUMPDEST PUSH1 0x0 DUP2 PUSH1 0x1 SHR SWAP1 POP SWAP2 SWAP1 POP JUMP JUMPDEST PUSH1 0x0 DUP1 DUP3 SWAP2 POP DUP4 SWAP1 POP JUMPDEST PUSH1 0x1 DUP6 GT ISZERO PUSH2 0x57C JUMPI DUP1 DUP7 DIV DUP2 GT ISZERO PUSH2 0x558 JUMPI PUSH2 0x557 PUSH2 0x3DE JUMP JUMPDEST JUMPDEST PUSH1 0x1 DUP6 AND ISZERO PUSH2 0x567 JUMPI DUP1 DUP3 MUL SWAP2 POP JUMPDEST DUP1 DUP2 MUL SWAP1 POP PUSH2 0x575 DUP6 PUSH2 0x525 JUMP JUMPDEST SWAP5 POP PUSH2 0x53C JUMP JUMPDEST SWAP5 POP SWAP5 SWAP3 POP POP POP JUMP JUMPDEST PUSH1 0x0 DUP3 PUSH2 0x595 JUMPI PUSH1 0x1 SWAP1 POP PUSH2 0x651 JUMP JUMPDEST DUP2 PUSH2 0x5A3 JUMPI PUSH1 0x0 SWAP1 POP PUSH2 0x651 JUMP JUMPDEST DUP2 PUSH1 0x1 DUP2 EQ PUSH2 0x5B9 JUMPI PUSH1 0x2 DUP2 EQ PUSH2 0x5C3 JUMPI PUSH2 0x5F2 JUMP JUMPDEST PUSH1 0x1 SWAP2 POP POP PUSH2 0x651 JUMP JUMPDEST PUSH1 0xFF DUP5 GT ISZERO PUSH2 0x5D5 JUMPI PUSH2 0x5D4 PUSH2 0x3DE JUMP JUMPDEST JUMPDEST DUP4 PUSH1 0x2 EXP SWAP2 POP DUP5 DUP3 GT ISZERO PUSH2 0x5EC JUMPI PUSH2 0x5EB PUSH2 0x3DE JUMP JUMPDEST JUMPDEST POP PUSH2 0x651 JUMP JUMPDEST POP PUSH1 0x20 DUP4 LT PUSH2 0x133 DUP4 LT AND PUSH1 0x4E DUP5 LT PUSH1 0xB DUP5 LT AND OR ISZERO PUSH2 0x627 JUMPI DUP3 DUP3 EXP SWAP1 POP DUP4 DUP2 GT ISZERO PUSH2 0x622 JUMPI PUSH2 0x621 PUSH2 0x3DE JUMP JUMPDEST JUMPDEST PUSH2 0x651 JUMP JUMPDEST PUSH2 0x634 DUP5 DUP5 DUP5 PUSH1 0x1 PUSH2 0x532 JUMP JUMPDEST SWAP3 POP SWAP1 POP DUP2 DUP5 DIV DUP2 GT ISZERO PUSH2 0x64B JUMPI PUSH2 0x64A PUSH2 0x3DE JUMP JUMPDEST JUMPDEST DUP2 DUP2 MUL SWAP1 POP JUMPDEST SWAP4 SWAP3 POP POP POP JUMP JUMPDEST PUSH1 0x0 PUSH2 0x663 DUP3 PUSH2 0x3A5 JUMP JUMPDEST SWAP2 POP PUSH2 0x66E DUP4 PUSH2 0x3A5 JUMP JUMPDEST SWAP3 POP PUSH2 0x69B PUSH32 0xFFFFFFFFFFFFFFFFFFFFFFFFFFFFFFFFFFFFFFFFFFFFFFFFFFFFFFFFFFFFFFFF DUP5 DUP5 PUSH2 0x585 JUMP JUMPDEST SWAP1 POP SWAP3 SWAP2 POP POP JUMP JUMPDEST PUSH2 0x6AC DUP2 PUSH2 0x2BD JUMP JUMPDEST DUP3 MSTORE POP POP JUMP JUMPDEST PUSH2 0x6BB DUP2 PUSH2 0x3A5 JUMP JUMPDEST DUP3 MSTORE POP POP JUMP JUMPDEST PUSH1 0x0 PUSH1 0x40 DUP3 ADD SWAP1 POP PUSH2 0x6D6 PUSH1 0x0 DUP4 ADD DUP6 PUSH2 0x6A3 JUMP JUMPDEST PUSH2 0x6E3 PUSH1 0x20 DUP4 ADD DUP5 PUSH2 0x6B2 JUMP JUMPDEST SWAP4 SWAP3 POP POP POP JUMP INVALID LOG2 PUSH5 0x6970667358 0x22 SLT KECCAK256 0xCC SWAP14 0xCC PUSH8 0x9409DE767868AE5E SELFBALANCE 0xD2 EXTCODECOPY DUP5 BLOCKHASH SAR PC PUSH1 0xE5 0xD9 PUSH10 0x8CE4EDDFF627F9D99864 PUSH20 0x6F6C634300080F00330000000000000000000000 "
				},
				"gasEstimates": {
					"creation": {
						"codeDepositCost": "364800",
						"executionCost": "22505",
						"totalCost": "387305"
					},
					"external": {
						"purchase()": "infinite",
						"setToken(address)": "24700"
					}
				},
				"methodIdentifiers": {
					"purchase()": "64edfbf0",
					"setToken(address)": "144fa6d7"
				}
			},
			"storageLayout": {
				"storage": [
					{
						"astId": 17,
						"contract": "georgs2TokenSale.sol:TokenSale",
						"label": "weiTokenPrice",
						"offset": 0,
						"slot": "0",
						"type": "t_uint256"
					},
					{
						"astId": 20,
						"contract": "georgs2TokenSale.sol:TokenSale",
						"label": "token",
						"offset": 0,
						"slot": "1",
						"type": "t_contract(IERC20)14"
					}
				],
				"types": {
					"t_contract(IERC20)14": {
						"encoding": "inplace",
						"label": "contract IERC20",
						"numberOfBytes": "20"
					},
					"t_uint256": {
						"encoding": "inplace",
						"label": "uint256",
						"numberOfBytes": "32"
					}
				}
			},
			"userdoc": {
				"kind": "user",
				"methods": {},
				"version": 1
			}
		}
	}
}